{
  "_format": "hh-sol-artifact-1",
  "contractName": "MarketPlace",
  "sourceName": "contracts/MarketPlace.sol",
  "abi": [
    {
      "inputs": [],
      "stateMutability": "nonpayable",
      "type": "constructor"
    },
    {
      "anonymous": false,
      "inputs": [
        {
          "indexed": true,
          "internalType": "uint256",
          "name": "marketItemId",
          "type": "uint256"
        },
        {
          "indexed": false,
          "internalType": "address",
          "name": "lazyFactoryAddress",
          "type": "address"
        },
        {
          "indexed": true,
          "internalType": "uint256",
          "name": "tokenId",
          "type": "uint256"
        },
        {
          "indexed": false,
          "internalType": "address",
          "name": "seller",
          "type": "address"
        },
        {
          "indexed": false,
          "internalType": "address",
          "name": "owner",
          "type": "address"
        },
        {
          "indexed": true,
          "internalType": "uint256",
          "name": "price",
          "type": "uint256"
        },
        {
          "indexed": false,
          "internalType": "bool",
          "name": "sold",
          "type": "bool"
        }
      ],
      "name": "MarketItemCreated",
      "type": "event"
    },
    {
      "anonymous": false,
      "inputs": [
        {
          "indexed": true,
          "internalType": "uint256",
          "name": "marketItemId",
          "type": "uint256"
        },
        {
          "indexed": true,
          "internalType": "address",
          "name": "lazyFactoryAddress",
          "type": "address"
        },
        {
          "indexed": true,
          "internalType": "uint256",
          "name": "tokenId",
          "type": "uint256"
        },
        {
          "indexed": false,
          "internalType": "address",
          "name": "owner",
          "type": "address"
        },
        {
          "indexed": false,
          "internalType": "uint256",
          "name": "price",
          "type": "uint256"
        }
      ],
      "name": "MarketItemPurchased",
      "type": "event"
    },
    {
      "anonymous": false,
      "inputs": [
        {
          "indexed": false,
          "internalType": "string",
          "name": "",
          "type": "string"
        }
      ],
      "name": "fallingBack",
      "type": "event"
    },
    {
      "anonymous": false,
      "inputs": [
        {
          "indexed": false,
          "internalType": "address",
          "name": "",
          "type": "address"
        },
        {
          "indexed": false,
          "internalType": "uint256",
          "name": "",
          "type": "uint256"
        }
      ],
      "name": "received",
      "type": "event"
    },
    {
      "inputs": [
        {
          "internalType": "address",
          "name": "lazyFactoryAddress",
          "type": "address"
        },
        {
          "internalType": "uint256",
          "name": "tokenId",
          "type": "uint256"
        },
        {
          "internalType": "uint256",
          "name": "price",
          "type": "uint256"
        }
      ],
      "name": "createMarketSell",
      "outputs": [],
      "stateMutability": "payable",
      "type": "function"
    },
    {
      "inputs": [],
      "name": "fetchCurrentId",
      "outputs": [
        {
          "internalType": "uint256",
          "name": "",
          "type": "uint256"
        }
      ],
      "stateMutability": "view",
      "type": "function"
    },
    {
      "inputs": [],
      "name": "fetchMarketBalance",
      "outputs": [
        {
          "internalType": "uint256",
          "name": "",
          "type": "uint256"
        }
      ],
      "stateMutability": "view",
      "type": "function"
    },
    {
      "inputs": [],
      "name": "fetchMarketItems",
      "outputs": [
        {
          "components": [
            {
              "internalType": "uint256",
              "name": "marketItemId",
              "type": "uint256"
            },
            {
              "internalType": "address",
              "name": "lazyFactoryAddress",
              "type": "address"
            },
            {
              "internalType": "uint256",
              "name": "tokenId",
              "type": "uint256"
            },
            {
              "internalType": "address payable",
              "name": "seller",
              "type": "address"
            },
            {
              "internalType": "address payable",
              "name": "owner",
              "type": "address"
            },
            {
              "internalType": "uint256",
              "name": "price",
              "type": "uint256"
            },
            {
              "internalType": "bool",
              "name": "sold",
              "type": "bool"
            }
          ],
          "internalType": "struct MarketPlace.MarketItem[]",
          "name": "",
          "type": "tuple[]"
        }
      ],
      "stateMutability": "view",
      "type": "function"
    },
    {
      "inputs": [],
      "name": "fetchSoldId",
      "outputs": [
        {
          "internalType": "uint256",
          "name": "",
          "type": "uint256"
        }
      ],
      "stateMutability": "view",
      "type": "function"
    },
    {
      "inputs": [
        {
          "internalType": "address",
          "name": "lazyFactoryAddress",
          "type": "address"
        },
        {
          "internalType": "uint256",
          "name": "marketItemId",
          "type": "uint256"
        },
        {
          "internalType": "uint256",
          "name": "vadeeFee",
          "type": "uint256"
        }
      ],
      "name": "purchaseMarketItem",
      "outputs": [],
      "stateMutability": "payable",
      "type": "function"
    },
    {
      "inputs": [],
      "name": "withdraw",
      "outputs": [],
      "stateMutability": "nonpayable",
      "type": "function"
    },
    {
      "stateMutability": "payable",
      "type": "receive"
    }
  ],
  "bytecode": "0x608060405234801561001057600080fd5b50600160008190555033600860006101000a81548173ffffffffffffffffffffffffffffffffffffffff021916908373ffffffffffffffffffffffffffffffffffffffff16021790555061121e806100696000396000f3fe6080604052600436106100745760003560e01c80637fe3b74c1161004e5780637fe3b74c146101265780639ec16e3914610151578063b42129d01461016d578063be034a7f14610189576100b4565b80630f08efe0146100b95780633061f651146100e45780633ccfd60b1461010f576100b4565b366100b4577ff11e547d796cc64acdf758e7cee90439494fd886a19159454aa61e473fdbafef33346040516100aa929190610e8a565b60405180910390a1005b600080fd5b3480156100c557600080fd5b506100ce6101b4565b6040516100db9190610eb3565b60405180910390f35b3480156100f057600080fd5b506100f9610418565b6040516101069190610f55565b60405180910390f35b34801561011b57600080fd5b50610124610420565b005b34801561013257600080fd5b5061013b610505565b6040516101489190610f55565b60405180910390f35b61016b60048036038101906101669190610bc6565b610516565b005b61018760048036038101906101829190610bc6565b6107b7565b005b34801561019557600080fd5b5061019e610a8c565b6040516101ab9190610f55565b60405180910390f35b606060006101c26001610a9d565b905060008167ffffffffffffffff811115610206577f4e487b7100000000000000000000000000000000000000000000000000000000600052604160045260246000fd5b60405190808252806020026020018201604052801561023f57816020015b61022c610b1b565b8152602001906001900390816102245790505b50905060005b8281101561040f576000600360006001846102609190610fba565b81526020019081526020016000209050806040518060e0016040529081600082015481526020016001820160009054906101000a900473ffffffffffffffffffffffffffffffffffffffff1673ffffffffffffffffffffffffffffffffffffffff1673ffffffffffffffffffffffffffffffffffffffff168152602001600282015481526020016003820160009054906101000a900473ffffffffffffffffffffffffffffffffffffffff1673ffffffffffffffffffffffffffffffffffffffff1673ffffffffffffffffffffffffffffffffffffffff1681526020016004820160009054906101000a900473ffffffffffffffffffffffffffffffffffffffff1673ffffffffffffffffffffffffffffffffffffffff1673ffffffffffffffffffffffffffffffffffffffff168152602001600582015481526020016006820160009054906101000a900460ff1615151515815250508383815181106103f0577f4e487b7100000000000000000000000000000000000000000000000000000000600052603260045260246000fd5b60200260200101819052505080806104079061109e565b915050610245565b50809250505090565b600047905090565b600860009054906101000a900473ffffffffffffffffffffffffffffffffffffffff1673ffffffffffffffffffffffffffffffffffffffff163373ffffffffffffffffffffffffffffffffffffffff16146104b0576040517f08c379a00000000000000000000000000000000000000000000000000000000081526004016104a790610ef5565b60405180910390fd5b600033905060004790508173ffffffffffffffffffffffffffffffffffffffff166108fc829081150290604051600060405180830381858888f19350505050158015610500573d6000803e3d6000fd5b505050565b60006105116001610a9d565b905090565b61051e610aab565b60008111610561576040517f08c379a000000000000000000000000000000000000000000000000000000000815260040161055890610ed5565b60405180910390fd5b61056b6001610afb565b60006105776001610a9d565b9050806003600083815260200190815260200160002060000181905550836003600083815260200190815260200160002060010160006101000a81548173ffffffffffffffffffffffffffffffffffffffff021916908373ffffffffffffffffffffffffffffffffffffffff160217905550826003600083815260200190815260200160002060020181905550816003600083815260200190815260200160002060050181905550336003600083815260200190815260200160002060030160006101000a81548173ffffffffffffffffffffffffffffffffffffffff021916908373ffffffffffffffffffffffffffffffffffffffff16021790555060006003600083815260200190815260200160002060040160006101000a81548173ffffffffffffffffffffffffffffffffffffffff021916908373ffffffffffffffffffffffffffffffffffffffff16021790555060006003600083815260200190815260200160002060060160006101000a81548160ff0219169083151502179055508373ffffffffffffffffffffffffffffffffffffffff166323b872dd3330866040518463ffffffff1660e01b815260040161073693929190610e53565b600060405180830381600087803b15801561075057600080fd5b505af1158015610764573d6000803e3d6000fd5b505050508183827f045dfa01dcba2b36aba1d3dc4a874f4b0c5d2fbeb8d2c4b34a7d88c8d8f929d187336000806040516107a19493929190610e0e565b60405180910390a4506107b2610b11565b505050565b6107bf610aab565b60006003600084815260200190815260200160002060050154905080341461081c576040517f08c379a000000000000000000000000000000000000000000000000000000000815260040161081390610f15565b60405180910390fd5b60006003600085815260200190815260200160002060020154905060003490506003600086815260200190815260200160002060030160009054906101000a900473ffffffffffffffffffffffffffffffffffffffff1673ffffffffffffffffffffffffffffffffffffffff166108fc85836108989190611010565b9081150290604051600060405180830381858888f193505050501580156108c3573d6000803e3d6000fd5b508573ffffffffffffffffffffffffffffffffffffffff166323b872dd3033856040518463ffffffff1660e01b815260040161090193929190610e53565b600060405180830381600087803b15801561091b57600080fd5b505af115801561092f573d6000803e3d6000fd5b50505050336003600087815260200190815260200160002060040160006101000a81548173ffffffffffffffffffffffffffffffffffffffff021916908373ffffffffffffffffffffffffffffffffffffffff16021790555060016003600087815260200190815260200160002060060160006101000a81548160ff0219169083151502179055506109c16002610afb565b600860009054906101000a900473ffffffffffffffffffffffffffffffffffffffff1673ffffffffffffffffffffffffffffffffffffffff166108fc859081150290604051600060405180830381858888f19350505050158015610a29573d6000803e3d6000fd5b50818673ffffffffffffffffffffffffffffffffffffffff16867f85dc41ff4bb2b08fc7711fa36a6b7534248e42efc43fe931932627ab6d7276653387604051610a74929190610e8a565b60405180910390a4505050610a87610b11565b505050565b6000610a986002610a9d565b905090565b600081600001549050919050565b60026000541415610af1576040517f08c379a0000000000000000000000000000000000000000000000000000000008152600401610ae890610f35565b60405180910390fd5b6002600081905550565b6001816000016000828254019250508190555050565b6001600081905550565b6040518060e0016040528060008152602001600073ffffffffffffffffffffffffffffffffffffffff16815260200160008152602001600073ffffffffffffffffffffffffffffffffffffffff168152602001600073ffffffffffffffffffffffffffffffffffffffff168152602001600081526020016000151581525090565b600081359050610bab816111ba565b92915050565b600081359050610bc0816111d1565b92915050565b600080600060608486031215610bdb57600080fd5b6000610be986828701610b9c565b9350506020610bfa86828701610bb1565b9250506040610c0b86828701610bb1565b9150509250925092565b6000610c218383610d62565b60e08301905092915050565b610c3681611056565b82525050565b610c4581611044565b82525050565b610c5481611044565b82525050565b6000610c6582610f80565b610c6f8185610f98565b9350610c7a83610f70565b8060005b83811015610cab578151610c928882610c15565b9750610c9d83610f8b565b925050600181019050610c7e565b5085935050505092915050565b610cc181611068565b82525050565b610cd081611068565b82525050565b6000610ce3601483610fa9565b9150610cee82611116565b602082019050919050565b6000610d06601d83610fa9565b9150610d118261113f565b602082019050919050565b6000610d29601f83610fa9565b9150610d3482611168565b602082019050919050565b6000610d4c601f83610fa9565b9150610d5782611191565b602082019050919050565b60e082016000820151610d786000850182610df0565b506020820151610d8b6020850182610c3c565b506040820151610d9e6040850182610df0565b506060820151610db16060850182610c2d565b506080820151610dc46080850182610c2d565b5060a0820151610dd760a0850182610df0565b5060c0820151610dea60c0850182610cb8565b50505050565b610df981611094565b82525050565b610e0881611094565b82525050565b6000608082019050610e236000830187610c4b565b610e306020830186610c4b565b610e3d6040830185610c4b565b610e4a6060830184610cc7565b95945050505050565b6000606082019050610e686000830186610c4b565b610e756020830185610c4b565b610e826040830184610dff565b949350505050565b6000604082019050610e9f6000830185610c4b565b610eac6020830184610dff565b9392505050565b60006020820190508181036000830152610ecd8184610c5a565b905092915050565b60006020820190508181036000830152610eee81610cd6565b9050919050565b60006020820190508181036000830152610f0e81610cf9565b9050919050565b60006020820190508181036000830152610f2e81610d1c565b9050919050565b60006020820190508181036000830152610f4e81610d3f565b9050919050565b6000602082019050610f6a6000830184610dff565b92915050565b6000819050602082019050919050565b600081519050919050565b6000602082019050919050565b600082825260208201905092915050565b600082825260208201905092915050565b6000610fc582611094565b9150610fd083611094565b9250827fffffffffffffffffffffffffffffffffffffffffffffffffffffffffffffffff03821115611005576110046110e7565b5b828201905092915050565b600061101b82611094565b915061102683611094565b925082821015611039576110386110e7565b5b828203905092915050565b600061104f82611074565b9050919050565b600061106182611074565b9050919050565b60008115159050919050565b600073ffffffffffffffffffffffffffffffffffffffff82169050919050565b6000819050919050565b60006110a982611094565b91507fffffffffffffffffffffffffffffffffffffffffffffffffffffffffffffffff8214156110dc576110db6110e7565b5b600182019050919050565b7f4e487b7100000000000000000000000000000000000000000000000000000000600052601160045260246000fd5b7f50726963652063616e2774206265203020776569000000000000000000000000600082015250565b7f4f6e6c79206465706c6f7965722063616e207769746864726177203a29000000600082015250565b7f456e7465722074686520617274776f726b2073656c6c696e6720507269636500600082015250565b7f5265656e7472616e637947756172643a207265656e7472616e742063616c6c00600082015250565b6111c381611044565b81146111ce57600080fd5b50565b6111da81611094565b81146111e557600080fd5b5056fea26469706673582212204827681dadf0966c7a8adee9e50a55b73e982320070587f4d639d9339824d5a164736f6c63430008040033",
  "linkReferences": {},
  "deployedLinkReferences": {}
}