{
  "_format": "hh-sol-artifact-1",
  "contractName": "MarketPlace",
  "sourceName": "contracts/MarketPlace.sol",
  "abi": [
    {
      "inputs": [],
      "stateMutability": "nonpayable",
      "type": "constructor"
    },
    {
      "anonymous": false,
      "inputs": [
        {
          "indexed": true,
          "internalType": "uint256",
          "name": "marketItemId",
          "type": "uint256"
        },
        {
          "indexed": false,
          "internalType": "address",
          "name": "lazyFactoryAddress",
          "type": "address"
        },
        {
          "indexed": true,
          "internalType": "uint256",
          "name": "tokenId",
          "type": "uint256"
        },
        {
          "indexed": false,
          "internalType": "address",
          "name": "seller",
          "type": "address"
        },
        {
          "indexed": false,
          "internalType": "address",
          "name": "owner",
          "type": "address"
        },
        {
          "indexed": true,
          "internalType": "uint256",
          "name": "price",
          "type": "uint256"
        },
        {
          "indexed": false,
          "internalType": "bool",
          "name": "sold",
          "type": "bool"
        }
      ],
      "name": "MarketItemCreated",
      "type": "event"
    },
    {
      "anonymous": false,
      "inputs": [
        {
          "indexed": true,
          "internalType": "uint256",
          "name": "marketItemId",
          "type": "uint256"
        },
        {
          "indexed": true,
          "internalType": "address",
          "name": "lazyFactoryAddress",
          "type": "address"
        },
        {
          "indexed": true,
          "internalType": "uint256",
          "name": "tokenId",
          "type": "uint256"
        },
        {
          "indexed": false,
          "internalType": "address",
          "name": "owner",
          "type": "address"
        },
        {
          "indexed": false,
          "internalType": "uint256",
          "name": "price",
          "type": "uint256"
        }
      ],
      "name": "MarketItemPurchased",
      "type": "event"
    },
    {
      "anonymous": false,
      "inputs": [
        {
          "indexed": false,
          "internalType": "string",
          "name": "",
          "type": "string"
        }
      ],
      "name": "fallingBack",
      "type": "event"
    },
    {
      "anonymous": false,
      "inputs": [
        {
          "indexed": false,
          "internalType": "address",
          "name": "",
          "type": "address"
        },
        {
          "indexed": false,
          "internalType": "uint256",
          "name": "",
          "type": "uint256"
        }
      ],
      "name": "received",
      "type": "event"
    },
    {
      "inputs": [
        {
          "internalType": "address",
          "name": "lazyFactoryAddress",
          "type": "address"
        },
        {
          "internalType": "uint256",
          "name": "tokenId",
          "type": "uint256"
        },
        {
          "internalType": "uint256",
          "name": "price",
          "type": "uint256"
        }
      ],
      "name": "createMarketSell",
      "outputs": [],
      "stateMutability": "payable",
      "type": "function"
    },
    {
      "inputs": [],
      "name": "fetchCurrentId",
      "outputs": [
        {
          "internalType": "uint256",
          "name": "",
          "type": "uint256"
        }
      ],
      "stateMutability": "view",
      "type": "function"
    },
    {
      "inputs": [],
      "name": "fetchMarketBalance",
      "outputs": [
        {
          "internalType": "uint256",
          "name": "",
          "type": "uint256"
        }
      ],
      "stateMutability": "view",
      "type": "function"
    },
    {
      "inputs": [],
      "name": "fetchMarketItems",
      "outputs": [
        {
          "components": [
            {
              "internalType": "uint256",
              "name": "marketItemId",
              "type": "uint256"
            },
            {
              "internalType": "address",
              "name": "lazyFactoryAddress",
              "type": "address"
            },
            {
              "internalType": "uint256",
              "name": "tokenId",
              "type": "uint256"
            },
            {
              "internalType": "address payable",
              "name": "seller",
              "type": "address"
            },
            {
              "internalType": "address payable",
              "name": "owner",
              "type": "address"
            },
            {
              "internalType": "uint256",
              "name": "price",
              "type": "uint256"
            },
            {
              "internalType": "bool",
              "name": "sold",
              "type": "bool"
            }
          ],
          "internalType": "struct MarketPlace.MarketItem[]",
          "name": "",
          "type": "tuple[]"
        }
      ],
      "stateMutability": "view",
      "type": "function"
    },
    {
      "inputs": [],
      "name": "fetchSoldId",
      "outputs": [
        {
          "internalType": "uint256",
          "name": "",
          "type": "uint256"
        }
      ],
      "stateMutability": "view",
      "type": "function"
    },
    {
      "inputs": [
        {
          "internalType": "address",
          "name": "lazyFactoryAddress",
          "type": "address"
        },
        {
          "internalType": "uint256",
          "name": "marketItemId",
          "type": "uint256"
        },
        {
          "internalType": "uint256",
          "name": "vadeeFee",
          "type": "uint256"
        }
      ],
      "name": "purchaseMarketItem",
      "outputs": [],
      "stateMutability": "payable",
      "type": "function"
    },
    {
      "inputs": [],
      "name": "withdraw",
      "outputs": [],
      "stateMutability": "nonpayable",
      "type": "function"
    },
    {
      "stateMutability": "payable",
      "type": "receive"
    }
  ],
  "bytecode": "0x608060405234801561001057600080fd5b506001600055600880546001600160a01b031916331790556108eb806100376000396000f3fe6080604052600436106100745760003560e01c80637fe3b74c1161004e5780637fe3b74c146101175780639ec16e391461012c578063b42129d01461013f578063be034a7f1461015257600080fd5b80630f08efe0146100b85780633061f651146100e35780633ccfd60b1461010057600080fd5b366100b357604080513381523460208201527ff11e547d796cc64acdf758e7cee90439494fd886a19159454aa61e473fdbafef910160405180910390a1005b600080fd5b3480156100c457600080fd5b506100cd610167565b6040516100da9190610759565b60405180910390f35b3480156100ef57600080fd5b50475b6040519081526020016100da565b34801561010c57600080fd5b506101156102c8565b005b34801561012357600080fd5b506100f261035d565b61011561013a3660046107ed565b61036d565b61011561014d3660046107ed565b6104fe565b34801561015e57600080fd5b506100f26106f5565b6060600061017460015490565b905060008167ffffffffffffffff8111156101915761019161082e565b6040519080825280602002602001820160405280156101f857816020015b6040805160e08101825260008082526020808301829052928201819052606082018190526080820181905260a0820181905260c082015282526000199092019101816101af5790505b50905060005b828110156102c157600060038161021684600161085a565b81526020808201929092526040908101600020815160e0810183528154815260018201546001600160a01b039081169482019490945260028201549281019290925260038101548316606083015260048101549092166080820152600582015460a0820152600682015460ff16151560c08201528451919250908490849081106102a2576102a2610873565b60200260200101819052505080806102b990610889565b9150506101fe565b5092915050565b6008546001600160a01b031633146103275760405162461bcd60e51b815260206004820152601d60248201527f4f6e6c79206465706c6f7965722063616e207769746864726177203a2900000060448201526064015b60405180910390fd5b60405133904790829082156108fc029083906000818181858888f19350505050158015610358573d6000803e3d6000fd5b505050565b600061036860015490565b905090565b610375610700565b600081116103bc5760405162461bcd60e51b815260206004820152601460248201527350726963652063616e277420626520302077656960601b604482015260640161031e565b6103ca600180546001019055565b60006103d560015490565b6000818152600360208190526040918290208381556001810180546001600160a01b038a166001600160a01b0319918216811790925560028301899055600583018890559282018054841633908117909155600480840180549095169094556006909201805460ff1916905592516323b872dd60e01b81529182015230602482015260448101869052919250906323b872dd90606401600060405180830381600087803b15801561048557600080fd5b505af1158015610499573d6000803e3d6000fd5b5050604080516001600160a01b038816815233602082015260008183018190526060820152905185935086925084917f045dfa01dcba2b36aba1d3dc4a874f4b0c5d2fbeb8d2c4b34a7d88c8d8f929d1919081900360800190a4506103586001600055565b610506610700565b6000828152600360205260409020600501543481146105675760405162461bcd60e51b815260206004820152601f60248201527f456e7465722074686520617274776f726b2073656c6c696e6720507269636500604482015260640161031e565b6000838152600360208190526040909120600281015491015434906001600160a01b03166108fc61059886846108a2565b6040518115909202916000818181858888f193505050501580156105c0573d6000803e3d6000fd5b506040516323b872dd60e01b8152306004820152336024820152604481018390526001600160a01b038716906323b872dd90606401600060405180830381600087803b15801561060f57600080fd5b505af1158015610623573d6000803e3d6000fd5b50505060008681526003602052604090206004810180546001600160a01b03191633179055600601805460ff1916600117905550610665600280546001019055565b6008546040516001600160a01b039091169085156108fc029086906000818181858888f1935050505015801561069f573d6000803e3d6000fd5b50604080513381526020810185905283916001600160a01b0389169188917f85dc41ff4bb2b08fc7711fa36a6b7534248e42efc43fe931932627ab6d727665910160405180910390a45050506103586001600055565b600061036860025490565b6002600054036107525760405162461bcd60e51b815260206004820152601f60248201527f5265656e7472616e637947756172643a207265656e7472616e742063616c6c00604482015260640161031e565b6002600055565b602080825282518282018190526000919060409081850190868401855b828110156107e057815180518552868101516001600160a01b039081168887015286820151878701526060808301518216908701526080808301519091169086015260a0808201519086015260c09081015115159085015260e09093019290850190600101610776565b5091979650505050505050565b60008060006060848603121561080257600080fd5b83356001600160a01b038116811461081957600080fd5b95602085013595506040909401359392505050565b634e487b7160e01b600052604160045260246000fd5b634e487b7160e01b600052601160045260246000fd5b8082018082111561086d5761086d610844565b92915050565b634e487b7160e01b600052603260045260246000fd5b60006001820161089b5761089b610844565b5060010190565b8181038181111561086d5761086d61084456fea264697066735822122031cd24de13285999ed42fa475135346f9de40456781b7fa5fbcf8be77f8ea04964736f6c63430008130033",
  "linkReferences": {},
  "deployedLinkReferences": {}
}