{
  "_format": "hh-sol-artifact-1",
  "contractName": "LazyFactory",
  "sourceName": "contracts/LazyFactory.sol",
  "abi": [
    {
      "inputs": [
        {
          "internalType": "string",
          "name": "name",
          "type": "string"
        },
        {
          "internalType": "string",
          "name": "symbol",
          "type": "string"
        },
        {
          "internalType": "address payable",
          "name": "artist",
          "type": "address"
        },
        {
          "internalType": "uint256",
          "name": "_vadeeFee",
          "type": "uint256"
        },
        {
          "internalType": "address payable",
          "name": "_vadeeAddress",
          "type": "address"
        },
        {
          "internalType": "uint96",
          "name": "royaltyFee",
          "type": "uint96"
        }
      ],
      "stateMutability": "nonpayable",
      "type": "constructor"
    },
    {
      "anonymous": false,
      "inputs": [
        {
          "indexed": true,
          "internalType": "address",
          "name": "owner",
          "type": "address"
        },
        {
          "indexed": true,
          "internalType": "address",
          "name": "approved",
          "type": "address"
        },
        {
          "indexed": true,
          "internalType": "uint256",
          "name": "tokenId",
          "type": "uint256"
        }
      ],
      "name": "Approval",
      "type": "event"
    },
    {
      "anonymous": false,
      "inputs": [
        {
          "indexed": true,
          "internalType": "address",
          "name": "owner",
          "type": "address"
        },
        {
          "indexed": true,
          "internalType": "address",
          "name": "operator",
          "type": "address"
        },
        {
          "indexed": false,
          "internalType": "bool",
          "name": "approved",
          "type": "bool"
        }
      ],
      "name": "ApprovalForAll",
      "type": "event"
    },
    {
      "anonymous": false,
      "inputs": [
        {
          "indexed": true,
          "internalType": "uint256",
          "name": "tokenId",
          "type": "uint256"
        }
      ],
      "name": "RedeemedAndMinted",
      "type": "event"
    },
    {
      "anonymous": false,
      "inputs": [
        {
          "indexed": true,
          "internalType": "bytes32",
          "name": "role",
          "type": "bytes32"
        },
        {
          "indexed": true,
          "internalType": "bytes32",
          "name": "previousAdminRole",
          "type": "bytes32"
        },
        {
          "indexed": true,
          "internalType": "bytes32",
          "name": "newAdminRole",
          "type": "bytes32"
        }
      ],
      "name": "RoleAdminChanged",
      "type": "event"
    },
    {
      "anonymous": false,
      "inputs": [
        {
          "indexed": true,
          "internalType": "bytes32",
          "name": "role",
          "type": "bytes32"
        },
        {
          "indexed": true,
          "internalType": "address",
          "name": "account",
          "type": "address"
        },
        {
          "indexed": true,
          "internalType": "address",
          "name": "sender",
          "type": "address"
        }
      ],
      "name": "RoleGranted",
      "type": "event"
    },
    {
      "anonymous": false,
      "inputs": [
        {
          "indexed": true,
          "internalType": "bytes32",
          "name": "role",
          "type": "bytes32"
        },
        {
          "indexed": true,
          "internalType": "address",
          "name": "account",
          "type": "address"
        },
        {
          "indexed": true,
          "internalType": "address",
          "name": "sender",
          "type": "address"
        }
      ],
      "name": "RoleRevoked",
      "type": "event"
    },
    {
      "anonymous": false,
      "inputs": [
        {
          "indexed": true,
          "internalType": "address",
          "name": "from",
          "type": "address"
        },
        {
          "indexed": true,
          "internalType": "address",
          "name": "to",
          "type": "address"
        },
        {
          "indexed": true,
          "internalType": "uint256",
          "name": "tokenId",
          "type": "uint256"
        }
      ],
      "name": "Transfer",
      "type": "event"
    },
    {
      "inputs": [],
      "name": "DEFAULT_ADMIN_ROLE",
      "outputs": [
        {
          "internalType": "bytes32",
          "name": "",
          "type": "bytes32"
        }
      ],
      "stateMutability": "view",
      "type": "function"
    },
    {
      "inputs": [],
      "name": "SIGNER_ROLE",
      "outputs": [
        {
          "internalType": "bytes32",
          "name": "",
          "type": "bytes32"
        }
      ],
      "stateMutability": "view",
      "type": "function"
    },
    {
      "inputs": [
        {
          "internalType": "address",
          "name": "to",
          "type": "address"
        },
        {
          "internalType": "uint256",
          "name": "tokenId",
          "type": "uint256"
        }
      ],
      "name": "approve",
      "outputs": [],
      "stateMutability": "nonpayable",
      "type": "function"
    },
    {
      "inputs": [
        {
          "internalType": "address",
          "name": "owner",
          "type": "address"
        }
      ],
      "name": "balanceOf",
      "outputs": [
        {
          "internalType": "uint256",
          "name": "",
          "type": "uint256"
        }
      ],
      "stateMutability": "view",
      "type": "function"
    },
    {
      "inputs": [
        {
          "internalType": "uint256",
          "name": "tokenId",
          "type": "uint256"
        }
      ],
      "name": "getApproved",
      "outputs": [
        {
          "internalType": "address",
          "name": "",
          "type": "address"
        }
      ],
      "stateMutability": "view",
      "type": "function"
    },
    {
      "inputs": [],
      "name": "getChainID",
      "outputs": [
        {
          "internalType": "uint256",
          "name": "",
          "type": "uint256"
        }
      ],
      "stateMutability": "view",
      "type": "function"
    },
    {
      "inputs": [
        {
          "internalType": "bytes32",
          "name": "role",
          "type": "bytes32"
        }
      ],
      "name": "getRoleAdmin",
      "outputs": [
        {
          "internalType": "bytes32",
          "name": "",
          "type": "bytes32"
        }
      ],
      "stateMutability": "view",
      "type": "function"
    },
    {
      "inputs": [
        {
          "internalType": "bytes32",
          "name": "role",
          "type": "bytes32"
        },
        {
          "internalType": "address",
          "name": "account",
          "type": "address"
        }
      ],
      "name": "grantRole",
      "outputs": [],
      "stateMutability": "nonpayable",
      "type": "function"
    },
    {
      "inputs": [
        {
          "internalType": "bytes32",
          "name": "role",
          "type": "bytes32"
        },
        {
          "internalType": "address",
          "name": "account",
          "type": "address"
        }
      ],
      "name": "hasRole",
      "outputs": [
        {
          "internalType": "bool",
          "name": "",
          "type": "bool"
        }
      ],
      "stateMutability": "view",
      "type": "function"
    },
    {
      "inputs": [
        {
          "internalType": "address",
          "name": "owner",
          "type": "address"
        },
        {
          "internalType": "address",
          "name": "operator",
          "type": "address"
        }
      ],
      "name": "isApprovedForAll",
      "outputs": [
        {
          "internalType": "bool",
          "name": "",
          "type": "bool"
        }
      ],
      "stateMutability": "view",
      "type": "function"
    },
    {
      "inputs": [],
      "name": "name",
      "outputs": [
        {
          "internalType": "string",
          "name": "",
          "type": "string"
        }
      ],
      "stateMutability": "view",
      "type": "function"
    },
    {
      "inputs": [
        {
          "internalType": "uint256",
          "name": "tokenId",
          "type": "uint256"
        }
      ],
      "name": "ownerOf",
      "outputs": [
        {
          "internalType": "address",
          "name": "",
          "type": "address"
        }
      ],
      "stateMutability": "view",
      "type": "function"
    },
    {
      "inputs": [
        {
          "internalType": "address",
          "name": "buyer",
          "type": "address"
        },
        {
          "components": [
            {
              "internalType": "string",
              "name": "title",
              "type": "string"
            },
            {
              "internalType": "uint256",
              "name": "artworkId",
              "type": "uint256"
            },
            {
              "internalType": "uint256",
              "name": "id",
              "type": "uint256"
            },
            {
              "internalType": "string",
              "name": "editionNumber",
              "type": "string"
            },
            {
              "internalType": "string",
              "name": "edition",
              "type": "string"
            },
            {
              "internalType": "uint256",
              "name": "priceWei",
              "type": "uint256"
            },
            {
              "internalType": "string",
              "name": "priceDollar",
              "type": "string"
            },
            {
              "internalType": "string",
              "name": "tokenUri",
              "type": "string"
            },
            {
              "internalType": "string",
              "name": "content",
              "type": "string"
            },
            {
              "internalType": "bytes",
              "name": "signature",
              "type": "bytes"
            }
          ],
          "internalType": "struct LazyFactory.Voucher",
          "name": "voucher",
          "type": "tuple"
        }
      ],
      "name": "redeem",
      "outputs": [],
      "stateMutability": "payable",
      "type": "function"
    },
    {
      "inputs": [
        {
          "internalType": "bytes32",
          "name": "role",
          "type": "bytes32"
        },
        {
          "internalType": "address",
          "name": "account",
          "type": "address"
        }
      ],
      "name": "renounceRole",
      "outputs": [],
      "stateMutability": "nonpayable",
      "type": "function"
    },
    {
      "inputs": [
        {
          "internalType": "bytes32",
          "name": "role",
          "type": "bytes32"
        },
        {
          "internalType": "address",
          "name": "account",
          "type": "address"
        }
      ],
      "name": "revokeRole",
      "outputs": [],
      "stateMutability": "nonpayable",
      "type": "function"
    },
    {
      "inputs": [
        {
          "internalType": "uint256",
          "name": "_tokenId",
          "type": "uint256"
        },
        {
          "internalType": "uint256",
          "name": "_salePrice",
          "type": "uint256"
        }
      ],
      "name": "royaltyInfo",
      "outputs": [
        {
          "internalType": "address",
          "name": "",
          "type": "address"
        },
        {
          "internalType": "uint256",
          "name": "",
          "type": "uint256"
        }
      ],
      "stateMutability": "view",
      "type": "function"
    },
    {
      "inputs": [
        {
          "internalType": "address",
          "name": "from",
          "type": "address"
        },
        {
          "internalType": "address",
          "name": "to",
          "type": "address"
        },
        {
          "internalType": "uint256",
          "name": "tokenId",
          "type": "uint256"
        }
      ],
      "name": "safeTransferFrom",
      "outputs": [],
      "stateMutability": "nonpayable",
      "type": "function"
    },
    {
      "inputs": [
        {
          "internalType": "address",
          "name": "from",
          "type": "address"
        },
        {
          "internalType": "address",
          "name": "to",
          "type": "address"
        },
        {
          "internalType": "uint256",
          "name": "tokenId",
          "type": "uint256"
        },
        {
          "internalType": "bytes",
          "name": "_data",
          "type": "bytes"
        }
      ],
      "name": "safeTransferFrom",
      "outputs": [],
      "stateMutability": "nonpayable",
      "type": "function"
    },
    {
      "inputs": [
        {
          "internalType": "address",
          "name": "operator",
          "type": "address"
        },
        {
          "internalType": "bool",
          "name": "approved",
          "type": "bool"
        }
      ],
      "name": "setApprovalForAll",
      "outputs": [],
      "stateMutability": "nonpayable",
      "type": "function"
    },
    {
      "inputs": [
        {
          "internalType": "bytes4",
          "name": "interfaceId",
          "type": "bytes4"
        }
      ],
      "name": "supportsInterface",
      "outputs": [
        {
          "internalType": "bool",
          "name": "",
          "type": "bool"
        }
      ],
      "stateMutability": "view",
      "type": "function"
    },
    {
      "inputs": [],
      "name": "symbol",
      "outputs": [
        {
          "internalType": "string",
          "name": "",
          "type": "string"
        }
      ],
      "stateMutability": "view",
      "type": "function"
    },
    {
      "inputs": [
        {
          "internalType": "uint256",
          "name": "tokenId",
          "type": "uint256"
        }
      ],
      "name": "tokenURI",
      "outputs": [
        {
          "internalType": "string",
          "name": "",
          "type": "string"
        }
      ],
      "stateMutability": "view",
      "type": "function"
    },
    {
      "inputs": [
        {
          "internalType": "address",
          "name": "from",
          "type": "address"
        },
        {
          "internalType": "address",
          "name": "to",
          "type": "address"
        },
        {
          "internalType": "uint256",
          "name": "tokenId",
          "type": "uint256"
        }
      ],
      "name": "transferFrom",
      "outputs": [],
      "stateMutability": "nonpayable",
      "type": "function"
    }
  ],
  "bytecode": "0x6101406040523480156200001257600080fd5b5060405162005b2a38038062005b2a8339818101604052810190620000389190620007c8565b85856040518060400160405280600581526020017f56414445450000000000000000000000000000000000000000000000000000008152506040518060400160405280600181526020017f310000000000000000000000000000000000000000000000000000000000000081525060008280519060200120905060008280519060200120905060007f8b73c3c69bb8fe3d512ecc4cf759cc79239f7b179b0ffacaa9a75d522b39400f90508260e081815250508161010081815250504660a081815250506200010f818484620002fd60201b60201c565b608081815250503073ffffffffffffffffffffffffffffffffffffffff1660c08173ffffffffffffffffffffffffffffffffffffffff1660601b81525050806101208181525050505050505081600290805190602001906200017392919062000661565b5080600390805190602001906200018c92919062000661565b5050506001600a8190555060648310620001dd576040517f08c379a0000000000000000000000000000000000000000000000000000000008152600401620001d490620009de565b60405180910390fd5b600083101562000224576040517f08c379a00000000000000000000000000000000000000000000000000000000081526004016200021b90620009bc565b60405180910390fd5b620002567fe2f4eaae4a9751e85a3e4a7b9587827a877f29914755229b07a7b2da98285f70856200033960201b60201c565b83600b60006101000a81548173ffffffffffffffffffffffffffffffffffffffff021916908373ffffffffffffffffffffffffffffffffffffffff16021790555082600c8190555081600d60006101000a81548173ffffffffffffffffffffffffffffffffffffffff021916908373ffffffffffffffffffffffffffffffffffffffff160217905550620002f184826200034f60201b60201c565b50505050505062000d51565b600083838346306040516020016200031a9594939291906200095f565b6040516020818303038152906040528051906020012090509392505050565b6200034b8282620004f260201b60201c565b5050565b6200035f620005e460201b60201c565b6bffffffffffffffffffffffff16816bffffffffffffffffffffffff161115620003c0576040517f08c379a0000000000000000000000000000000000000000000000000000000008152600401620003b79062000a00565b60405180910390fd5b600073ffffffffffffffffffffffffffffffffffffffff168273ffffffffffffffffffffffffffffffffffffffff16141562000433576040517f08c379a00000000000000000000000000000000000000000000000000000000081526004016200042a9062000a22565b60405180910390fd5b60405180604001604052808373ffffffffffffffffffffffffffffffffffffffff168152602001826bffffffffffffffffffffffff168152506000808201518160000160006101000a81548173ffffffffffffffffffffffffffffffffffffffff021916908373ffffffffffffffffffffffffffffffffffffffff16021790555060208201518160000160146101000a8154816bffffffffffffffffffffffff02191690836bffffffffffffffffffffffff1602179055509050505050565b620005048282620005ee60201b60201c565b620005e05760016009600084815260200190815260200160002060000160008373ffffffffffffffffffffffffffffffffffffffff1673ffffffffffffffffffffffffffffffffffffffff16815260200190815260200160002060006101000a81548160ff021916908315150217905550620005856200065960201b60201c565b73ffffffffffffffffffffffffffffffffffffffff168173ffffffffffffffffffffffffffffffffffffffff16837f2f8788117e7eff1d82e926ec794901d17c78024a50270940304540a733656f0d60405160405180910390a45b5050565b6000612710905090565b60006009600084815260200190815260200160002060000160008373ffffffffffffffffffffffffffffffffffffffff1673ffffffffffffffffffffffffffffffffffffffff16815260200190815260200160002060009054906101000a900460ff16905092915050565b600033905090565b8280546200066f9062000b5e565b90600052602060002090601f016020900481019282620006935760008555620006df565b82601f10620006ae57805160ff1916838001178555620006df565b82800160010185558215620006df579182015b82811115620006de578251825591602001919060010190620006c1565b5b509050620006ee9190620006f2565b5090565b5b808211156200070d576000816000905550600101620006f3565b5090565b600062000728620007228462000a6d565b62000a44565b9050828152602081018484840111156200074157600080fd5b6200074e84828562000b28565b509392505050565b600081519050620007678162000d03565b92915050565b600082601f8301126200077f57600080fd5b81516200079184826020860162000711565b91505092915050565b600081519050620007ab8162000d1d565b92915050565b600081519050620007c28162000d37565b92915050565b60008060008060008060c08789031215620007e257600080fd5b600087015167ffffffffffffffff811115620007fd57600080fd5b6200080b89828a016200076d565b965050602087015167ffffffffffffffff8111156200082957600080fd5b6200083789828a016200076d565b95505060406200084a89828a0162000756565b94505060606200085d89828a016200079a565b93505060806200087089828a0162000756565b92505060a06200088389828a01620007b1565b9150509295509295509295565b6200089b8162000ab4565b82525050565b620008ac8162000adc565b82525050565b6000620008c1601b8362000aa3565b9150620008ce8262000c39565b602082019050919050565b6000620008e860118362000aa3565b9150620008f58262000c62565b602082019050919050565b60006200090f602a8362000aa3565b91506200091c8262000c8b565b604082019050919050565b60006200093660198362000aa3565b9150620009438262000cda565b602082019050919050565b620009598162000b06565b82525050565b600060a082019050620009766000830188620008a1565b620009856020830187620008a1565b620009946040830186620008a1565b620009a360608301856200094e565b620009b2608083018462000890565b9695505050505050565b60006020820190508181036000830152620009d781620008b2565b9050919050565b60006020820190508181036000830152620009f981620008d9565b9050919050565b6000602082019050818103600083015262000a1b8162000900565b9050919050565b6000602082019050818103600083015262000a3d8162000927565b9050919050565b600062000a5062000a63565b905062000a5e828262000b94565b919050565b6000604051905090565b600067ffffffffffffffff82111562000a8b5762000a8a62000bf9565b5b62000a968262000c28565b9050602081019050919050565b600082825260208201905092915050565b600062000ac18262000ae6565b9050919050565b600062000ad58262000ae6565b9050919050565b6000819050919050565b600073ffffffffffffffffffffffffffffffffffffffff82169050919050565b6000819050919050565b60006bffffffffffffffffffffffff82169050919050565b60005b8381101562000b4857808201518184015260208101905062000b2b565b8381111562000b58576000848401525b50505050565b6000600282049050600182168062000b7757607f821691505b6020821081141562000b8e5762000b8d62000bca565b5b50919050565b62000b9f8262000c28565b810181811067ffffffffffffffff8211171562000bc15762000bc062000bf9565b5b80604052505050565b7f4e487b7100000000000000000000000000000000000000000000000000000000600052602260045260246000fd5b7f4e487b7100000000000000000000000000000000000000000000000000000000600052604160045260246000fd5b6000601f19601f8301169050919050565b7f76616465654665652073686f756c6420626520706f7369746976650000000000600082015250565b7f766164656546656520746f6f2068696768000000000000000000000000000000600082015250565b7f455243323938313a20726f79616c7479206665652077696c6c2065786365656460008201527f2073616c65507269636500000000000000000000000000000000000000000000602082015250565b7f455243323938313a20696e76616c696420726563656976657200000000000000600082015250565b62000d0e8162000ac8565b811462000d1a57600080fd5b50565b62000d288162000b06565b811462000d3457600080fd5b50565b62000d428162000b10565b811462000d4e57600080fd5b50565b60805160a05160c05160601c60e0516101005161012051614d8662000da46000396000612e7f01526000612ec101526000612ea001526000612dd501526000612e2b01526000612e540152614d866000f3fe6080604052600436106101405760003560e01c80636352211e116100b6578063a217fddf1161006f578063a217fddf14610486578063a22cb465146104b1578063b88d4fde146104da578063c87b56dd14610503578063d547741f14610540578063e985e9c51461056957610140565b80636352211e1461035d57806370a082311461039a578063718a16f8146103d757806391d14854146103f357806395d89b4114610430578063a1ebf35d1461045b57610140565b8063248a9ca311610108578063248a9ca31461023c5780632a55205a146102795780632f2ff15d146102b757806336568abe146102e057806342842e0e14610309578063564b81ef1461033257610140565b806301ffc9a71461014557806306fdde0314610182578063081812fc146101ad578063095ea7b3146101ea57806323b872dd14610213575b600080fd5b34801561015157600080fd5b5061016c600480360381019061016791906134c9565b6105a6565b6040516101799190613bdf565b60405180910390f35b34801561018e57600080fd5b506101976105d8565b6040516101a49190613d49565b60405180910390f35b3480156101b957600080fd5b506101d460048036038101906101cf919061351b565b61066a565b6040516101e19190613b4f565b60405180910390f35b3480156101f657600080fd5b50610211600480360381019061020c9190613428565b6106ef565b005b34801561021f57600080fd5b5061023a600480360381019061023591906132ce565b610807565b005b34801561024857600080fd5b50610263600480360381019061025e9190613464565b610867565b6040516102709190613bfa565b60405180910390f35b34801561028557600080fd5b506102a0600480360381019061029b9190613544565b610887565b6040516102ae929190613bb6565b60405180910390f35b3480156102c357600080fd5b506102de60048036038101906102d9919061348d565b610a72565b005b3480156102ec57600080fd5b506103076004803603810190610302919061348d565b610a9b565b005b34801561031557600080fd5b50610330600480360381019061032b91906132ce565b610b1e565b005b34801561033e57600080fd5b50610347610b3e565b60405161035491906140ab565b60405180910390f35b34801561036957600080fd5b50610384600480360381019061037f919061351b565b610b4b565b6040516103919190613b4f565b60405180910390f35b3480156103a657600080fd5b506103c160048036038101906103bc9190613269565b610bfd565b6040516103ce91906140ab565b60405180910390f35b6103f160048036038101906103ec91906133d4565b610cb5565b005b3480156103ff57600080fd5b5061041a6004803603810190610415919061348d565b610fc5565b6040516104279190613bdf565b60405180910390f35b34801561043c57600080fd5b50610445611030565b6040516104529190613d49565b60405180910390f35b34801561046757600080fd5b506104706110c2565b60405161047d9190613bfa565b60405180910390f35b34801561049257600080fd5b5061049b6110e6565b6040516104a89190613bfa565b60405180910390f35b3480156104bd57600080fd5b506104d860048036038101906104d39190613398565b6110ed565b005b3480156104e657600080fd5b5061050160048036038101906104fc919061331d565b611103565b005b34801561050f57600080fd5b5061052a6004803603810190610525919061351b565b611165565b6040516105379190613d49565b60405180910390f35b34801561054c57600080fd5b506105676004803603810190610562919061348d565b611177565b005b34801561057557600080fd5b50610590600480360381019061058b9190613292565b6111a0565b60405161059d9190613bdf565b60405180910390f35b60006105b182611234565b806105c157506105c082611316565b5b806105d157506105d082611390565b5b9050919050565b6060600280546105e790614424565b80601f016020809104026020016040519081016040528092919081815260200182805461061390614424565b80156106605780601f1061063557610100808354040283529160200191610660565b820191906000526020600020905b81548152906001019060200180831161064357829003601f168201915b5050505050905090565b6000610675826113a2565b6106b4576040517f08c379a00000000000000000000000000000000000000000000000000000000081526004016106ab90613fab565b60405180910390fd5b6006600083815260200190815260200160002060009054906101000a900473ffffffffffffffffffffffffffffffffffffffff169050919050565b60006106fa82610b4b565b90508073ffffffffffffffffffffffffffffffffffffffff168373ffffffffffffffffffffffffffffffffffffffff16141561076b576040517f08c379a00000000000000000000000000000000000000000000000000000000081526004016107629061400b565b60405180910390fd5b8073ffffffffffffffffffffffffffffffffffffffff1661078a61140e565b73ffffffffffffffffffffffffffffffffffffffff1614806107b957506107b8816107b361140e565b6111a0565b5b6107f8576040517f08c379a00000000000000000000000000000000000000000000000000000000081526004016107ef90613ecb565b60405180910390fd5b6108028383611416565b505050565b61081861081261140e565b826114cf565b610857576040517f08c379a000000000000000000000000000000000000000000000000000000000815260040161084e9061404b565b60405180910390fd5b6108628383836115ad565b505050565b600060096000838152602001908152602001600020600101549050919050565b6000806000600160008681526020019081526020016000206040518060400160405290816000820160009054906101000a900473ffffffffffffffffffffffffffffffffffffffff1673ffffffffffffffffffffffffffffffffffffffff1673ffffffffffffffffffffffffffffffffffffffff1681526020016000820160149054906101000a90046bffffffffffffffffffffffff166bffffffffffffffffffffffff166bffffffffffffffffffffffff16815250509050600073ffffffffffffffffffffffffffffffffffffffff16816000015173ffffffffffffffffffffffffffffffffffffffff161415610a1d5760006040518060400160405290816000820160009054906101000a900473ffffffffffffffffffffffffffffffffffffffff1673ffffffffffffffffffffffffffffffffffffffff1673ffffffffffffffffffffffffffffffffffffffff1681526020016000820160149054906101000a90046bffffffffffffffffffffffff166bffffffffffffffffffffffff166bffffffffffffffffffffffff168152505090505b6000610a27611814565b6bffffffffffffffffffffffff1682602001516bffffffffffffffffffffffff1686610a53919061429f565b610a5d919061426e565b90508160000151819350935050509250929050565b610a7b82610867565b610a8c81610a8761140e565b61181e565b610a9683836118bb565b505050565b610aa361140e565b73ffffffffffffffffffffffffffffffffffffffff168173ffffffffffffffffffffffffffffffffffffffff1614610b10576040517f08c379a0000000000000000000000000000000000000000000000000000000008152600401610b079061408b565b60405180910390fd5b610b1a828261199c565b5050565b610b3983838360405180602001604052806000815250611103565b505050565b6000804690508091505090565b6000806004600084815260200190815260200160002060009054906101000a900473ffffffffffffffffffffffffffffffffffffffff169050600073ffffffffffffffffffffffffffffffffffffffff168173ffffffffffffffffffffffffffffffffffffffff161415610bf4576040517f08c379a0000000000000000000000000000000000000000000000000000000008152600401610beb90613f0b565b60405180910390fd5b80915050919050565b60008073ffffffffffffffffffffffffffffffffffffffff168273ffffffffffffffffffffffffffffffffffffffff161415610c6e576040517f08c379a0000000000000000000000000000000000000000000000000000000008152600401610c6590613eeb565b60405180910390fd5b600560008373ffffffffffffffffffffffffffffffffffffffff1673ffffffffffffffffffffffffffffffffffffffff168152602001908152602001600020549050919050565b6002600a541415610cfb576040517f08c379a0000000000000000000000000000000000000000000000000000000008152600401610cf29061406b565b60405180910390fd5b6002600a819055506000610d0e82611a7e565b90508160a001353414610d56576040517f08c379a0000000000000000000000000000000000000000000000000000000008152600401610d4d9061402b565b60405180910390fd5b8273ffffffffffffffffffffffffffffffffffffffff168173ffffffffffffffffffffffffffffffffffffffff161415610dc5576040517f08c379a0000000000000000000000000000000000000000000000000000000008152600401610dbc90613dcb565b60405180910390fd5b610def7fe2f4eaae4a9751e85a3e4a7b9587827a877f29914755229b07a7b2da98285f7082610fc5565b610e2e576040517f08c379a0000000000000000000000000000000000000000000000000000000008152600401610e2590613fcb565b60405180910390fd5b60003490508173ffffffffffffffffffffffffffffffffffffffff166108fc600c546064610e5c91906142f9565b83610e6791906142f9565b9081150290604051600060405180830381858888f19350505050158015610e92573d6000803e3d6000fd5b50600d60009054906101000a900473ffffffffffffffffffffffffffffffffffffffff1673ffffffffffffffffffffffffffffffffffffffff166108fc600c5483610edd919061429f565b9081150290604051600060405180830381858888f19350505050158015610f08573d6000803e3d6000fd5b50610f17828460400135611af1565b610f778360400135848060e00190610f2f919061411d565b8080601f016020809104026020016040519081016040528093929190818152602001838380828437600081840152601f19601f82011690508083019250505050505050611ccb565b610f86828585604001356115ad565b82604001357fe925326602e433d1e45b5c79b4ff305e4a75ea3a9c63be961abb9e36bd29b47c60405160405180910390a250506001600a819055505050565b60006009600084815260200190815260200160002060000160008373ffffffffffffffffffffffffffffffffffffffff1673ffffffffffffffffffffffffffffffffffffffff16815260200190815260200160002060009054906101000a900460ff16905092915050565b60606003805461103f90614424565b80601f016020809104026020016040519081016040528092919081815260200182805461106b90614424565b80156110b85780601f1061108d576101008083540402835291602001916110b8565b820191906000526020600020905b81548152906001019060200180831161109b57829003601f168201915b5050505050905090565b7fe2f4eaae4a9751e85a3e4a7b9587827a877f29914755229b07a7b2da98285f7081565b6000801b81565b6110ff6110f861140e565b8383611d3f565b5050565b61111461110e61140e565b836114cf565b611153576040517f08c379a000000000000000000000000000000000000000000000000000000000815260040161114a9061404b565b60405180910390fd5b61115f84848484611eac565b50505050565b606061117082611f08565b9050919050565b61118082610867565b6111918161118c61140e565b61181e565b61119b838361199c565b505050565b6000600760008473ffffffffffffffffffffffffffffffffffffffff1673ffffffffffffffffffffffffffffffffffffffff16815260200190815260200160002060008373ffffffffffffffffffffffffffffffffffffffff1673ffffffffffffffffffffffffffffffffffffffff16815260200190815260200160002060009054906101000a900460ff16905092915050565b60007f80ac58cd000000000000000000000000000000000000000000000000000000007bffffffffffffffffffffffffffffffffffffffffffffffffffffffff1916827bffffffffffffffffffffffffffffffffffffffffffffffffffffffff191614806112ff57507f5b5e139f000000000000000000000000000000000000000000000000000000007bffffffffffffffffffffffffffffffffffffffffffffffffffffffff1916827bffffffffffffffffffffffffffffffffffffffffffffffffffffffff1916145b8061130f575061130e8261205a565b5b9050919050565b60007f7965db0b000000000000000000000000000000000000000000000000000000007bffffffffffffffffffffffffffffffffffffffffffffffffffffffff1916827bffffffffffffffffffffffffffffffffffffffffffffffffffffffff19161480611389575061138882611390565b5b9050919050565b600061139b82611234565b9050919050565b60008073ffffffffffffffffffffffffffffffffffffffff166004600084815260200190815260200160002060009054906101000a900473ffffffffffffffffffffffffffffffffffffffff1673ffffffffffffffffffffffffffffffffffffffff1614159050919050565b600033905090565b816006600083815260200190815260200160002060006101000a81548173ffffffffffffffffffffffffffffffffffffffff021916908373ffffffffffffffffffffffffffffffffffffffff160217905550808273ffffffffffffffffffffffffffffffffffffffff1661148983610b4b565b73ffffffffffffffffffffffffffffffffffffffff167f8c5be1e5ebec7d5bd14f71427d1e84f3dd0314c0f7b2291e5b200ac8c7c3b92560405160405180910390a45050565b60006114da826113a2565b611519576040517f08c379a000000000000000000000000000000000000000000000000000000000815260040161151090613eab565b60405180910390fd5b600061152483610b4b565b90508073ffffffffffffffffffffffffffffffffffffffff168473ffffffffffffffffffffffffffffffffffffffff16148061159357508373ffffffffffffffffffffffffffffffffffffffff1661157b8461066a565b73ffffffffffffffffffffffffffffffffffffffff16145b806115a457506115a381856111a0565b5b91505092915050565b8273ffffffffffffffffffffffffffffffffffffffff166115cd82610b4b565b73ffffffffffffffffffffffffffffffffffffffff1614611623576040517f08c379a000000000000000000000000000000000000000000000000000000000815260040161161a90613e0b565b60405180910390fd5b600073ffffffffffffffffffffffffffffffffffffffff168273ffffffffffffffffffffffffffffffffffffffff161415611693576040517f08c379a000000000000000000000000000000000000000000000000000000000815260040161168a90613e4b565b60405180910390fd5b61169e8383836120d4565b6116a9600082611416565b6001600560008573ffffffffffffffffffffffffffffffffffffffff1673ffffffffffffffffffffffffffffffffffffffff16815260200190815260200160002060008282546116f991906142f9565b925050819055506001600560008473ffffffffffffffffffffffffffffffffffffffff1673ffffffffffffffffffffffffffffffffffffffff16815260200190815260200160002060008282546117509190614218565b92505081905550816004600083815260200190815260200160002060006101000a81548173ffffffffffffffffffffffffffffffffffffffff021916908373ffffffffffffffffffffffffffffffffffffffff160217905550808273ffffffffffffffffffffffffffffffffffffffff168473ffffffffffffffffffffffffffffffffffffffff167fddf252ad1be2c89b69c2b068fc378daa952ba7f163c4a11628f55a4df523b3ef60405160405180910390a461180f8383836120d9565b505050565b6000612710905090565b6118288282610fc5565b6118b75761184d8173ffffffffffffffffffffffffffffffffffffffff1660146120de565b61185b8360001c60206120de565b60405160200161186c929190613b15565b6040516020818303038152906040526040517f08c379a00000000000000000000000000000000000000000000000000000000081526004016118ae9190613d49565b60405180910390fd5b5050565b6118c58282610fc5565b6119985760016009600084815260200190815260200160002060000160008373ffffffffffffffffffffffffffffffffffffffff1673ffffffffffffffffffffffffffffffffffffffff16815260200190815260200160002060006101000a81548160ff02191690831515021790555061193d61140e565b73ffffffffffffffffffffffffffffffffffffffff168173ffffffffffffffffffffffffffffffffffffffff16837f2f8788117e7eff1d82e926ec794901d17c78024a50270940304540a733656f0d60405160405180910390a45b5050565b6119a68282610fc5565b15611a7a5760006009600084815260200190815260200160002060000160008373ffffffffffffffffffffffffffffffffffffffff1673ffffffffffffffffffffffffffffffffffffffff16815260200190815260200160002060006101000a81548160ff021916908315150217905550611a1f61140e565b73ffffffffffffffffffffffffffffffffffffffff168173ffffffffffffffffffffffffffffffffffffffff16837ff6391f5c32d9c69d2a47ea670b442974b53935d1edc7fd64eb21e047a839171b60405160405180910390a45b5050565b600080611a8a836123d8565b9050611ae98184806101200190611aa191906140c6565b8080601f016020809104026020016040519081016040528093929190818152602001838380828437600081840152601f19601f8201169050808301925050505050505061252d565b915050919050565b600073ffffffffffffffffffffffffffffffffffffffff168273ffffffffffffffffffffffffffffffffffffffff161415611b61576040517f08c379a0000000000000000000000000000000000000000000000000000000008152600401611b5890613f6b565b60405180910390fd5b611b6a816113a2565b15611baa576040517f08c379a0000000000000000000000000000000000000000000000000000000008152600401611ba190613e2b565b60405180910390fd5b611bb6600083836120d4565b6001600560008473ffffffffffffffffffffffffffffffffffffffff1673ffffffffffffffffffffffffffffffffffffffff1681526020019081526020016000206000828254611c069190614218565b92505081905550816004600083815260200190815260200160002060006101000a81548173ffffffffffffffffffffffffffffffffffffffff021916908373ffffffffffffffffffffffffffffffffffffffff160217905550808273ffffffffffffffffffffffffffffffffffffffff16600073ffffffffffffffffffffffffffffffffffffffff167fddf252ad1be2c89b69c2b068fc378daa952ba7f163c4a11628f55a4df523b3ef60405160405180910390a4611cc7600083836120d9565b5050565b611cd4826113a2565b611d13576040517f08c379a0000000000000000000000000000000000000000000000000000000008152600401611d0a90613f2b565b60405180910390fd5b80600860008481526020019081526020016000209080519060200190611d3a9291906130c4565b505050565b8173ffffffffffffffffffffffffffffffffffffffff168373ffffffffffffffffffffffffffffffffffffffff161415611dae576040517f08c379a0000000000000000000000000000000000000000000000000000000008152600401611da590613e6b565b60405180910390fd5b80600760008573ffffffffffffffffffffffffffffffffffffffff1673ffffffffffffffffffffffffffffffffffffffff16815260200190815260200160002060008473ffffffffffffffffffffffffffffffffffffffff1673ffffffffffffffffffffffffffffffffffffffff16815260200190815260200160002060006101000a81548160ff0219169083151502179055508173ffffffffffffffffffffffffffffffffffffffff168373ffffffffffffffffffffffffffffffffffffffff167f17307eab39ab6107e8899845ad3d59bd9653f200f220920489ca2b5937696c3183604051611e9f9190613bdf565b60405180910390a3505050565b611eb78484846115ad565b611ec384848484612554565b611f02576040517f08c379a0000000000000000000000000000000000000000000000000000000008152600401611ef990613deb565b60405180910390fd5b50505050565b6060611f13826113a2565b611f52576040517f08c379a0000000000000000000000000000000000000000000000000000000008152600401611f4990613f8b565b60405180910390fd5b6000600860008481526020019081526020016000208054611f7290614424565b80601f0160208091040260200160405190810160405280929190818152602001828054611f9e90614424565b8015611feb5780601f10611fc057610100808354040283529160200191611feb565b820191906000526020600020905b815481529060010190602001808311611fce57829003601f168201915b505050505090506000611ffc6126eb565b9050600081511415612012578192505050612055565b60008251111561204757808260405160200161202f929190613aba565b60405160208183030381529060405292505050612055565b61205084612702565b925050505b919050565b60007f2a55205a000000000000000000000000000000000000000000000000000000007bffffffffffffffffffffffffffffffffffffffffffffffffffffffff1916827bffffffffffffffffffffffffffffffffffffffffffffffffffffffff191614806120cd57506120cc826127a9565b5b9050919050565b505050565b505050565b6060600060028360026120f1919061429f565b6120fb9190614218565b67ffffffffffffffff81111561213a577f4e487b7100000000000000000000000000000000000000000000000000000000600052604160045260246000fd5b6040519080825280601f01601f19166020018201604052801561216c5781602001600182028036833780820191505090505b5090507f3000000000000000000000000000000000000000000000000000000000000000816000815181106121ca577f4e487b7100000000000000000000000000000000000000000000000000000000600052603260045260246000fd5b60200101907effffffffffffffffffffffffffffffffffffffffffffffffffffffffffffff1916908160001a9053507f780000000000000000000000000000000000000000000000000000000000000081600181518110612254577f4e487b7100000000000000000000000000000000000000000000000000000000600052603260045260246000fd5b60200101907effffffffffffffffffffffffffffffffffffffffffffffffffffffffffffff1916908160001a90535060006001846002612294919061429f565b61229e9190614218565b90505b600181111561238a577f3031323334353637383961626364656600000000000000000000000000000000600f861660108110612306577f4e487b7100000000000000000000000000000000000000000000000000000000600052603260045260246000fd5b1a60f81b828281518110612343577f4e487b7100000000000000000000000000000000000000000000000000000000600052603260045260246000fd5b60200101907effffffffffffffffffffffffffffffffffffffffffffffffffffffffffffff1916908160001a905350600485901c945080612383906143fa565b90506122a1565b50600084146123ce576040517f08c379a00000000000000000000000000000000000000000000000000000000081526004016123c590613d8b565b60405180910390fd5b8091505092915050565b60006125267f8a4543536a07699fa90d70be7e25283d74ab9f38765bf394458acef3476205ad83806000019061240e919061411d565b60405161241c929190613aa1565b60405180910390208460200135856040013586806060019061243e919061411d565b60405161244c929190613aa1565b6040518091039020878060800190612464919061411d565b604051612472929190613aa1565b60405180910390208860a00135898060c0019061248f919061411d565b60405161249d929190613aa1565b60405180910390208a8060e001906124b5919061411d565b6040516124c3929190613aa1565b60405180910390208b8061010001906124dc919061411d565b6040516124ea929190613aa1565b604051809103902060405160200161250b9a99989796959493929190613c68565b60405160208183030381529060405280519060200120612813565b9050919050565b600080600061253c858561282d565b91509150612549816128b0565b819250505092915050565b60006125758473ffffffffffffffffffffffffffffffffffffffff16612c01565b156126de578373ffffffffffffffffffffffffffffffffffffffff1663150b7a0261259e61140e565b8786866040518563ffffffff1660e01b81526004016125c09493929190613b6a565b602060405180830381600087803b1580156125da57600080fd5b505af192505050801561260b57506040513d601f19601f8201168201806040525081019061260891906134f2565b60015b61268e573d806000811461263b576040519150601f19603f3d011682016040523d82523d6000602084013e612640565b606091505b50600081511415612686576040517f08c379a000000000000000000000000000000000000000000000000000000000815260040161267d90613deb565b60405180910390fd5b805181602001fd5b63150b7a0260e01b7bffffffffffffffffffffffffffffffffffffffffffffffffffffffff1916817bffffffffffffffffffffffffffffffffffffffffffffffffffffffff1916149150506126e3565b600190505b949350505050565b606060405180602001604052806000815250905090565b606061270d826113a2565b61274c576040517f08c379a000000000000000000000000000000000000000000000000000000000815260040161274390613feb565b60405180910390fd5b60006127566126eb565b9050600081511161277657604051806020016040528060008152506127a1565b8061278084612c24565b604051602001612791929190613aba565b6040516020818303038152906040525b915050919050565b60007f01ffc9a7000000000000000000000000000000000000000000000000000000007bffffffffffffffffffffffffffffffffffffffffffffffffffffffff1916827bffffffffffffffffffffffffffffffffffffffffffffffffffffffff1916149050919050565b6000612826612820612dd1565b83612eeb565b9050919050565b60008060418351141561286f5760008060006020860151925060408601519150606086015160001a905061286387828585612f1e565b945094505050506128a9565b6040835114156128a057600080602085015191506040850151905061289586838361302b565b9350935050506128a9565b60006002915091505b9250929050565b600060048111156128ea577f4e487b7100000000000000000000000000000000000000000000000000000000600052602160045260246000fd5b816004811115612923577f4e487b7100000000000000000000000000000000000000000000000000000000600052602160045260246000fd5b141561292e57612bfe565b60016004811115612968577f4e487b7100000000000000000000000000000000000000000000000000000000600052602160045260246000fd5b8160048111156129a1577f4e487b7100000000000000000000000000000000000000000000000000000000600052602160045260246000fd5b14156129e2576040517f08c379a00000000000000000000000000000000000000000000000000000000081526004016129d990613d6b565b60405180910390fd5b60026004811115612a1c577f4e487b7100000000000000000000000000000000000000000000000000000000600052602160045260246000fd5b816004811115612a55577f4e487b7100000000000000000000000000000000000000000000000000000000600052602160045260246000fd5b1415612a96576040517f08c379a0000000000000000000000000000000000000000000000000000000008152600401612a8d90613dab565b60405180910390fd5b60036004811115612ad0577f4e487b7100000000000000000000000000000000000000000000000000000000600052602160045260246000fd5b816004811115612b09577f4e487b7100000000000000000000000000000000000000000000000000000000600052602160045260246000fd5b1415612b4a576040517f08c379a0000000000000000000000000000000000000000000000000000000008152600401612b4190613e8b565b60405180910390fd5b600480811115612b83577f4e487b7100000000000000000000000000000000000000000000000000000000600052602160045260246000fd5b816004811115612bbc577f4e487b7100000000000000000000000000000000000000000000000000000000600052602160045260246000fd5b1415612bfd576040517f08c379a0000000000000000000000000000000000000000000000000000000008152600401612bf490613f4b565b60405180910390fd5b5b50565b6000808273ffffffffffffffffffffffffffffffffffffffff163b119050919050565b60606000821415612c6c576040518060400160405280600181526020017f30000000000000000000000000000000000000000000000000000000000000008152509050612dcc565b600082905060005b60008214612c9e578080612c8790614487565b915050600a82612c97919061426e565b9150612c74565b60008167ffffffffffffffff811115612ce0577f4e487b7100000000000000000000000000000000000000000000000000000000600052604160045260246000fd5b6040519080825280601f01601f191660200182016040528015612d125781602001600182028036833780820191505090505b5090505b60008514612dc557600182612d2b91906142f9565b9150600a85612d3a91906144da565b6030612d469190614218565b60f81b818381518110612d82577f4e487b7100000000000000000000000000000000000000000000000000000000600052603260045260246000fd5b60200101907effffffffffffffffffffffffffffffffffffffffffffffffffffffffffffff1916908160001a905350600a85612dbe919061426e565b9450612d16565b8093505050505b919050565b60007f000000000000000000000000000000000000000000000000000000000000000073ffffffffffffffffffffffffffffffffffffffff163073ffffffffffffffffffffffffffffffffffffffff16148015612e4d57507f000000000000000000000000000000000000000000000000000000000000000046145b15612e7a577f00000000000000000000000000000000000000000000000000000000000000009050612ee8565b612ee57f00000000000000000000000000000000000000000000000000000000000000007f00000000000000000000000000000000000000000000000000000000000000007f000000000000000000000000000000000000000000000000000000000000000061308a565b90505b90565b60008282604051602001612f00929190613ade565b60405160208183030381529060405280519060200120905092915050565b6000807f7fffffffffffffffffffffffffffffff5d576e7357a4501ddfe92f46681b20a08360001c1115612f59576000600391509150613022565b601b8560ff1614158015612f715750601c8560ff1614155b15612f83576000600491509150613022565b600060018787878760405160008152602001604052604051612fa89493929190613d04565b6020604051602081039080840390855afa158015612fca573d6000803e3d6000fd5b505050602060405103519050600073ffffffffffffffffffffffffffffffffffffffff168173ffffffffffffffffffffffffffffffffffffffff16141561301957600060019250925050613022565b80600092509250505b94509492505050565b60008060007f7fffffffffffffffffffffffffffffffffffffffffffffffffffffffffffffff60001b841690506000601b60ff8660001c901c61306e9190614218565b905061307c87828885612f1e565b935093505050935093915050565b600083838346306040516020016130a5959493929190613c15565b6040516020818303038152906040528051906020012090509392505050565b8280546130d090614424565b90600052602060002090601f0160209004810192826130f25760008555613139565b82601f1061310b57805160ff1916838001178555613139565b82800160010185558215613139579182015b8281111561313857825182559160200191906001019061311d565b5b509050613146919061314a565b5090565b5b8082111561316357600081600090555060010161314b565b5090565b600061317a61317584614199565b614174565b90508281526020810184848401111561319257600080fd5b61319d8482856143b8565b509392505050565b6000813590506131b481614cdd565b92915050565b6000813590506131c981614cf4565b92915050565b6000813590506131de81614d0b565b92915050565b6000813590506131f381614d22565b92915050565b60008151905061320881614d22565b92915050565b600082601f83011261321f57600080fd5b813561322f848260208601613167565b91505092915050565b6000610140828403121561324b57600080fd5b81905092915050565b60008135905061326381614d39565b92915050565b60006020828403121561327b57600080fd5b6000613289848285016131a5565b91505092915050565b600080604083850312156132a557600080fd5b60006132b3858286016131a5565b92505060206132c4858286016131a5565b9150509250929050565b6000806000606084860312156132e357600080fd5b60006132f1868287016131a5565b9350506020613302868287016131a5565b925050604061331386828701613254565b9150509250925092565b6000806000806080858703121561333357600080fd5b6000613341878288016131a5565b9450506020613352878288016131a5565b935050604061336387828801613254565b925050606085013567ffffffffffffffff81111561338057600080fd5b61338c8782880161320e565b91505092959194509250565b600080604083850312156133ab57600080fd5b60006133b9858286016131a5565b92505060206133ca858286016131ba565b9150509250929050565b600080604083850312156133e757600080fd5b60006133f5858286016131a5565b925050602083013567ffffffffffffffff81111561341257600080fd5b61341e85828601613238565b9150509250929050565b6000806040838503121561343b57600080fd5b6000613449858286016131a5565b925050602061345a85828601613254565b9150509250929050565b60006020828403121561347657600080fd5b6000613484848285016131cf565b91505092915050565b600080604083850312156134a057600080fd5b60006134ae858286016131cf565b92505060206134bf858286016131a5565b9150509250929050565b6000602082840312156134db57600080fd5b60006134e9848285016131e4565b91505092915050565b60006020828403121561350457600080fd5b6000613512848285016131f9565b91505092915050565b60006020828403121561352d57600080fd5b600061353b84828501613254565b91505092915050565b6000806040838503121561355757600080fd5b600061356585828601613254565b925050602061357685828601613254565b9150509250929050565b6135898161432d565b82525050565b6135988161433f565b82525050565b6135a78161434b565b82525050565b6135be6135b98261434b565b6144d0565b82525050565b60006135d083856141f1565b93506135dd8385846143b8565b82840190509392505050565b60006135f4826141ca565b6135fe81856141e0565b935061360e8185602086016143c7565b613617816145c7565b840191505092915050565b600061362d826141d5565b61363781856141fc565b93506136478185602086016143c7565b613650816145c7565b840191505092915050565b6000613666826141d5565b613670818561420d565b93506136808185602086016143c7565b80840191505092915050565b60006136996018836141fc565b91506136a4826145d8565b602082019050919050565b60006136bc6020836141fc565b91506136c782614601565b602082019050919050565b60006136df601f836141fc565b91506136ea8261462a565b602082019050919050565b60006137026016836141fc565b915061370d82614653565b602082019050919050565b60006137256032836141fc565b91506137308261467c565b604082019050919050565b60006137486025836141fc565b9150613753826146cb565b604082019050919050565b600061376b601c836141fc565b91506137768261471a565b602082019050919050565b600061378e60028361420d565b915061379982614743565b600282019050919050565b60006137b16024836141fc565b91506137bc8261476c565b604082019050919050565b60006137d46019836141fc565b91506137df826147bb565b602082019050919050565b60006137f76022836141fc565b9150613802826147e4565b604082019050919050565b600061381a602c836141fc565b915061382582614833565b604082019050919050565b600061383d6038836141fc565b915061384882614882565b604082019050919050565b6000613860602a836141fc565b915061386b826148d1565b604082019050919050565b60006138836029836141fc565b915061388e82614920565b604082019050919050565b60006138a6602e836141fc565b91506138b18261496f565b604082019050919050565b60006138c96022836141fc565b91506138d4826149be565b604082019050919050565b60006138ec6020836141fc565b91506138f782614a0d565b602082019050919050565b600061390f6031836141fc565b915061391a82614a36565b604082019050919050565b6000613932602c836141fc565b915061393d82614a85565b604082019050919050565b60006139556011836141fc565b915061396082614ad4565b602082019050919050565b6000613978602f836141fc565b915061398382614afd565b604082019050919050565b600061399b6021836141fc565b91506139a682614b4c565b604082019050919050565b60006139be6017836141fc565b91506139c982614b9b565b602082019050919050565b60006139e16031836141fc565b91506139ec82614bc4565b604082019050919050565b6000613a0460178361420d565b9150613a0f82614c13565b601782019050919050565b6000613a27601f836141fc565b9150613a3282614c3c565b602082019050919050565b6000613a4a60118361420d565b9150613a5582614c65565b601182019050919050565b6000613a6d602f836141fc565b9150613a7882614c8e565b604082019050919050565b613a8c816143a1565b82525050565b613a9b816143ab565b82525050565b6000613aae8284866135c4565b91508190509392505050565b6000613ac6828561365b565b9150613ad2828461365b565b91508190509392505050565b6000613ae982613781565b9150613af582856135ad565b602082019150613b0582846135ad565b6020820191508190509392505050565b6000613b20826139f7565b9150613b2c828561365b565b9150613b3782613a3d565b9150613b43828461365b565b91508190509392505050565b6000602082019050613b646000830184613580565b92915050565b6000608082019050613b7f6000830187613580565b613b8c6020830186613580565b613b996040830185613a83565b8181036060830152613bab81846135e9565b905095945050505050565b6000604082019050613bcb6000830185613580565b613bd86020830184613a83565b9392505050565b6000602082019050613bf4600083018461358f565b92915050565b6000602082019050613c0f600083018461359e565b92915050565b600060a082019050613c2a600083018861359e565b613c37602083018761359e565b613c44604083018661359e565b613c516060830185613a83565b613c5e6080830184613580565b9695505050505050565b600061014082019050613c7e600083018d61359e565b613c8b602083018c61359e565b613c98604083018b613a83565b613ca5606083018a613a83565b613cb2608083018961359e565b613cbf60a083018861359e565b613ccc60c0830187613a83565b613cd960e083018661359e565b613ce761010083018561359e565b613cf561012083018461359e565b9b9a5050505050505050505050565b6000608082019050613d19600083018761359e565b613d266020830186613a92565b613d33604083018561359e565b613d40606083018461359e565b95945050505050565b60006020820190508181036000830152613d638184613622565b905092915050565b60006020820190508181036000830152613d848161368c565b9050919050565b60006020820190508181036000830152613da4816136af565b9050919050565b60006020820190508181036000830152613dc4816136d2565b9050919050565b60006020820190508181036000830152613de4816136f5565b9050919050565b60006020820190508181036000830152613e0481613718565b9050919050565b60006020820190508181036000830152613e248161373b565b9050919050565b60006020820190508181036000830152613e448161375e565b9050919050565b60006020820190508181036000830152613e64816137a4565b9050919050565b60006020820190508181036000830152613e84816137c7565b9050919050565b60006020820190508181036000830152613ea4816137ea565b9050919050565b60006020820190508181036000830152613ec48161380d565b9050919050565b60006020820190508181036000830152613ee481613830565b9050919050565b60006020820190508181036000830152613f0481613853565b9050919050565b60006020820190508181036000830152613f2481613876565b9050919050565b60006020820190508181036000830152613f4481613899565b9050919050565b60006020820190508181036000830152613f64816138bc565b9050919050565b60006020820190508181036000830152613f84816138df565b9050919050565b60006020820190508181036000830152613fa481613902565b9050919050565b60006020820190508181036000830152613fc481613925565b9050919050565b60006020820190508181036000830152613fe481613948565b9050919050565b600060208201905081810360008301526140048161396b565b9050919050565b600060208201905081810360008301526140248161398e565b9050919050565b60006020820190508181036000830152614044816139b1565b9050919050565b60006020820190508181036000830152614064816139d4565b9050919050565b6000602082019050818103600083015261408481613a1a565b9050919050565b600060208201905081810360008301526140a481613a60565b9050919050565b60006020820190506140c06000830184613a83565b92915050565b600080833560016020038436030381126140df57600080fd5b80840192508235915067ffffffffffffffff8211156140fd57600080fd5b60208301925060018202360383131561411557600080fd5b509250929050565b6000808335600160200384360303811261413657600080fd5b80840192508235915067ffffffffffffffff82111561415457600080fd5b60208301925060018202360383131561416c57600080fd5b509250929050565b600061417e61418f565b905061418a8282614456565b919050565b6000604051905090565b600067ffffffffffffffff8211156141b4576141b3614598565b5b6141bd826145c7565b9050602081019050919050565b600081519050919050565b600081519050919050565b600082825260208201905092915050565b600081905092915050565b600082825260208201905092915050565b600081905092915050565b6000614223826143a1565b915061422e836143a1565b9250827fffffffffffffffffffffffffffffffffffffffffffffffffffffffffffffffff038211156142635761426261450b565b5b828201905092915050565b6000614279826143a1565b9150614284836143a1565b9250826142945761429361453a565b5b828204905092915050565b60006142aa826143a1565b91506142b5836143a1565b9250817fffffffffffffffffffffffffffffffffffffffffffffffffffffffffffffffff04831182151516156142ee576142ed61450b565b5b828202905092915050565b6000614304826143a1565b915061430f836143a1565b9250828210156143225761432161450b565b5b828203905092915050565b600061433882614381565b9050919050565b60008115159050919050565b6000819050919050565b60007fffffffff0000000000000000000000000000000000000000000000000000000082169050919050565b600073ffffffffffffffffffffffffffffffffffffffff82169050919050565b6000819050919050565b600060ff82169050919050565b82818337600083830152505050565b60005b838110156143e55780820151818401526020810190506143ca565b838111156143f4576000848401525b50505050565b6000614405826143a1565b915060008214156144195761441861450b565b5b600182039050919050565b6000600282049050600182168061443c57607f821691505b602082108114156144505761444f614569565b5b50919050565b61445f826145c7565b810181811067ffffffffffffffff8211171561447e5761447d614598565b5b80604052505050565b6000614492826143a1565b91507fffffffffffffffffffffffffffffffffffffffffffffffffffffffffffffffff8214156144c5576144c461450b565b5b600182019050919050565b6000819050919050565b60006144e5826143a1565b91506144f0836143a1565b925082614500576144ff61453a565b5b828206905092915050565b7f4e487b7100000000000000000000000000000000000000000000000000000000600052601160045260246000fd5b7f4e487b7100000000000000000000000000000000000000000000000000000000600052601260045260246000fd5b7f4e487b7100000000000000000000000000000000000000000000000000000000600052602260045260246000fd5b7f4e487b7100000000000000000000000000000000000000000000000000000000600052604160045260246000fd5b6000601f19601f8301169050919050565b7f45434453413a20696e76616c6964207369676e61747572650000000000000000600082015250565b7f537472696e67733a20686578206c656e67746820696e73756666696369656e74600082015250565b7f45434453413a20696e76616c6964207369676e6174757265206c656e67746800600082015250565b7f6172746973742063616e6e6f7420707572636861736500000000000000000000600082015250565b7f4552433732313a207472616e7366657220746f206e6f6e20455243373231526560008201527f63656976657220696d706c656d656e7465720000000000000000000000000000602082015250565b7f4552433732313a207472616e736665722066726f6d20696e636f72726563742060008201527f6f776e6572000000000000000000000000000000000000000000000000000000602082015250565b7f4552433732313a20746f6b656e20616c7265616479206d696e74656400000000600082015250565b7f1901000000000000000000000000000000000000000000000000000000000000600082015250565b7f4552433732313a207472616e7366657220746f20746865207a65726f2061646460008201527f7265737300000000000000000000000000000000000000000000000000000000602082015250565b7f4552433732313a20617070726f766520746f2063616c6c657200000000000000600082015250565b7f45434453413a20696e76616c6964207369676e6174757265202773272076616c60008201527f7565000000000000000000000000000000000000000000000000000000000000602082015250565b7f4552433732313a206f70657261746f7220717565727920666f72206e6f6e657860008201527f697374656e7420746f6b656e0000000000000000000000000000000000000000602082015250565b7f4552433732313a20617070726f76652063616c6c6572206973206e6f74206f7760008201527f6e6572206e6f7220617070726f76656420666f7220616c6c0000000000000000602082015250565b7f4552433732313a2062616c616e636520717565727920666f7220746865207a6560008201527f726f206164647265737300000000000000000000000000000000000000000000602082015250565b7f4552433732313a206f776e657220717565727920666f72206e6f6e657869737460008201527f656e7420746f6b656e0000000000000000000000000000000000000000000000602082015250565b7f45524337323155524953746f726167653a2055524920736574206f66206e6f6e60008201527f6578697374656e7420746f6b656e000000000000000000000000000000000000602082015250565b7f45434453413a20696e76616c6964207369676e6174757265202776272076616c60008201527f7565000000000000000000000000000000000000000000000000000000000000602082015250565b7f4552433732313a206d696e7420746f20746865207a65726f2061646472657373600082015250565b7f45524337323155524953746f726167653a2055524920717565727920666f722060008201527f6e6f6e6578697374656e7420746f6b656e000000000000000000000000000000602082015250565b7f4552433732313a20617070726f76656420717565727920666f72206e6f6e657860008201527f697374656e7420746f6b656e0000000000000000000000000000000000000000602082015250565b7f496e76616c6964205369676e6174757265000000000000000000000000000000600082015250565b7f4552433732314d657461646174613a2055524920717565727920666f72206e6f60008201527f6e6578697374656e7420746f6b656e0000000000000000000000000000000000602082015250565b7f4552433732313a20617070726f76616c20746f2063757272656e74206f776e6560008201527f7200000000000000000000000000000000000000000000000000000000000000602082015250565b7f456e7465722074686520636f7272656374207072696365000000000000000000600082015250565b7f4552433732313a207472616e736665722063616c6c6572206973206e6f74206f60008201527f776e6572206e6f7220617070726f766564000000000000000000000000000000602082015250565b7f416363657373436f6e74726f6c3a206163636f756e7420000000000000000000600082015250565b7f5265656e7472616e637947756172643a207265656e7472616e742063616c6c00600082015250565b7f206973206d697373696e6720726f6c6520000000000000000000000000000000600082015250565b7f416363657373436f6e74726f6c3a2063616e206f6e6c792072656e6f756e636560008201527f20726f6c657320666f722073656c660000000000000000000000000000000000602082015250565b614ce68161432d565b8114614cf157600080fd5b50565b614cfd8161433f565b8114614d0857600080fd5b50565b614d148161434b565b8114614d1f57600080fd5b50565b614d2b81614355565b8114614d3657600080fd5b50565b614d42816143a1565b8114614d4d57600080fd5b5056fea26469706673582212209bba06904f7c66875c969cddc304e1081dfa183fff599c71701fa8fd498813f364736f6c63430008040033",
  "linkReferences": {},
  "deployedLinkReferences": {}
}