{
  "_format": "hh-sol-artifact-1",
  "contractName": "LazyFactory",
  "sourceName": "contracts/LazyFactory.sol",
  "abi": [
    {
      "inputs": [],
      "stateMutability": "nonpayable",
      "type": "constructor"
    },
    {
      "anonymous": false,
      "inputs": [
        {
          "indexed": true,
          "internalType": "address",
          "name": "owner",
          "type": "address"
        },
        {
          "indexed": true,
          "internalType": "address",
          "name": "approved",
          "type": "address"
        },
        {
          "indexed": true,
          "internalType": "uint256",
          "name": "tokenId",
          "type": "uint256"
        }
      ],
      "name": "Approval",
      "type": "event"
    },
    {
      "anonymous": false,
      "inputs": [
        {
          "indexed": true,
          "internalType": "address",
          "name": "owner",
          "type": "address"
        },
        {
          "indexed": true,
          "internalType": "address",
          "name": "operator",
          "type": "address"
        },
        {
          "indexed": false,
          "internalType": "bool",
          "name": "approved",
          "type": "bool"
        }
      ],
      "name": "ApprovalForAll",
      "type": "event"
    },
    {
      "anonymous": false,
      "inputs": [
        {
          "indexed": true,
          "internalType": "address",
          "name": "artist",
          "type": "address"
        },
        {
          "indexed": true,
          "internalType": "uint256",
          "name": "tokenId",
          "type": "uint256"
        }
      ],
      "name": "RedeemedAndMinted",
      "type": "event"
    },
    {
      "anonymous": false,
      "inputs": [
        {
          "indexed": true,
          "internalType": "bytes32",
          "name": "role",
          "type": "bytes32"
        },
        {
          "indexed": true,
          "internalType": "bytes32",
          "name": "previousAdminRole",
          "type": "bytes32"
        },
        {
          "indexed": true,
          "internalType": "bytes32",
          "name": "newAdminRole",
          "type": "bytes32"
        }
      ],
      "name": "RoleAdminChanged",
      "type": "event"
    },
    {
      "anonymous": false,
      "inputs": [
        {
          "indexed": true,
          "internalType": "bytes32",
          "name": "role",
          "type": "bytes32"
        },
        {
          "indexed": true,
          "internalType": "address",
          "name": "account",
          "type": "address"
        },
        {
          "indexed": true,
          "internalType": "address",
          "name": "sender",
          "type": "address"
        }
      ],
      "name": "RoleGranted",
      "type": "event"
    },
    {
      "anonymous": false,
      "inputs": [
        {
          "indexed": true,
          "internalType": "bytes32",
          "name": "role",
          "type": "bytes32"
        },
        {
          "indexed": true,
          "internalType": "address",
          "name": "account",
          "type": "address"
        },
        {
          "indexed": true,
          "internalType": "address",
          "name": "sender",
          "type": "address"
        }
      ],
      "name": "RoleRevoked",
      "type": "event"
    },
    {
      "anonymous": false,
      "inputs": [
        {
          "indexed": true,
          "internalType": "address",
          "name": "from",
          "type": "address"
        },
        {
          "indexed": true,
          "internalType": "address",
          "name": "to",
          "type": "address"
        },
        {
          "indexed": true,
          "internalType": "uint256",
          "name": "tokenId",
          "type": "uint256"
        }
      ],
      "name": "Transfer",
      "type": "event"
    },
    {
      "inputs": [],
      "name": "DEFAULT_ADMIN_ROLE",
      "outputs": [
        {
          "internalType": "bytes32",
          "name": "",
          "type": "bytes32"
        }
      ],
      "stateMutability": "view",
      "type": "function"
    },
    {
      "inputs": [],
      "name": "SIGNER_ROLE",
      "outputs": [
        {
          "internalType": "bytes32",
          "name": "",
          "type": "bytes32"
        }
      ],
      "stateMutability": "view",
      "type": "function"
    },
    {
      "inputs": [
        {
          "internalType": "address",
          "name": "to",
          "type": "address"
        },
        {
          "internalType": "uint256",
          "name": "tokenId",
          "type": "uint256"
        }
      ],
      "name": "approve",
      "outputs": [],
      "stateMutability": "nonpayable",
      "type": "function"
    },
    {
      "inputs": [
        {
          "internalType": "address",
          "name": "owner",
          "type": "address"
        }
      ],
      "name": "balanceOf",
      "outputs": [
        {
          "internalType": "uint256",
          "name": "",
          "type": "uint256"
        }
      ],
      "stateMutability": "view",
      "type": "function"
    },
    {
      "inputs": [
        {
          "internalType": "uint256",
          "name": "tokenId",
          "type": "uint256"
        }
      ],
      "name": "getApproved",
      "outputs": [
        {
          "internalType": "address",
          "name": "",
          "type": "address"
        }
      ],
      "stateMutability": "view",
      "type": "function"
    },
    {
      "inputs": [],
      "name": "getChainID",
      "outputs": [
        {
          "internalType": "uint256",
          "name": "",
          "type": "uint256"
        }
      ],
      "stateMutability": "view",
      "type": "function"
    },
    {
      "inputs": [
        {
          "internalType": "bytes32",
          "name": "role",
          "type": "bytes32"
        }
      ],
      "name": "getRoleAdmin",
      "outputs": [
        {
          "internalType": "bytes32",
          "name": "",
          "type": "bytes32"
        }
      ],
      "stateMutability": "view",
      "type": "function"
    },
    {
      "inputs": [
        {
          "internalType": "bytes32",
          "name": "role",
          "type": "bytes32"
        },
        {
          "internalType": "address",
          "name": "account",
          "type": "address"
        }
      ],
      "name": "grantRole",
      "outputs": [],
      "stateMutability": "nonpayable",
      "type": "function"
    },
    {
      "inputs": [
        {
          "internalType": "bytes32",
          "name": "role",
          "type": "bytes32"
        },
        {
          "internalType": "address",
          "name": "account",
          "type": "address"
        }
      ],
      "name": "hasRole",
      "outputs": [
        {
          "internalType": "bool",
          "name": "",
          "type": "bool"
        }
      ],
      "stateMutability": "view",
      "type": "function"
    },
    {
      "inputs": [
        {
          "internalType": "address",
          "name": "owner",
          "type": "address"
        },
        {
          "internalType": "address",
          "name": "operator",
          "type": "address"
        }
      ],
      "name": "isApprovedForAll",
      "outputs": [
        {
          "internalType": "bool",
          "name": "",
          "type": "bool"
        }
      ],
      "stateMutability": "view",
      "type": "function"
    },
    {
      "inputs": [],
      "name": "name",
      "outputs": [
        {
          "internalType": "string",
          "name": "",
          "type": "string"
        }
      ],
      "stateMutability": "view",
      "type": "function"
    },
    {
      "inputs": [
        {
          "internalType": "uint256",
          "name": "tokenId",
          "type": "uint256"
        }
      ],
      "name": "ownerOf",
      "outputs": [
        {
          "internalType": "address",
          "name": "",
          "type": "address"
        }
      ],
      "stateMutability": "view",
      "type": "function"
    },
    {
      "inputs": [
        {
          "internalType": "address",
          "name": "buyer",
          "type": "address"
        },
        {
          "components": [
            {
              "internalType": "string",
              "name": "title",
              "type": "string"
            },
            {
              "internalType": "address",
              "name": "artist",
              "type": "address"
            },
            {
              "internalType": "uint256",
              "name": "artworkId",
              "type": "uint256"
            },
            {
              "internalType": "string",
              "name": "editionNumber",
              "type": "string"
            },
            {
              "internalType": "string",
              "name": "edition",
              "type": "string"
            },
            {
              "internalType": "uint256",
              "name": "priceDollar",
              "type": "uint256"
            },
            {
              "internalType": "string",
              "name": "tokenUri",
              "type": "string"
            },
            {
              "internalType": "string",
              "name": "content",
              "type": "string"
            },
            {
              "internalType": "uint96",
              "name": "vadeeFee",
              "type": "uint96"
            },
            {
              "internalType": "uint96",
              "name": "royaltyFee",
              "type": "uint96"
            },
            {
              "internalType": "bytes",
              "name": "signature",
              "type": "bytes"
            }
          ],
          "internalType": "struct LazyFactory.Voucher",
          "name": "voucher",
          "type": "tuple"
        }
      ],
      "name": "redeem",
      "outputs": [],
      "stateMutability": "payable",
      "type": "function"
    },
    {
      "inputs": [
        {
          "internalType": "bytes32",
          "name": "role",
          "type": "bytes32"
        },
        {
          "internalType": "address",
          "name": "account",
          "type": "address"
        }
      ],
      "name": "renounceRole",
      "outputs": [],
      "stateMutability": "nonpayable",
      "type": "function"
    },
    {
      "inputs": [
        {
          "internalType": "bytes32",
          "name": "role",
          "type": "bytes32"
        },
        {
          "internalType": "address",
          "name": "account",
          "type": "address"
        }
      ],
      "name": "revokeRole",
      "outputs": [],
      "stateMutability": "nonpayable",
      "type": "function"
    },
    {
      "inputs": [
        {
          "internalType": "uint256",
          "name": "_tokenId",
          "type": "uint256"
        },
        {
          "internalType": "uint256",
          "name": "_salePrice",
          "type": "uint256"
        }
      ],
      "name": "royaltyInfo",
      "outputs": [
        {
          "internalType": "address",
          "name": "",
          "type": "address"
        },
        {
          "internalType": "uint256",
          "name": "",
          "type": "uint256"
        }
      ],
      "stateMutability": "view",
      "type": "function"
    },
    {
      "inputs": [
        {
          "internalType": "address",
          "name": "from",
          "type": "address"
        },
        {
          "internalType": "address",
          "name": "to",
          "type": "address"
        },
        {
          "internalType": "uint256",
          "name": "tokenId",
          "type": "uint256"
        }
      ],
      "name": "safeTransferFrom",
      "outputs": [],
      "stateMutability": "nonpayable",
      "type": "function"
    },
    {
      "inputs": [
        {
          "internalType": "address",
          "name": "from",
          "type": "address"
        },
        {
          "internalType": "address",
          "name": "to",
          "type": "address"
        },
        {
          "internalType": "uint256",
          "name": "tokenId",
          "type": "uint256"
        },
        {
          "internalType": "bytes",
          "name": "data",
          "type": "bytes"
        }
      ],
      "name": "safeTransferFrom",
      "outputs": [],
      "stateMutability": "nonpayable",
      "type": "function"
    },
    {
      "inputs": [
        {
          "internalType": "address",
          "name": "operator",
          "type": "address"
        },
        {
          "internalType": "bool",
          "name": "approved",
          "type": "bool"
        }
      ],
      "name": "setApprovalForAll",
      "outputs": [],
      "stateMutability": "nonpayable",
      "type": "function"
    },
    {
      "inputs": [
        {
          "internalType": "bytes4",
          "name": "interfaceId",
          "type": "bytes4"
        }
      ],
      "name": "supportsInterface",
      "outputs": [
        {
          "internalType": "bool",
          "name": "",
          "type": "bool"
        }
      ],
      "stateMutability": "view",
      "type": "function"
    },
    {
      "inputs": [],
      "name": "symbol",
      "outputs": [
        {
          "internalType": "string",
          "name": "",
          "type": "string"
        }
      ],
      "stateMutability": "view",
      "type": "function"
    },
    {
      "inputs": [
        {
          "internalType": "uint256",
          "name": "tokenId",
          "type": "uint256"
        }
      ],
      "name": "tokenURI",
      "outputs": [
        {
          "internalType": "string",
          "name": "",
          "type": "string"
        }
      ],
      "stateMutability": "view",
      "type": "function"
    },
    {
      "inputs": [
        {
          "internalType": "address",
          "name": "from",
          "type": "address"
        },
        {
          "internalType": "address",
          "name": "to",
          "type": "address"
        },
        {
          "internalType": "uint256",
          "name": "tokenId",
          "type": "uint256"
        }
      ],
      "name": "transferFrom",
      "outputs": [],
      "stateMutability": "nonpayable",
      "type": "function"
    },
    {
      "inputs": [],
      "name": "usdtAddress",
      "outputs": [
        {
          "internalType": "address",
          "name": "",
          "type": "address"
        }
      ],
      "stateMutability": "view",
      "type": "function"
    }
  ],
  "bytecode": "0x610140604052737169d38820dfd117c3fa1f22a697dba58d90ba06600b60006101000a81548173ffffffffffffffffffffffffffffffffffffffff021916908373ffffffffffffffffffffffffffffffffffffffff1602179055503480156200006757600080fd5b506040518060400160405280600581526020017f56616465650000000000000000000000000000000000000000000000000000008152506040518060400160405280600581526020017f56616465650000000000000000000000000000000000000000000000000000008152506040518060400160405280600581526020017f56414445450000000000000000000000000000000000000000000000000000008152506040518060400160405280600181526020017f310000000000000000000000000000000000000000000000000000000000000081525060008280519060200120905060008280519060200120905060007f8b73c3c69bb8fe3d512ecc4cf759cc79239f7b179b0ffacaa9a75d522b39400f90508260e081815250508161010081815250504660a08181525050620001a9818484620002aa60201b60201c565b608081815250503073ffffffffffffffffffffffffffffffffffffffff1660c08173ffffffffffffffffffffffffffffffffffffffff1660601b81525050806101208181525050505050505081600290805190602001906200020d92919062000461565b5080600390805190602001906200022692919062000461565b5050506001600a81905550620002637fe2f4eaae4a9751e85a3e4a7b9587827a877f29914755229b07a7b2da98285f7033620002e660201b60201c565b33600c60006101000a81548173ffffffffffffffffffffffffffffffffffffffff021916908373ffffffffffffffffffffffffffffffffffffffff1602179055506200064e565b60008383834630604051602001620002c795949392919062000544565b6040516020818303038152906040528051906020012090509392505050565b620002f88282620002fc60201b60201c565b5050565b6200030e8282620003ee60201b60201c565b620003ea5760016009600084815260200190815260200160002060000160008373ffffffffffffffffffffffffffffffffffffffff1673ffffffffffffffffffffffffffffffffffffffff16815260200190815260200160002060006101000a81548160ff0219169083151502179055506200038f6200045960201b60201c565b73ffffffffffffffffffffffffffffffffffffffff168173ffffffffffffffffffffffffffffffffffffffff16837f2f8788117e7eff1d82e926ec794901d17c78024a50270940304540a733656f0d60405160405180910390a45b5050565b60006009600084815260200190815260200160002060000160008373ffffffffffffffffffffffffffffffffffffffff1673ffffffffffffffffffffffffffffffffffffffff16815260200190815260200160002060009054906101000a900460ff16905092915050565b600033905090565b8280546200046f90620005e9565b90600052602060002090601f016020900481019282620004935760008555620004df565b82601f10620004ae57805160ff1916838001178555620004df565b82800160010185558215620004df579182015b82811115620004de578251825591602001919060010190620004c1565b5b509050620004ee9190620004f2565b5090565b5b808211156200050d576000816000905550600101620004f3565b5090565b6200051c81620005a1565b82525050565b6200052d81620005b5565b82525050565b6200053e81620005df565b82525050565b600060a0820190506200055b600083018862000522565b6200056a602083018762000522565b62000579604083018662000522565b62000588606083018562000533565b62000597608083018462000511565b9695505050505050565b6000620005ae82620005bf565b9050919050565b6000819050919050565b600073ffffffffffffffffffffffffffffffffffffffff82169050919050565b6000819050919050565b600060028204905060018216806200060257607f821691505b602082108114156200061957620006186200061f565b5b50919050565b7f4e487b7100000000000000000000000000000000000000000000000000000000600052602260045260246000fd5b60805160a05160c05160601c60e0516101005161012051615097620006a16000396000613373015260006133b501526000613394015260006132c90152600061331f0152600061334801526150976000f3fe60806040526004361061014b5760003560e01c806370a08231116100b6578063a22cb4651161006f578063a22cb465146104cb578063b88d4fde146104f4578063c87b56dd1461051d578063d449ce331461055a578063d547741f14610576578063e985e9c51461059f5761014b565b806370a08231146103a557806391d14854146103e257806395d89b411461041f5780639ab4a4451461044a578063a1ebf35d14610475578063a217fddf146104a05761014b565b80632a55205a116101085780632a55205a146102845780632f2ff15d146102c257806336568abe146102eb57806342842e0e14610314578063564b81ef1461033d5780636352211e146103685761014b565b806301ffc9a71461015057806306fdde031461018d578063081812fc146101b8578063095ea7b3146101f557806323b872dd1461021e578063248a9ca314610247575b600080fd5b34801561015c57600080fd5b5061017760048036038101906101729190613987565b6105dc565b60405161018491906140d5565b60405180910390f35b34801561019957600080fd5b506101a261060e565b6040516101af919061424e565b60405180910390f35b3480156101c457600080fd5b506101df60048036038101906101da91906139d9565b6106a0565b6040516101ec9190613fd7565b60405180910390f35b34801561020157600080fd5b5061021c600480360381019061021791906138bd565b6106e6565b005b34801561022a57600080fd5b5061024560048036038101906102409190613763565b6107fe565b005b34801561025357600080fd5b5061026e60048036038101906102699190613922565b61085e565b60405161027b91906140f0565b60405180910390f35b34801561029057600080fd5b506102ab60048036038101906102a69190613a02565b61087e565b6040516102b99291906140ac565b60405180910390f35b3480156102ce57600080fd5b506102e960048036038101906102e4919061394b565b610a69565b005b3480156102f757600080fd5b50610312600480360381019061030d919061394b565b610a8a565b005b34801561032057600080fd5b5061033b60048036038101906103369190613763565b610b0d565b005b34801561034957600080fd5b50610352610b2d565b60405161035f9190614510565b60405180910390f35b34801561037457600080fd5b5061038f600480360381019061038a91906139d9565b610b3a565b60405161039c9190613fd7565b60405180910390f35b3480156103b157600080fd5b506103cc60048036038101906103c791906136fe565b610bc1565b6040516103d99190614510565b60405180910390f35b3480156103ee57600080fd5b506104096004803603810190610404919061394b565b610c79565b60405161041691906140d5565b60405180910390f35b34801561042b57600080fd5b50610434610ce4565b604051610441919061424e565b60405180910390f35b34801561045657600080fd5b5061045f610d76565b60405161046c9190613fd7565b60405180910390f35b34801561048157600080fd5b5061048a610d9c565b60405161049791906140f0565b60405180910390f35b3480156104ac57600080fd5b506104b5610dc0565b6040516104c291906140f0565b60405180910390f35b3480156104d757600080fd5b506104f260048036038101906104ed919061382d565b610dc7565b005b34801561050057600080fd5b5061051b600480360381019061051691906137b2565b610ddd565b005b34801561052957600080fd5b50610544600480360381019061053f91906139d9565b610e3f565b604051610551919061424e565b60405180910390f35b610574600480360381019061056f9190613869565b610e51565b005b34801561058257600080fd5b5061059d6004803603810190610598919061394b565b6111d6565b005b3480156105ab57600080fd5b506105c660048036038101906105c19190613727565b6111f7565b6040516105d391906140d5565b60405180910390f35b60006105e78261128b565b806105f757506105f68261136d565b5b806106075750610606826113e7565b5b9050919050565b60606002805461061d906148f2565b80601f0160208091040260200160405190810160405280929190818152602001828054610649906148f2565b80156106965780601f1061066b57610100808354040283529160200191610696565b820191906000526020600020905b81548152906001019060200180831161067957829003601f168201915b5050505050905090565b60006106ab826113f9565b6006600083815260200190815260200160002060009054906101000a900473ffffffffffffffffffffffffffffffffffffffff169050919050565b60006106f182610b3a565b90508073ffffffffffffffffffffffffffffffffffffffff168373ffffffffffffffffffffffffffffffffffffffff161415610762576040517f08c379a000000000000000000000000000000000000000000000000000000000815260040161075990614450565b60405180910390fd5b8073ffffffffffffffffffffffffffffffffffffffff16610781611444565b73ffffffffffffffffffffffffffffffffffffffff1614806107b057506107af816107aa611444565b6111f7565b5b6107ef576040517f08c379a00000000000000000000000000000000000000000000000000000000081526004016107e690614470565b60405180910390fd5b6107f9838361144c565b505050565b61080f610809611444565b82611505565b61084e576040517f08c379a0000000000000000000000000000000000000000000000000000000008152600401610845906142b0565b60405180910390fd5b61085983838361159a565b505050565b600060096000838152602001908152602001600020600101549050919050565b6000806000600160008681526020019081526020016000206040518060400160405290816000820160009054906101000a900473ffffffffffffffffffffffffffffffffffffffff1673ffffffffffffffffffffffffffffffffffffffff1673ffffffffffffffffffffffffffffffffffffffff1681526020016000820160149054906101000a90046bffffffffffffffffffffffff166bffffffffffffffffffffffff166bffffffffffffffffffffffff16815250509050600073ffffffffffffffffffffffffffffffffffffffff16816000015173ffffffffffffffffffffffffffffffffffffffff161415610a145760006040518060400160405290816000820160009054906101000a900473ffffffffffffffffffffffffffffffffffffffff1673ffffffffffffffffffffffffffffffffffffffff1673ffffffffffffffffffffffffffffffffffffffff1681526020016000820160149054906101000a90046bffffffffffffffffffffffff166bffffffffffffffffffffffff166bffffffffffffffffffffffff168152505090505b6000610a1e611894565b6bffffffffffffffffffffffff1682602001516bffffffffffffffffffffffff1686610a4a919061471f565b610a5491906146ee565b90508160000151819350935050509250929050565b610a728261085e565b610a7b8161189e565b610a8583836118b2565b505050565b610a92611444565b73ffffffffffffffffffffffffffffffffffffffff168173ffffffffffffffffffffffffffffffffffffffff1614610aff576040517f08c379a0000000000000000000000000000000000000000000000000000000008152600401610af6906144f0565b60405180910390fd5b610b098282611993565b5050565b610b2883838360405180602001604052806000815250610ddd565b505050565b6000804690508091505090565b600080610b4683611a75565b9050600073ffffffffffffffffffffffffffffffffffffffff168173ffffffffffffffffffffffffffffffffffffffff161415610bb8576040517f08c379a0000000000000000000000000000000000000000000000000000000008152600401610baf90614430565b60405180910390fd5b80915050919050565b60008073ffffffffffffffffffffffffffffffffffffffff168273ffffffffffffffffffffffffffffffffffffffff161415610c32576040517f08c379a0000000000000000000000000000000000000000000000000000000008152600401610c29906143b0565b60405180910390fd5b600560008373ffffffffffffffffffffffffffffffffffffffff1673ffffffffffffffffffffffffffffffffffffffff168152602001908152602001600020549050919050565b60006009600084815260200190815260200160002060000160008373ffffffffffffffffffffffffffffffffffffffff1673ffffffffffffffffffffffffffffffffffffffff16815260200190815260200160002060009054906101000a900460ff16905092915050565b606060038054610cf3906148f2565b80601f0160208091040260200160405190810160405280929190818152602001828054610d1f906148f2565b8015610d6c5780601f10610d4157610100808354040283529160200191610d6c565b820191906000526020600020905b815481529060010190602001808311610d4f57829003601f168201915b5050505050905090565b600b60009054906101000a900473ffffffffffffffffffffffffffffffffffffffff1681565b7fe2f4eaae4a9751e85a3e4a7b9587827a877f29914755229b07a7b2da98285f7081565b6000801b81565b610dd9610dd2611444565b8383611ab2565b5050565b610dee610de8611444565b83611505565b610e2d576040517f08c379a0000000000000000000000000000000000000000000000000000000008152600401610e24906142b0565b60405180910390fd5b610e3984848484611c1f565b50505050565b6060610e4a82611c7b565b9050919050565b610e59611d8e565b6000610e6482611dde565b9050610e907fe2f4eaae4a9751e85a3e4a7b9587827a877f29914755229b07a7b2da98285f7082610c79565b610ecf576040517f08c379a0000000000000000000000000000000000000000000000000000000008152600401610ec690614410565b60405180910390fd5b6000600b60009054906101000a900473ffffffffffffffffffffffffffffffffffffffff16905060003490506000606485610100016020810190610f139190613a3e565b6bffffffffffffffffffffffff1683610f2c919061471f565b610f3691906146ee565b90508273ffffffffffffffffffffffffffffffffffffffff166323b872dd33600c60009054906101000a900473ffffffffffffffffffffffffffffffffffffffff16846040518463ffffffff1660e01b8152600401610f9793929190613ff2565b602060405180830381600087803b158015610fb157600080fd5b505af1158015610fc5573d6000803e3d6000fd5b505050506040513d601f19601f82011682018060405250810190610fe991906138f9565b508273ffffffffffffffffffffffffffffffffffffffff166323b872dd3387602001602081019061101a91906136fe565b84866110269190614779565b6040518463ffffffff1660e01b815260040161104493929190614029565b602060405180830381600087803b15801561105e57600080fd5b505af1158015611072573d6000803e3d6000fd5b505050506040513d601f19601f8201168201806040525081019061109691906138f9565b506110b78560200160208101906110ad91906136fe565b8660400135611e51565b6111178560400135868060c001906110cf919061459d565b8080601f016020809104026020016040519081016040528093929190818152602001838380828437600081840152601f19601f82011690508083019250505050505050611e6f565b61114b856040013586602001602081019061113291906136fe565b876101200160208101906111469190613a3e565b611ee3565b61116c85602001602081019061116191906136fe565b87876040013561159a565b846040013585602001602081019061118491906136fe565b73ffffffffffffffffffffffffffffffffffffffff167feb6589e365532f57cded1cbd1976724f4c9f127c6de9c84839dbfa93bc72077960405160405180910390a3505050506111d261208b565b5050565b6111df8261085e565b6111e88161189e565b6111f28383611993565b505050565b6000600760008473ffffffffffffffffffffffffffffffffffffffff1673ffffffffffffffffffffffffffffffffffffffff16815260200190815260200160002060008373ffffffffffffffffffffffffffffffffffffffff1673ffffffffffffffffffffffffffffffffffffffff16815260200190815260200160002060009054906101000a900460ff16905092915050565b60007f80ac58cd000000000000000000000000000000000000000000000000000000007bffffffffffffffffffffffffffffffffffffffffffffffffffffffff1916827bffffffffffffffffffffffffffffffffffffffffffffffffffffffff1916148061135657507f5b5e139f000000000000000000000000000000000000000000000000000000007bffffffffffffffffffffffffffffffffffffffffffffffffffffffff1916827bffffffffffffffffffffffffffffffffffffffffffffffffffffffff1916145b80611366575061136582612095565b5b9050919050565b60007f7965db0b000000000000000000000000000000000000000000000000000000007bffffffffffffffffffffffffffffffffffffffffffffffffffffffff1916827bffffffffffffffffffffffffffffffffffffffffffffffffffffffff191614806113e057506113df826113e7565b5b9050919050565b60006113f28261128b565b9050919050565b6114028161210f565b611441576040517f08c379a000000000000000000000000000000000000000000000000000000000815260040161143890614430565b60405180910390fd5b50565b600033905090565b816006600083815260200190815260200160002060006101000a81548173ffffffffffffffffffffffffffffffffffffffff021916908373ffffffffffffffffffffffffffffffffffffffff160217905550808273ffffffffffffffffffffffffffffffffffffffff166114bf83610b3a565b73ffffffffffffffffffffffffffffffffffffffff167f8c5be1e5ebec7d5bd14f71427d1e84f3dd0314c0f7b2291e5b200ac8c7c3b92560405160405180910390a45050565b60008061151183610b3a565b90508073ffffffffffffffffffffffffffffffffffffffff168473ffffffffffffffffffffffffffffffffffffffff161480611553575061155281856111f7565b5b8061159157508373ffffffffffffffffffffffffffffffffffffffff16611579846106a0565b73ffffffffffffffffffffffffffffffffffffffff16145b91505092915050565b8273ffffffffffffffffffffffffffffffffffffffff166115ba82610b3a565b73ffffffffffffffffffffffffffffffffffffffff1614611610576040517f08c379a000000000000000000000000000000000000000000000000000000000815260040161160790614310565b60405180910390fd5b600073ffffffffffffffffffffffffffffffffffffffff168273ffffffffffffffffffffffffffffffffffffffff161415611680576040517f08c379a000000000000000000000000000000000000000000000000000000000815260040161167790614350565b60405180910390fd5b61168d8383836001612150565b8273ffffffffffffffffffffffffffffffffffffffff166116ad82610b3a565b73ffffffffffffffffffffffffffffffffffffffff1614611703576040517f08c379a00000000000000000000000000000000000000000000000000000000081526004016116fa90614310565b60405180910390fd5b6006600082815260200190815260200160002060006101000a81549073ffffffffffffffffffffffffffffffffffffffff02191690556001600560008573ffffffffffffffffffffffffffffffffffffffff1673ffffffffffffffffffffffffffffffffffffffff168152602001908152602001600020600082825403925050819055506001600560008473ffffffffffffffffffffffffffffffffffffffff1673ffffffffffffffffffffffffffffffffffffffff16815260200190815260200160002060008282540192505081905550816004600083815260200190815260200160002060006101000a81548173ffffffffffffffffffffffffffffffffffffffff021916908373ffffffffffffffffffffffffffffffffffffffff160217905550808273ffffffffffffffffffffffffffffffffffffffff168473ffffffffffffffffffffffffffffffffffffffff167fddf252ad1be2c89b69c2b068fc378daa952ba7f163c4a11628f55a4df523b3ef60405160405180910390a461188f8383836001612156565b505050565b6000612710905090565b6118af816118aa611444565b61215c565b50565b6118bc8282610c79565b61198f5760016009600084815260200190815260200160002060000160008373ffffffffffffffffffffffffffffffffffffffff1673ffffffffffffffffffffffffffffffffffffffff16815260200190815260200160002060006101000a81548160ff021916908315150217905550611934611444565b73ffffffffffffffffffffffffffffffffffffffff168173ffffffffffffffffffffffffffffffffffffffff16837f2f8788117e7eff1d82e926ec794901d17c78024a50270940304540a733656f0d60405160405180910390a45b5050565b61199d8282610c79565b15611a715760006009600084815260200190815260200160002060000160008373ffffffffffffffffffffffffffffffffffffffff1673ffffffffffffffffffffffffffffffffffffffff16815260200190815260200160002060006101000a81548160ff021916908315150217905550611a16611444565b73ffffffffffffffffffffffffffffffffffffffff168173ffffffffffffffffffffffffffffffffffffffff16837ff6391f5c32d9c69d2a47ea670b442974b53935d1edc7fd64eb21e047a839171b60405160405180910390a45b5050565b60006004600083815260200190815260200160002060009054906101000a900473ffffffffffffffffffffffffffffffffffffffff169050919050565b8173ffffffffffffffffffffffffffffffffffffffff168373ffffffffffffffffffffffffffffffffffffffff161415611b21576040517f08c379a0000000000000000000000000000000000000000000000000000000008152600401611b1890614370565b60405180910390fd5b80600760008573ffffffffffffffffffffffffffffffffffffffff1673ffffffffffffffffffffffffffffffffffffffff16815260200190815260200160002060008473ffffffffffffffffffffffffffffffffffffffff1673ffffffffffffffffffffffffffffffffffffffff16815260200190815260200160002060006101000a81548160ff0219169083151502179055508173ffffffffffffffffffffffffffffffffffffffff168373ffffffffffffffffffffffffffffffffffffffff167f17307eab39ab6107e8899845ad3d59bd9653f200f220920489ca2b5937696c3183604051611c1291906140d5565b60405180910390a3505050565b611c2a84848461159a565b611c36848484846121e1565b611c75576040517f08c379a0000000000000000000000000000000000000000000000000000000008152600401611c6c906142f0565b60405180910390fd5b50505050565b6060611c86826113f9565b6000600860008481526020019081526020016000208054611ca6906148f2565b80601f0160208091040260200160405190810160405280929190818152602001828054611cd2906148f2565b8015611d1f5780601f10611cf457610100808354040283529160200191611d1f565b820191906000526020600020905b815481529060010190602001808311611d0257829003601f168201915b505050505090506000611d30612378565b9050600081511415611d46578192505050611d89565b600082511115611d7b578082604051602001611d63929190613f42565b60405160208183030381529060405292505050611d89565b611d848461238f565b925050505b919050565b6002600a541415611dd4576040517f08c379a0000000000000000000000000000000000000000000000000000000008152600401611dcb906144d0565b60405180910390fd5b6002600a81905550565b600080611dea836123f7565b9050611e498184806101400190611e019190614546565b8080601f016020809104026020016040519081016040528093929190818152602001838380828437600081840152601f19601f820116905080830192505050505050506125dd565b915050919050565b611e6b828260405180602001604052806000815250612604565b5050565b611e788261210f565b611eb7576040517f08c379a0000000000000000000000000000000000000000000000000000000008152600401611eae906143d0565b60405180910390fd5b80600860008481526020019081526020016000209080519060200190611ede92919061352f565b505050565b611eeb611894565b6bffffffffffffffffffffffff16816bffffffffffffffffffffffff161115611f49576040517f08c379a0000000000000000000000000000000000000000000000000000000008152600401611f40906144b0565b60405180910390fd5b600073ffffffffffffffffffffffffffffffffffffffff168273ffffffffffffffffffffffffffffffffffffffff161415611fb9576040517f08c379a0000000000000000000000000000000000000000000000000000000008152600401611fb090614490565b60405180910390fd5b60405180604001604052808373ffffffffffffffffffffffffffffffffffffffff168152602001826bffffffffffffffffffffffff168152506001600085815260200190815260200160002060008201518160000160006101000a81548173ffffffffffffffffffffffffffffffffffffffff021916908373ffffffffffffffffffffffffffffffffffffffff16021790555060208201518160000160146101000a8154816bffffffffffffffffffffffff02191690836bffffffffffffffffffffffff160217905550905050505050565b6001600a81905550565b60007f2a55205a000000000000000000000000000000000000000000000000000000007bffffffffffffffffffffffffffffffffffffffffffffffffffffffff1916827bffffffffffffffffffffffffffffffffffffffffffffffffffffffff1916148061210857506121078261265f565b5b9050919050565b60008073ffffffffffffffffffffffffffffffffffffffff1661213183611a75565b73ffffffffffffffffffffffffffffffffffffffff1614159050919050565b50505050565b50505050565b6121668282610c79565b6121dd57612173816126c9565b6121818360001c60206126f6565b604051602001612192929190613f9d565b6040516020818303038152906040526040517f08c379a00000000000000000000000000000000000000000000000000000000081526004016121d4919061424e565b60405180910390fd5b5050565b60006122028473ffffffffffffffffffffffffffffffffffffffff166129f0565b1561236b578373ffffffffffffffffffffffffffffffffffffffff1663150b7a0261222b611444565b8786866040518563ffffffff1660e01b815260040161224d9493929190614060565b602060405180830381600087803b15801561226757600080fd5b505af192505050801561229857506040513d601f19601f8201168201806040525081019061229591906139b0565b60015b61231b573d80600081146122c8576040519150601f19603f3d011682016040523d82523d6000602084013e6122cd565b606091505b50600081511415612313576040517f08c379a000000000000000000000000000000000000000000000000000000000815260040161230a906142f0565b60405180910390fd5b805181602001fd5b63150b7a0260e01b7bffffffffffffffffffffffffffffffffffffffffffffffffffffffff1916817bffffffffffffffffffffffffffffffffffffffffffffffffffffffff191614915050612370565b600190505b949350505050565b606060405180602001604052806000815250905090565b606061239a826113f9565b60006123a4612378565b905060008151116123c457604051806020016040528060008152506123ef565b806123ce84612a13565b6040516020016123df929190613f42565b6040516020818303038152906040525b915050919050565b60006125d67f3eb1943793ffb214a4e5bb5413a36241bfdc94d4c597c9b8a5aad5ead035b51f83806000019061242d919061459d565b60405161243b929190613f29565b604051809103902061245e85602001602081019061245991906136fe565b612b37565b80519060200120856040013586806060019061247a919061459d565b604051612488929190613f29565b60405180910390208780608001906124a0919061459d565b6040516124ae929190613f29565b60405180910390208860a001356040516020016124cb9190614510565b60405160208183030381529060405280519060200120898060c001906124f1919061459d565b6040516124ff929190613f29565b60405180910390208a8060e00190612517919061459d565b604051612525929190613f29565b60405180910390208b6101000160208101906125419190613a3e565b604051602001612551919061452b565b604051602081830303815290604052805190602001208c61012001602081019061257b9190613a3e565b60405160200161258b919061452b565b604051602081830303815290604052805190602001206040516020016125bb9b9a9998979695949392919061415e565b60405160208183030381529060405280519060200120612b66565b9050919050565b60008060006125ec8585612b80565b915091506125f981612bd2565b819250505092915050565b61260e8383612e70565b61261b60008484846121e1565b61265a576040517f08c379a0000000000000000000000000000000000000000000000000000000008152600401612651906142f0565b60405180910390fd5b505050565b60007f01ffc9a7000000000000000000000000000000000000000000000000000000007bffffffffffffffffffffffffffffffffffffffffffffffffffffffff1916827bffffffffffffffffffffffffffffffffffffffffffffffffffffffff1916149050919050565b60606126ef8273ffffffffffffffffffffffffffffffffffffffff16601460ff166126f6565b9050919050565b606060006002836002612709919061471f565b6127139190614698565b67ffffffffffffffff811115612752577f4e487b7100000000000000000000000000000000000000000000000000000000600052604160045260246000fd5b6040519080825280601f01601f1916602001820160405280156127845781602001600182028036833780820191505090505b5090507f3000000000000000000000000000000000000000000000000000000000000000816000815181106127e2577f4e487b7100000000000000000000000000000000000000000000000000000000600052603260045260246000fd5b60200101907effffffffffffffffffffffffffffffffffffffffffffffffffffffffffffff1916908160001a9053507f78000000000000000000000000000000000000000000000000000000000000008160018151811061286c577f4e487b7100000000000000000000000000000000000000000000000000000000600052603260045260246000fd5b60200101907effffffffffffffffffffffffffffffffffffffffffffffffffffffffffffff1916908160001a905350600060018460026128ac919061471f565b6128b69190614698565b90505b60018111156129a2577f3031323334353637383961626364656600000000000000000000000000000000600f86166010811061291e577f4e487b7100000000000000000000000000000000000000000000000000000000600052603260045260246000fd5b1a60f81b82828151811061295b577f4e487b7100000000000000000000000000000000000000000000000000000000600052603260045260246000fd5b60200101907effffffffffffffffffffffffffffffffffffffffffffffffffffffffffffff1916908160001a905350600485901c94508061299b906148c8565b90506128b9565b50600084146129e6576040517f08c379a00000000000000000000000000000000000000000000000000000000081526004016129dd90614290565b60405180910390fd5b8091505092915050565b6000808273ffffffffffffffffffffffffffffffffffffffff163b119050919050565b606060006001612a228461308e565b01905060008167ffffffffffffffff811115612a67577f4e487b7100000000000000000000000000000000000000000000000000000000600052604160045260246000fd5b6040519080825280601f01601f191660200182016040528015612a995781602001600182028036833780820191505090505b509050600082602001820190505b600115612b2c578080600190039150507f3031323334353637383961626364656600000000000000000000000000000000600a86061a8153600a8581612b16577f4e487b7100000000000000000000000000000000000000000000000000000000600052601260045260246000fd5b0494506000851415612b2757612b2c565b612aa7565b819350505050919050565b6060600082604051602001612b4c9190613f0e565b604051602081830303815290604052905080915050919050565b6000612b79612b736132c5565b836133df565b9050919050565b600080604183511415612bc25760008060006020860151925060408601519150606086015160001a9050612bb687828585613412565b94509450505050612bcb565b60006002915091505b9250929050565b60006004811115612c0c577f4e487b7100000000000000000000000000000000000000000000000000000000600052602160045260246000fd5b816004811115612c45577f4e487b7100000000000000000000000000000000000000000000000000000000600052602160045260246000fd5b1415612c5057612e6d565b60016004811115612c8a577f4e487b7100000000000000000000000000000000000000000000000000000000600052602160045260246000fd5b816004811115612cc3577f4e487b7100000000000000000000000000000000000000000000000000000000600052602160045260246000fd5b1415612d04576040517f08c379a0000000000000000000000000000000000000000000000000000000008152600401612cfb90614270565b60405180910390fd5b60026004811115612d3e577f4e487b7100000000000000000000000000000000000000000000000000000000600052602160045260246000fd5b816004811115612d77577f4e487b7100000000000000000000000000000000000000000000000000000000600052602160045260246000fd5b1415612db8576040517f08c379a0000000000000000000000000000000000000000000000000000000008152600401612daf906142d0565b60405180910390fd5b60036004811115612df2577f4e487b7100000000000000000000000000000000000000000000000000000000600052602160045260246000fd5b816004811115612e2b577f4e487b7100000000000000000000000000000000000000000000000000000000600052602160045260246000fd5b1415612e6c576040517f08c379a0000000000000000000000000000000000000000000000000000000008152600401612e6390614390565b60405180910390fd5b5b50565b600073ffffffffffffffffffffffffffffffffffffffff168273ffffffffffffffffffffffffffffffffffffffff161415612ee0576040517f08c379a0000000000000000000000000000000000000000000000000000000008152600401612ed7906143f0565b60405180910390fd5b612ee98161210f565b15612f29576040517f08c379a0000000000000000000000000000000000000000000000000000000008152600401612f2090614330565b60405180910390fd5b612f37600083836001612150565b612f408161210f565b15612f80576040517f08c379a0000000000000000000000000000000000000000000000000000000008152600401612f7790614330565b60405180910390fd5b6001600560008473ffffffffffffffffffffffffffffffffffffffff1673ffffffffffffffffffffffffffffffffffffffff16815260200190815260200160002060008282540192505081905550816004600083815260200190815260200160002060006101000a81548173ffffffffffffffffffffffffffffffffffffffff021916908373ffffffffffffffffffffffffffffffffffffffff160217905550808273ffffffffffffffffffffffffffffffffffffffff16600073ffffffffffffffffffffffffffffffffffffffff167fddf252ad1be2c89b69c2b068fc378daa952ba7f163c4a11628f55a4df523b3ef60405160405180910390a461308a600083836001612156565b5050565b600080600090507a184f03e93ff9f4daa797ed6e38ed64bf6a1f0100000000000000008310613112577a184f03e93ff9f4daa797ed6e38ed64bf6a1f0100000000000000008381613108577f4e487b7100000000000000000000000000000000000000000000000000000000600052601260045260246000fd5b0492506040810190505b6d04ee2d6d415b85acef81000000008310613175576d04ee2d6d415b85acef8100000000838161316b577f4e487b7100000000000000000000000000000000000000000000000000000000600052601260045260246000fd5b0492506020810190505b662386f26fc1000083106131ca57662386f26fc1000083816131c0577f4e487b7100000000000000000000000000000000000000000000000000000000600052601260045260246000fd5b0492506010810190505b6305f5e1008310613219576305f5e100838161320f577f4e487b7100000000000000000000000000000000000000000000000000000000600052601260045260246000fd5b0492506008810190505b612710831061326457612710838161325a577f4e487b7100000000000000000000000000000000000000000000000000000000600052601260045260246000fd5b0492506004810190505b606483106132ad57606483816132a3577f4e487b7100000000000000000000000000000000000000000000000000000000600052601260045260246000fd5b0492506002810190505b600a83106132bc576001810190505b80915050919050565b60007f000000000000000000000000000000000000000000000000000000000000000073ffffffffffffffffffffffffffffffffffffffff163073ffffffffffffffffffffffffffffffffffffffff1614801561334157507f000000000000000000000000000000000000000000000000000000000000000046145b1561336e577f000000000000000000000000000000000000000000000000000000000000000090506133dc565b6133d97f00000000000000000000000000000000000000000000000000000000000000007f00000000000000000000000000000000000000000000000000000000000000007f00000000000000000000000000000000000000000000000000000000000000006134f5565b90505b90565b600082826040516020016133f4929190613f66565b60405160208183030381529060405280519060200120905092915050565b6000807f7fffffffffffffffffffffffffffffff5d576e7357a4501ddfe92f46681b20a08360001c111561344d5760006003915091506134ec565b6000600187878787604051600081526020016040526040516134729493929190614209565b6020604051602081039080840390855afa158015613494573d6000803e3d6000fd5b505050602060405103519050600073ffffffffffffffffffffffffffffffffffffffff168173ffffffffffffffffffffffffffffffffffffffff1614156134e3576000600192509250506134ec565b80600092509250505b94509492505050565b6000838383463060405160200161351095949392919061410b565b6040516020818303038152906040528051906020012090509392505050565b82805461353b906148f2565b90600052602060002090601f01602090048101928261355d57600085556135a4565b82601f1061357657805160ff19168380011785556135a4565b828001600101855582156135a4579182015b828111156135a3578251825591602001919060010190613588565b5b5090506135b191906135b5565b5090565b5b808211156135ce5760008160009055506001016135b6565b5090565b60006135e56135e084614619565b6145f4565b9050828152602081018484840111156135fd57600080fd5b613608848285614886565b509392505050565b60008135905061361f81614fd7565b92915050565b60008135905061363481614fee565b92915050565b60008151905061364981614fee565b92915050565b60008135905061365e81615005565b92915050565b6000813590506136738161501c565b92915050565b6000815190506136888161501c565b92915050565b600082601f83011261369f57600080fd5b81356136af8482602086016135d2565b91505092915050565b600061016082840312156136cb57600080fd5b81905092915050565b6000813590506136e381615033565b92915050565b6000813590506136f88161504a565b92915050565b60006020828403121561371057600080fd5b600061371e84828501613610565b91505092915050565b6000806040838503121561373a57600080fd5b600061374885828601613610565b925050602061375985828601613610565b9150509250929050565b60008060006060848603121561377857600080fd5b600061378686828701613610565b935050602061379786828701613610565b92505060406137a8868287016136d4565b9150509250925092565b600080600080608085870312156137c857600080fd5b60006137d687828801613610565b94505060206137e787828801613610565b93505060406137f8878288016136d4565b925050606085013567ffffffffffffffff81111561381557600080fd5b6138218782880161368e565b91505092959194509250565b6000806040838503121561384057600080fd5b600061384e85828601613610565b925050602061385f85828601613625565b9150509250929050565b6000806040838503121561387c57600080fd5b600061388a85828601613610565b925050602083013567ffffffffffffffff8111156138a757600080fd5b6138b3858286016136b8565b9150509250929050565b600080604083850312156138d057600080fd5b60006138de85828601613610565b92505060206138ef858286016136d4565b9150509250929050565b60006020828403121561390b57600080fd5b60006139198482850161363a565b91505092915050565b60006020828403121561393457600080fd5b60006139428482850161364f565b91505092915050565b6000806040838503121561395e57600080fd5b600061396c8582860161364f565b925050602061397d85828601613610565b9150509250929050565b60006020828403121561399957600080fd5b60006139a784828501613664565b91505092915050565b6000602082840312156139c257600080fd5b60006139d084828501613679565b91505092915050565b6000602082840312156139eb57600080fd5b60006139f9848285016136d4565b91505092915050565b60008060408385031215613a1557600080fd5b6000613a23858286016136d4565b9250506020613a34858286016136d4565b9150509250929050565b600060208284031215613a5057600080fd5b6000613a5e848285016136e9565b91505092915050565b613a7081614850565b82525050565b613a7f816147ad565b82525050565b613a96613a91826147ad565b614955565b82525050565b613aa5816147bf565b82525050565b613ab4816147cb565b82525050565b613acb613ac6826147cb565b614967565b82525050565b6000613add8385614671565b9350613aea838584614886565b82840190509392505050565b6000613b018261464a565b613b0b8185614660565b9350613b1b818560208601614895565b613b2481614a3f565b840191505092915050565b6000613b3a82614655565b613b44818561467c565b9350613b54818560208601614895565b613b5d81614a3f565b840191505092915050565b6000613b7382614655565b613b7d818561468d565b9350613b8d818560208601614895565b80840191505092915050565b6000613ba660188361467c565b9150613bb182614a5d565b602082019050919050565b6000613bc960208361467c565b9150613bd482614a86565b602082019050919050565b6000613bec602d8361467c565b9150613bf782614aaf565b604082019050919050565b6000613c0f601f8361467c565b9150613c1a82614afe565b602082019050919050565b6000613c3260328361467c565b9150613c3d82614b27565b604082019050919050565b6000613c5560258361467c565b9150613c6082614b76565b604082019050919050565b6000613c78601c8361467c565b9150613c8382614bc5565b602082019050919050565b6000613c9b60028361468d565b9150613ca682614bee565b600282019050919050565b6000613cbe60248361467c565b9150613cc982614c17565b604082019050919050565b6000613ce160198361467c565b9150613cec82614c66565b602082019050919050565b6000613d0460228361467c565b9150613d0f82614c8f565b604082019050919050565b6000613d2760298361467c565b9150613d3282614cde565b604082019050919050565b6000613d4a602e8361467c565b9150613d5582614d2d565b604082019050919050565b6000613d6d60208361467c565b9150613d7882614d7c565b602082019050919050565b6000613d9060118361467c565b9150613d9b82614da5565b602082019050919050565b6000613db360188361467c565b9150613dbe82614dce565b602082019050919050565b6000613dd660218361467c565b9150613de182614df7565b604082019050919050565b6000613df9603d8361467c565b9150613e0482614e46565b604082019050919050565b6000613e1c601b8361467c565b9150613e2782614e95565b602082019050919050565b6000613e3f60178361468d565b9150613e4a82614ebe565b601782019050919050565b6000613e62602a8361467c565b9150613e6d82614ee7565b604082019050919050565b6000613e85601f8361467c565b9150613e9082614f36565b602082019050919050565b6000613ea860118361468d565b9150613eb382614f5f565b601182019050919050565b6000613ecb602f8361467c565b9150613ed682614f88565b604082019050919050565b613eea81614821565b82525050565b613ef98161482b565b82525050565b613f0881614838565b82525050565b6000613f1a8284613a85565b60148201915081905092915050565b6000613f36828486613ad1565b91508190509392505050565b6000613f4e8285613b68565b9150613f5a8284613b68565b91508190509392505050565b6000613f7182613c8e565b9150613f7d8285613aba565b602082019150613f8d8284613aba565b6020820191508190509392505050565b6000613fa882613e32565b9150613fb48285613b68565b9150613fbf82613e9b565b9150613fcb8284613b68565b91508190509392505050565b6000602082019050613fec6000830184613a76565b92915050565b60006060820190506140076000830186613a76565b6140146020830185613a67565b6140216040830184613ee1565b949350505050565b600060608201905061403e6000830186613a76565b61404b6020830185613a76565b6140586040830184613ee1565b949350505050565b60006080820190506140756000830187613a76565b6140826020830186613a76565b61408f6040830185613ee1565b81810360608301526140a18184613af6565b905095945050505050565b60006040820190506140c16000830185613a76565b6140ce6020830184613ee1565b9392505050565b60006020820190506140ea6000830184613a9c565b92915050565b60006020820190506141056000830184613aab565b92915050565b600060a0820190506141206000830188613aab565b61412d6020830187613aab565b61413a6040830186613aab565b6141476060830185613ee1565b6141546080830184613a76565b9695505050505050565b600061016082019050614174600083018e613aab565b614181602083018d613aab565b61418e604083018c613aab565b61419b606083018b613ee1565b6141a8608083018a613aab565b6141b560a0830189613aab565b6141c260c0830188613aab565b6141cf60e0830187613aab565b6141dd610100830186613aab565b6141eb610120830185613aab565b6141f9610140830184613aab565b9c9b505050505050505050505050565b600060808201905061421e6000830187613aab565b61422b6020830186613ef0565b6142386040830185613aab565b6142456060830184613aab565b95945050505050565b600060208201905081810360008301526142688184613b2f565b905092915050565b6000602082019050818103600083015261428981613b99565b9050919050565b600060208201905081810360008301526142a981613bbc565b9050919050565b600060208201905081810360008301526142c981613bdf565b9050919050565b600060208201905081810360008301526142e981613c02565b9050919050565b6000602082019050818103600083015261430981613c25565b9050919050565b6000602082019050818103600083015261432981613c48565b9050919050565b6000602082019050818103600083015261434981613c6b565b9050919050565b6000602082019050818103600083015261436981613cb1565b9050919050565b6000602082019050818103600083015261438981613cd4565b9050919050565b600060208201905081810360008301526143a981613cf7565b9050919050565b600060208201905081810360008301526143c981613d1a565b9050919050565b600060208201905081810360008301526143e981613d3d565b9050919050565b6000602082019050818103600083015261440981613d60565b9050919050565b6000602082019050818103600083015261442981613d83565b9050919050565b6000602082019050818103600083015261444981613da6565b9050919050565b6000602082019050818103600083015261446981613dc9565b9050919050565b6000602082019050818103600083015261448981613dec565b9050919050565b600060208201905081810360008301526144a981613e0f565b9050919050565b600060208201905081810360008301526144c981613e55565b9050919050565b600060208201905081810360008301526144e981613e78565b9050919050565b6000602082019050818103600083015261450981613ebe565b9050919050565b60006020820190506145256000830184613ee1565b92915050565b60006020820190506145406000830184613eff565b92915050565b6000808335600160200384360303811261455f57600080fd5b80840192508235915067ffffffffffffffff82111561457d57600080fd5b60208301925060018202360383131561459557600080fd5b509250929050565b600080833560016020038436030381126145b657600080fd5b80840192508235915067ffffffffffffffff8211156145d457600080fd5b6020830192506001820236038313156145ec57600080fd5b509250929050565b60006145fe61460f565b905061460a8282614924565b919050565b6000604051905090565b600067ffffffffffffffff82111561463457614633614a10565b5b61463d82614a3f565b9050602081019050919050565b600081519050919050565b600081519050919050565b600082825260208201905092915050565b600081905092915050565b600082825260208201905092915050565b600081905092915050565b60006146a382614821565b91506146ae83614821565b9250827fffffffffffffffffffffffffffffffffffffffffffffffffffffffffffffffff038211156146e3576146e2614983565b5b828201905092915050565b60006146f982614821565b915061470483614821565b925082614714576147136149b2565b5b828204905092915050565b600061472a82614821565b915061473583614821565b9250817fffffffffffffffffffffffffffffffffffffffffffffffffffffffffffffffff048311821515161561476e5761476d614983565b5b828202905092915050565b600061478482614821565b915061478f83614821565b9250828210156147a2576147a1614983565b5b828203905092915050565b60006147b882614801565b9050919050565b60008115159050919050565b6000819050919050565b60007fffffffff0000000000000000000000000000000000000000000000000000000082169050919050565b600073ffffffffffffffffffffffffffffffffffffffff82169050919050565b6000819050919050565b600060ff82169050919050565b60006bffffffffffffffffffffffff82169050919050565b600061485b82614862565b9050919050565b600061486d82614874565b9050919050565b600061487f82614801565b9050919050565b82818337600083830152505050565b60005b838110156148b3578082015181840152602081019050614898565b838111156148c2576000848401525b50505050565b60006148d382614821565b915060008214156148e7576148e6614983565b5b600182039050919050565b6000600282049050600182168061490a57607f821691505b6020821081141561491e5761491d6149e1565b5b50919050565b61492d82614a3f565b810181811067ffffffffffffffff8211171561494c5761494b614a10565b5b80604052505050565b600061496082614971565b9050919050565b6000819050919050565b600061497c82614a50565b9050919050565b7f4e487b7100000000000000000000000000000000000000000000000000000000600052601160045260246000fd5b7f4e487b7100000000000000000000000000000000000000000000000000000000600052601260045260246000fd5b7f4e487b7100000000000000000000000000000000000000000000000000000000600052602260045260246000fd5b7f4e487b7100000000000000000000000000000000000000000000000000000000600052604160045260246000fd5b6000601f19601f8301169050919050565b60008160601b9050919050565b7f45434453413a20696e76616c6964207369676e61747572650000000000000000600082015250565b7f537472696e67733a20686578206c656e67746820696e73756666696369656e74600082015250565b7f4552433732313a2063616c6c6572206973206e6f7420746f6b656e206f776e6560008201527f72206f7220617070726f76656400000000000000000000000000000000000000602082015250565b7f45434453413a20696e76616c6964207369676e6174757265206c656e67746800600082015250565b7f4552433732313a207472616e7366657220746f206e6f6e20455243373231526560008201527f63656976657220696d706c656d656e7465720000000000000000000000000000602082015250565b7f4552433732313a207472616e736665722066726f6d20696e636f72726563742060008201527f6f776e6572000000000000000000000000000000000000000000000000000000602082015250565b7f4552433732313a20746f6b656e20616c7265616479206d696e74656400000000600082015250565b7f1901000000000000000000000000000000000000000000000000000000000000600082015250565b7f4552433732313a207472616e7366657220746f20746865207a65726f2061646460008201527f7265737300000000000000000000000000000000000000000000000000000000602082015250565b7f4552433732313a20617070726f766520746f2063616c6c657200000000000000600082015250565b7f45434453413a20696e76616c6964207369676e6174757265202773272076616c60008201527f7565000000000000000000000000000000000000000000000000000000000000602082015250565b7f4552433732313a2061646472657373207a65726f206973206e6f74206120766160008201527f6c6964206f776e65720000000000000000000000000000000000000000000000602082015250565b7f45524337323155524953746f726167653a2055524920736574206f66206e6f6e60008201527f6578697374656e7420746f6b656e000000000000000000000000000000000000602082015250565b7f4552433732313a206d696e7420746f20746865207a65726f2061646472657373600082015250565b7f496e76616c6964205369676e6174757265000000000000000000000000000000600082015250565b7f4552433732313a20696e76616c696420746f6b656e2049440000000000000000600082015250565b7f4552433732313a20617070726f76616c20746f2063757272656e74206f776e6560008201527f7200000000000000000000000000000000000000000000000000000000000000602082015250565b7f4552433732313a20617070726f76652063616c6c6572206973206e6f7420746f60008201527f6b656e206f776e6572206f7220617070726f76656420666f7220616c6c000000602082015250565b7f455243323938313a20496e76616c696420706172616d65746572730000000000600082015250565b7f416363657373436f6e74726f6c3a206163636f756e7420000000000000000000600082015250565b7f455243323938313a20726f79616c7479206665652077696c6c2065786365656460008201527f2073616c65507269636500000000000000000000000000000000000000000000602082015250565b7f5265656e7472616e637947756172643a207265656e7472616e742063616c6c00600082015250565b7f206973206d697373696e6720726f6c6520000000000000000000000000000000600082015250565b7f416363657373436f6e74726f6c3a2063616e206f6e6c792072656e6f756e636560008201527f20726f6c657320666f722073656c660000000000000000000000000000000000602082015250565b614fe0816147ad565b8114614feb57600080fd5b50565b614ff7816147bf565b811461500257600080fd5b50565b61500e816147cb565b811461501957600080fd5b50565b615025816147d5565b811461503057600080fd5b50565b61503c81614821565b811461504757600080fd5b50565b61505381614838565b811461505e57600080fd5b5056fea2646970667358221220139d614389425dbf2bc37759254783d19cd89e2aeee1fa5dcc405f52fe87951d64736f6c63430008040033",
  "linkReferences": {},
  "deployedLinkReferences": {}
}