{
  "_format": "hh-sol-artifact-1",
  "contractName": "LazyFactory",
  "sourceName": "contracts/LazyFactory.sol",
  "abi": [
    {
      "inputs": [
        {
          "internalType": "address",
          "name": "_usdt",
          "type": "address"
        },
        {
          "internalType": "address payable",
          "name": "vadee",
          "type": "address"
        }
      ],
      "stateMutability": "nonpayable",
      "type": "constructor"
    },
    {
      "anonymous": false,
      "inputs": [
        {
          "indexed": true,
          "internalType": "address",
          "name": "owner",
          "type": "address"
        },
        {
          "indexed": true,
          "internalType": "address",
          "name": "approved",
          "type": "address"
        },
        {
          "indexed": true,
          "internalType": "uint256",
          "name": "tokenId",
          "type": "uint256"
        }
      ],
      "name": "Approval",
      "type": "event"
    },
    {
      "anonymous": false,
      "inputs": [
        {
          "indexed": true,
          "internalType": "address",
          "name": "owner",
          "type": "address"
        },
        {
          "indexed": true,
          "internalType": "address",
          "name": "operator",
          "type": "address"
        },
        {
          "indexed": false,
          "internalType": "bool",
          "name": "approved",
          "type": "bool"
        }
      ],
      "name": "ApprovalForAll",
      "type": "event"
    },
    {
      "anonymous": false,
      "inputs": [
        {
          "indexed": false,
          "internalType": "address",
          "name": "account",
          "type": "address"
        }
      ],
      "name": "Paused",
      "type": "event"
    },
    {
      "anonymous": false,
      "inputs": [
        {
          "indexed": true,
          "internalType": "address",
          "name": "artist",
          "type": "address"
        },
        {
          "indexed": true,
          "internalType": "uint256",
          "name": "tokenId",
          "type": "uint256"
        },
        {
          "indexed": false,
          "internalType": "address",
          "name": "minter",
          "type": "address"
        },
        {
          "indexed": false,
          "internalType": "uint256",
          "name": "priceDollar",
          "type": "uint256"
        }
      ],
      "name": "RedeemedAndMinted",
      "type": "event"
    },
    {
      "anonymous": false,
      "inputs": [
        {
          "indexed": true,
          "internalType": "bytes32",
          "name": "role",
          "type": "bytes32"
        },
        {
          "indexed": true,
          "internalType": "bytes32",
          "name": "previousAdminRole",
          "type": "bytes32"
        },
        {
          "indexed": true,
          "internalType": "bytes32",
          "name": "newAdminRole",
          "type": "bytes32"
        }
      ],
      "name": "RoleAdminChanged",
      "type": "event"
    },
    {
      "anonymous": false,
      "inputs": [
        {
          "indexed": true,
          "internalType": "bytes32",
          "name": "role",
          "type": "bytes32"
        },
        {
          "indexed": true,
          "internalType": "address",
          "name": "account",
          "type": "address"
        },
        {
          "indexed": true,
          "internalType": "address",
          "name": "sender",
          "type": "address"
        }
      ],
      "name": "RoleGranted",
      "type": "event"
    },
    {
      "anonymous": false,
      "inputs": [
        {
          "indexed": true,
          "internalType": "bytes32",
          "name": "role",
          "type": "bytes32"
        },
        {
          "indexed": true,
          "internalType": "address",
          "name": "account",
          "type": "address"
        },
        {
          "indexed": true,
          "internalType": "address",
          "name": "sender",
          "type": "address"
        }
      ],
      "name": "RoleRevoked",
      "type": "event"
    },
    {
      "anonymous": false,
      "inputs": [
        {
          "indexed": true,
          "internalType": "address",
          "name": "from",
          "type": "address"
        },
        {
          "indexed": true,
          "internalType": "address",
          "name": "to",
          "type": "address"
        },
        {
          "indexed": true,
          "internalType": "uint256",
          "name": "tokenId",
          "type": "uint256"
        }
      ],
      "name": "Transfer",
      "type": "event"
    },
    {
      "anonymous": false,
      "inputs": [
        {
          "indexed": false,
          "internalType": "address",
          "name": "account",
          "type": "address"
        }
      ],
      "name": "Unpaused",
      "type": "event"
    },
    {
      "inputs": [],
      "name": "DEFAULT_ADMIN_ROLE",
      "outputs": [
        {
          "internalType": "bytes32",
          "name": "",
          "type": "bytes32"
        }
      ],
      "stateMutability": "view",
      "type": "function"
    },
    {
      "inputs": [],
      "name": "SIGNER_ROLE",
      "outputs": [
        {
          "internalType": "bytes32",
          "name": "",
          "type": "bytes32"
        }
      ],
      "stateMutability": "view",
      "type": "function"
    },
    {
      "inputs": [
        {
          "internalType": "address",
          "name": "to",
          "type": "address"
        },
        {
          "internalType": "uint256",
          "name": "tokenId",
          "type": "uint256"
        }
      ],
      "name": "approve",
      "outputs": [],
      "stateMutability": "nonpayable",
      "type": "function"
    },
    {
      "inputs": [
        {
          "internalType": "address",
          "name": "owner",
          "type": "address"
        }
      ],
      "name": "balanceOf",
      "outputs": [
        {
          "internalType": "uint256",
          "name": "",
          "type": "uint256"
        }
      ],
      "stateMutability": "view",
      "type": "function"
    },
    {
      "inputs": [
        {
          "internalType": "uint256",
          "name": "tokenId",
          "type": "uint256"
        }
      ],
      "name": "getApproved",
      "outputs": [
        {
          "internalType": "address",
          "name": "",
          "type": "address"
        }
      ],
      "stateMutability": "view",
      "type": "function"
    },
    {
      "inputs": [],
      "name": "getChainID",
      "outputs": [
        {
          "internalType": "uint256",
          "name": "",
          "type": "uint256"
        }
      ],
      "stateMutability": "view",
      "type": "function"
    },
    {
      "inputs": [
        {
          "internalType": "bytes32",
          "name": "role",
          "type": "bytes32"
        }
      ],
      "name": "getRoleAdmin",
      "outputs": [
        {
          "internalType": "bytes32",
          "name": "",
          "type": "bytes32"
        }
      ],
      "stateMutability": "view",
      "type": "function"
    },
    {
      "inputs": [
        {
          "internalType": "bytes32",
          "name": "role",
          "type": "bytes32"
        },
        {
          "internalType": "address",
          "name": "account",
          "type": "address"
        }
      ],
      "name": "grantRole",
      "outputs": [],
      "stateMutability": "nonpayable",
      "type": "function"
    },
    {
      "inputs": [
        {
          "internalType": "bytes32",
          "name": "role",
          "type": "bytes32"
        },
        {
          "internalType": "address",
          "name": "account",
          "type": "address"
        }
      ],
      "name": "hasRole",
      "outputs": [
        {
          "internalType": "bool",
          "name": "",
          "type": "bool"
        }
      ],
      "stateMutability": "view",
      "type": "function"
    },
    {
      "inputs": [
        {
          "internalType": "address",
          "name": "owner",
          "type": "address"
        },
        {
          "internalType": "address",
          "name": "operator",
          "type": "address"
        }
      ],
      "name": "isApprovedForAll",
      "outputs": [
        {
          "internalType": "bool",
          "name": "",
          "type": "bool"
        }
      ],
      "stateMutability": "view",
      "type": "function"
    },
    {
      "inputs": [],
      "name": "name",
      "outputs": [
        {
          "internalType": "string",
          "name": "",
          "type": "string"
        }
      ],
      "stateMutability": "view",
      "type": "function"
    },
    {
      "inputs": [
        {
          "internalType": "uint256",
          "name": "tokenId",
          "type": "uint256"
        }
      ],
      "name": "ownerOf",
      "outputs": [
        {
          "internalType": "address",
          "name": "",
          "type": "address"
        }
      ],
      "stateMutability": "view",
      "type": "function"
    },
    {
      "inputs": [],
      "name": "pause",
      "outputs": [],
      "stateMutability": "nonpayable",
      "type": "function"
    },
    {
      "inputs": [],
      "name": "paused",
      "outputs": [
        {
          "internalType": "bool",
          "name": "",
          "type": "bool"
        }
      ],
      "stateMutability": "view",
      "type": "function"
    },
    {
      "inputs": [
        {
          "internalType": "address",
          "name": "buyer",
          "type": "address"
        },
        {
          "components": [
            {
              "internalType": "address",
              "name": "artist",
              "type": "address"
            },
            {
              "internalType": "uint256",
              "name": "artworkId",
              "type": "uint256"
            },
            {
              "internalType": "uint256",
              "name": "priceDollar",
              "type": "uint256"
            },
            {
              "internalType": "string",
              "name": "tokenUri",
              "type": "string"
            },
            {
              "internalType": "uint96",
              "name": "vadeeFee",
              "type": "uint96"
            },
            {
              "internalType": "uint96",
              "name": "royaltyFee",
              "type": "uint96"
            },
            {
              "internalType": "bytes",
              "name": "signature",
              "type": "bytes"
            }
          ],
          "internalType": "struct LazyFactory.Voucher",
          "name": "voucher",
          "type": "tuple"
        }
      ],
      "name": "redeem",
      "outputs": [],
      "stateMutability": "nonpayable",
      "type": "function"
    },
    {
      "inputs": [
        {
          "internalType": "bytes32",
          "name": "role",
          "type": "bytes32"
        },
        {
          "internalType": "address",
          "name": "account",
          "type": "address"
        }
      ],
      "name": "renounceRole",
      "outputs": [],
      "stateMutability": "nonpayable",
      "type": "function"
    },
    {
      "inputs": [
        {
          "internalType": "bytes32",
          "name": "role",
          "type": "bytes32"
        },
        {
          "internalType": "address",
          "name": "account",
          "type": "address"
        }
      ],
      "name": "revokeRole",
      "outputs": [],
      "stateMutability": "nonpayable",
      "type": "function"
    },
    {
      "inputs": [
        {
          "internalType": "uint256",
          "name": "_tokenId",
          "type": "uint256"
        },
        {
          "internalType": "uint256",
          "name": "_salePrice",
          "type": "uint256"
        }
      ],
      "name": "royaltyInfo",
      "outputs": [
        {
          "internalType": "address",
          "name": "",
          "type": "address"
        },
        {
          "internalType": "uint256",
          "name": "",
          "type": "uint256"
        }
      ],
      "stateMutability": "view",
      "type": "function"
    },
    {
      "inputs": [
        {
          "internalType": "address",
          "name": "from",
          "type": "address"
        },
        {
          "internalType": "address",
          "name": "to",
          "type": "address"
        },
        {
          "internalType": "uint256",
          "name": "tokenId",
          "type": "uint256"
        }
      ],
      "name": "safeTransferFrom",
      "outputs": [],
      "stateMutability": "nonpayable",
      "type": "function"
    },
    {
      "inputs": [
        {
          "internalType": "address",
          "name": "from",
          "type": "address"
        },
        {
          "internalType": "address",
          "name": "to",
          "type": "address"
        },
        {
          "internalType": "uint256",
          "name": "tokenId",
          "type": "uint256"
        },
        {
          "internalType": "bytes",
          "name": "data",
          "type": "bytes"
        }
      ],
      "name": "safeTransferFrom",
      "outputs": [],
      "stateMutability": "nonpayable",
      "type": "function"
    },
    {
      "inputs": [
        {
          "internalType": "address",
          "name": "operator",
          "type": "address"
        },
        {
          "internalType": "bool",
          "name": "approved",
          "type": "bool"
        }
      ],
      "name": "setApprovalForAll",
      "outputs": [],
      "stateMutability": "nonpayable",
      "type": "function"
    },
    {
      "inputs": [
        {
          "internalType": "address payable",
          "name": "newVadeeAddress",
          "type": "address"
        }
      ],
      "name": "setVadeeVaultAddress",
      "outputs": [],
      "stateMutability": "nonpayable",
      "type": "function"
    },
    {
      "inputs": [
        {
          "internalType": "bytes4",
          "name": "interfaceId",
          "type": "bytes4"
        }
      ],
      "name": "supportsInterface",
      "outputs": [
        {
          "internalType": "bool",
          "name": "",
          "type": "bool"
        }
      ],
      "stateMutability": "view",
      "type": "function"
    },
    {
      "inputs": [],
      "name": "symbol",
      "outputs": [
        {
          "internalType": "string",
          "name": "",
          "type": "string"
        }
      ],
      "stateMutability": "view",
      "type": "function"
    },
    {
      "inputs": [
        {
          "internalType": "uint256",
          "name": "tokenId",
          "type": "uint256"
        }
      ],
      "name": "tokenURI",
      "outputs": [
        {
          "internalType": "string",
          "name": "",
          "type": "string"
        }
      ],
      "stateMutability": "view",
      "type": "function"
    },
    {
      "inputs": [
        {
          "internalType": "address",
          "name": "from",
          "type": "address"
        },
        {
          "internalType": "address",
          "name": "to",
          "type": "address"
        },
        {
          "internalType": "uint256",
          "name": "tokenId",
          "type": "uint256"
        }
      ],
      "name": "transferFrom",
      "outputs": [],
      "stateMutability": "nonpayable",
      "type": "function"
    },
    {
      "inputs": [],
      "name": "unpause",
      "outputs": [],
      "stateMutability": "nonpayable",
      "type": "function"
    }
  ],
  "bytecode": "0x610140604052600b805461ff0019166106001790553480156200002157600080fd5b5060405162002fcb38038062002fcb8339810160408190526200004491620002bc565b604080518082018252600580825264566164656560d81b602080840182905284518086018652838152808201929092528451808601865292835264564144454560d81b8382019081528551808701875260018152603160f81b90830152925190922060e08190527fc89efdaa54c0f20c7adf612882df0950f5a951637e0307cdcb4c672f298b8bc66101008190524660a081815287517f8b73c3c69bb8fe3d512ecc4cf759cc79239f7b179b0ffacaa9a75d522b39400f818801819052818a01959095526060810193909352608080840192909252308382018190528851808503909201825260c093840190985280519501949094209093529390915261012092909252906002620001578382620003a0565b506003620001668282620003a0565b50506001600a5550600b805460ff19169055620001a47fe2f4eaae4a9751e85a3e4a7b9587827a877f29914755229b07a7b2da98285f7082620001ef565b620001b1600082620001ff565b600b805462010000600160b01b031916620100006001600160a01b0394851602179055600c80546001600160a01b031916919092161790556200046c565b620001fb8282620001ff565b5050565b60008281526009602090815260408083206001600160a01b038516845290915290205460ff16620001fb5760008281526009602090815260408083206001600160a01b03851684529091529020805460ff191660011790556200025f3390565b6001600160a01b0316816001600160a01b0316837f2f8788117e7eff1d82e926ec794901d17c78024a50270940304540a733656f0d60405160405180910390a45050565b6001600160a01b0381168114620002b957600080fd5b50565b60008060408385031215620002d057600080fd5b8251620002dd81620002a3565b6020840151909250620002f081620002a3565b809150509250929050565b634e487b7160e01b600052604160045260246000fd5b600181811c908216806200032657607f821691505b6020821081036200034757634e487b7160e01b600052602260045260246000fd5b50919050565b601f8211156200039b57600081815260208120601f850160051c81016020861015620003765750805b601f850160051c820191505b81811015620003975782815560010162000382565b5050505b505050565b81516001600160401b03811115620003bc57620003bc620002fb565b620003d481620003cd845462000311565b846200034d565b602080601f8311600181146200040c5760008415620003f35750858301515b600019600386901b1c1916600185901b17855562000397565b600085815260208120601f198616915b828110156200043d578886015182559484019460019091019084016200041c565b50858210156200045c5787850151600019600388901b60f8161c191681555b5050505050600190811b01905550565b60805160a05160c05160e0516101005161012051612b0f620004bc6000396000611fe2015260006120310152600061200c01526000611f6501526000611f8f01526000611fb90152612b0f6000f3fe608060405234801561001057600080fd5b50600436106101a95760003560e01c80635c975abb116100f9578063a1ebf35d11610097578063b88d4fde11610071578063b88d4fde146103a4578063c87b56dd146103b7578063d547741f146103ca578063e985e9c5146103dd57600080fd5b8063a1ebf35d14610362578063a217fddf14610389578063a22cb4651461039157600080fd5b806370a08231116100d357806370a082311461032c5780638456cb591461033f57806391d148541461034757806395d89b411461035a57600080fd5b80635c975abb146102fb5780636352211e146103065780636fda8d991461031957600080fd5b8063248a9ca31161016657806336568abe1161014057806336568abe146102c75780633f4ba83a146102da57806342842e0e146102e2578063564b81ef146102f557600080fd5b8063248a9ca3146102515780632a55205a146102825780632f2ff15d146102b457600080fd5b806301ffc9a7146101ae578063021df1ca146101d657806306fdde03146101eb578063081812fc14610200578063095ea7b31461022b57806323b872dd1461023e575b600080fd5b6101c16101bc366004612231565b610419565b60405190151581526020015b60405180910390f35b6101e96101e4366004612263565b610448565b005b6101f361076d565b6040516101cd919061230a565b61021361020e36600461231d565b6107ff565b6040516001600160a01b0390911681526020016101cd565b6101e9610239366004612336565b610826565b6101e961024c366004612362565b61093b565b61027461025f36600461231d565b60009081526009602052604090206001015490565b6040519081526020016101cd565b6102956102903660046123a3565b61096c565b604080516001600160a01b0390931683526020830191909152016101cd565b6101e96102c23660046123c5565b610a19565b6101e96102d53660046123c5565b610a3e565b6101e9610ab8565b6101e96102f0366004612362565b610ace565b46610274565b600b5460ff166101c1565b61021361031436600461231d565b610ae9565b6101e96103273660046123ea565b610b49565b61027461033a3660046123ea565b610b77565b6101e9610bfd565b6101c16103553660046123c5565b610c10565b6101f3610c3b565b6102747fe2f4eaae4a9751e85a3e4a7b9587827a877f29914755229b07a7b2da98285f7081565b610274600081565b6101e961039f366004612415565b610c4a565b6101e96103b2366004612459565b610c55565b6101f36103c536600461231d565b610c8d565b6101e96103d83660046123c5565b610c98565b6101c16103eb366004612539565b6001600160a01b03918216600090815260076020908152604080832093909416825291909152205460ff1690565b600061042482610cbd565b80610433575061043382610cfd565b80610442575061044282610d1e565b92915050565b610450610d29565b610458610d82565b600061046382610dca565b905061048f7fe2f4eaae4a9751e85a3e4a7b9587827a877f29914755229b07a7b2da98285f7082610c10565b6104a3826001600160a01b03166014610e2a565b906104ca5760405162461bcd60e51b81526004016104c1919061230a565b60405180910390fd5b50600b546000906104e490610100900460ff16600a612661565b6104f2906040850135612670565b90506000606461050860a0860160808701612687565b61051b906001600160601b031684612670565b61052591906126b0565b600b54600c546040516323b872dd60e01b81523360048201526001600160a01b039182166024820152604481018490529293506201000090910416906323b872dd906064016020604051808303816000875af1158015610589573d6000803e3d6000fd5b505050506040513d601f19601f820116820180604052508101906105ad91906126d2565b50600b546201000090046001600160a01b03166323b872dd336105d360208801886123ea565b6105dd85876126ef565b6040516001600160e01b031960e086901b1681526001600160a01b03938416600482015292909116602483015260448201526064016020604051808303816000875af1158015610631573d6000803e3d6000fd5b505050506040513d601f19601f8201168201806040525081019061065591906126d2565b5061067061066660208601866123ea565b8560200135610fc6565b6106bf60208501356106856060870187612702565b8080601f016020809104026020016040519081016040528093929190818152602001838380828437600092019190915250610fe092505050565b6106e8602085018035906106d390876123ea565b6106e360c0880160a08901612687565b611073565b6107036106f860208601866123ea565b868660200135611180565b6020840180359061071490866123ea565b604080516001600160a01b0389811682526020820187905292909216917fe3f2b7f37331430e606981795525f26fcc8cae14a01156356357cf411bd5973d910160405180910390a35050506107696001600a55565b5050565b60606002805461077c90612749565b80601f01602080910402602001604051908101604052809291908181526020018280546107a890612749565b80156107f55780601f106107ca576101008083540402835291602001916107f5565b820191906000526020600020905b8154815290600101906020018083116107d857829003601f168201915b5050505050905090565b600061080a826112e4565b506000908152600660205260409020546001600160a01b031690565b600061083182610ae9565b9050806001600160a01b0316836001600160a01b03160361089e5760405162461bcd60e51b815260206004820152602160248201527f4552433732313a20617070726f76616c20746f2063757272656e74206f776e656044820152603960f91b60648201526084016104c1565b336001600160a01b03821614806108ba57506108ba81336103eb565b61092c5760405162461bcd60e51b815260206004820152603d60248201527f4552433732313a20617070726f76652063616c6c6572206973206e6f7420746f60448201527f6b656e206f776e6572206f7220617070726f76656420666f7220616c6c00000060648201526084016104c1565b6109368383611343565b505050565b61094533826113b1565b6109615760405162461bcd60e51b81526004016104c190612783565b610936838383611180565b60008281526001602090815260408083208151808301909252546001600160a01b038116808352600160a01b9091046001600160601b03169282019290925282916109e15750604080518082019091526000546001600160a01b0381168252600160a01b90046001600160601b031660208201525b60208101516000906064906109ff906001600160601b031687612670565b610a0991906126b0565b91519350909150505b9250929050565b600082815260096020526040902060010154610a3481611430565b610936838361143a565b6001600160a01b0381163314610aae5760405162461bcd60e51b815260206004820152602f60248201527f416363657373436f6e74726f6c3a2063616e206f6e6c792072656e6f756e636560448201526e103937b632b9903337b91039b2b63360891b60648201526084016104c1565b61076982826114c0565b6000610ac381611430565b610acb611527565b50565b61093683838360405180602001604052806000815250610c55565b6000818152600460205260408120546001600160a01b0316806104425760405162461bcd60e51b8152602060048201526018602482015277115490cdcc8c4e881a5b9d985b1a59081d1bdad95b88125160421b60448201526064016104c1565b6000610b5481611430565b50600c80546001600160a01b0319166001600160a01b0392909216919091179055565b60006001600160a01b038216610be15760405162461bcd60e51b815260206004820152602960248201527f4552433732313a2061646472657373207a65726f206973206e6f7420612076616044820152683634b21037bbb732b960b91b60648201526084016104c1565b506001600160a01b031660009081526005602052604090205490565b6000610c0881611430565b610acb611579565b60009182526009602090815260408084206001600160a01b0393909316845291905290205460ff1690565b60606003805461077c90612749565b6107693383836115b6565b610c5f33836113b1565b610c7b5760405162461bcd60e51b81526004016104c190612783565b610c8784848484611684565b50505050565b6060610442826116b7565b600082815260096020526040902060010154610cb381611430565b61093683836114c0565b60006001600160e01b031982166380ac58cd60e01b1480610cee57506001600160e01b03198216635b5e139f60e01b145b806104425750610442826117bf565b60006001600160e01b03198216637965db0b60e01b14806104425750610442825b600061044282610cbd565b6002600a5403610d7b5760405162461bcd60e51b815260206004820152601f60248201527f5265656e7472616e637947756172643a207265656e7472616e742063616c6c0060448201526064016104c1565b6002600a55565b600b5460ff1615610dc85760405162461bcd60e51b815260206004820152601060248201526f14185d5cd8589b194e881c185d5cd95960821b60448201526064016104c1565b565b600080610dd6836117f4565b9050610e2381610de960c0860186612702565b8080601f0160208091040260200160405190810160405280939291908181526020018383808284376000920191909152506118dd92505050565b9392505050565b60606000610e39836002612670565b610e449060026127d0565b67ffffffffffffffff811115610e5c57610e5c612443565b6040519080825280601f01601f191660200182016040528015610e86576020820181803683370190505b509050600360fc1b81600081518110610ea157610ea16127e3565b60200101906001600160f81b031916908160001a905350600f60fb1b81600181518110610ed057610ed06127e3565b60200101906001600160f81b031916908160001a9053506000610ef4846002612670565b610eff9060016127d0565b90505b6001811115610f77576f181899199a1a9b1b9c1cb0b131b232b360811b85600f1660108110610f3357610f336127e3565b1a60f81b828281518110610f4957610f496127e3565b60200101906001600160f81b031916908160001a90535060049490941c93610f70816127f9565b9050610f02565b508315610e235760405162461bcd60e51b815260206004820181905260248201527f537472696e67733a20686578206c656e67746820696e73756666696369656e7460448201526064016104c1565b610769828260405180602001604052806000815250611901565b6000828152600460205260409020546001600160a01b031661105b5760405162461bcd60e51b815260206004820152602e60248201527f45524337323155524953746f726167653a2055524920736574206f66206e6f6e60448201526d32bc34b9ba32b73a103a37b5b2b760911b60648201526084016104c1565b6000828152600860205260409020610936828261285e565b60646001600160601b03821611156110e05760405162461bcd60e51b815260206004820152602a60248201527f455243323938313a20726f79616c7479206665652077696c6c206578636565646044820152692073616c65507269636560b01b60648201526084016104c1565b6001600160a01b0382166111365760405162461bcd60e51b815260206004820152601b60248201527f455243323938313a20496e76616c696420706172616d6574657273000000000060448201526064016104c1565b6040805180820182526001600160a01b0393841681526001600160601b0392831660208083019182526000968752600190529190942093519051909116600160a01b029116179055565b826001600160a01b031661119382610ae9565b6001600160a01b0316146111b95760405162461bcd60e51b81526004016104c19061291e565b6001600160a01b03821661121b5760405162461bcd60e51b8152602060048201526024808201527f4552433732313a207472616e7366657220746f20746865207a65726f206164646044820152637265737360e01b60648201526084016104c1565b826001600160a01b031661122e82610ae9565b6001600160a01b0316146112545760405162461bcd60e51b81526004016104c19061291e565b600081815260066020908152604080832080546001600160a01b03199081169091556001600160a01b0387811680865260058552838620805460001901905590871680865283862080546001019055868652600490945282852080549092168417909155905184937fddf252ad1be2c89b69c2b068fc378daa952ba7f163c4a11628f55a4df523b3ef91a4505050565b6000818152600460205260409020546001600160a01b0316610acb5760405162461bcd60e51b8152602060048201526018602482015277115490cdcc8c4e881a5b9d985b1a59081d1bdad95b88125160421b60448201526064016104c1565b600081815260066020526040902080546001600160a01b0319166001600160a01b038416908117909155819061137882610ae9565b6001600160a01b03167f8c5be1e5ebec7d5bd14f71427d1e84f3dd0314c0f7b2291e5b200ac8c7c3b92560405160405180910390a45050565b6000806113bd83610ae9565b9050806001600160a01b0316846001600160a01b0316148061140457506001600160a01b0380821660009081526007602090815260408083209388168352929052205460ff165b806114285750836001600160a01b031661141d846107ff565b6001600160a01b0316145b949350505050565b610acb8133611934565b6114448282610c10565b6107695760008281526009602090815260408083206001600160a01b03851684529091529020805460ff1916600117905561147c3390565b6001600160a01b0316816001600160a01b0316837f2f8788117e7eff1d82e926ec794901d17c78024a50270940304540a733656f0d60405160405180910390a45050565b6114ca8282610c10565b156107695760008281526009602090815260408083206001600160a01b0385168085529252808320805460ff1916905551339285917ff6391f5c32d9c69d2a47ea670b442974b53935d1edc7fd64eb21e047a839171b9190a45050565b61152f61198d565b600b805460ff191690557f5db9ee0a495bf2e6ff9c91a7834c1ba4fdd244a5e8aa4e537bd38aeae4b073aa335b6040516001600160a01b03909116815260200160405180910390a1565b611581610d82565b600b805460ff191660011790557f62e78cea01bee320cd4e420270b5ea74000d11b0c9f74754ebdbfc544b05a25861155c3390565b816001600160a01b0316836001600160a01b0316036116175760405162461bcd60e51b815260206004820152601960248201527f4552433732313a20617070726f766520746f2063616c6c65720000000000000060448201526064016104c1565b6001600160a01b03838116600081815260076020908152604080832094871680845294825291829020805460ff191686151590811790915591519182527f17307eab39ab6107e8899845ad3d59bd9653f200f220920489ca2b5937696c31910160405180910390a3505050565b61168f848484611180565b61169b848484846119d6565b610c875760405162461bcd60e51b81526004016104c190612963565b60606116c2826112e4565b600082815260086020526040812080546116db90612749565b80601f016020809104026020016040519081016040528092919081815260200182805461170790612749565b80156117545780601f1061172957610100808354040283529160200191611754565b820191906000526020600020905b81548152906001019060200180831161173757829003601f168201915b50505050509050600061177260408051602081019091526000815290565b90508051600003611784575092915050565b8151156117b657808260405160200161179e9291906129b5565b60405160208183030381529060405292505050919050565b61142884611ad7565b60006001600160e01b0319821663152a902d60e11b148061044257506301ffc9a760e01b6001600160e01b0319831614610442565b60006104427ffeaaf245f81deb13ff7c9643cbc415d43be848e7c17c810453c82a584fb2ca6e61182760208501856123ea565b6020850135604086013561183e6060880188612702565b60405161184c9291906129e4565b60405190819003902061186560a0890160808a01612687565b61187560c08a0160a08b01612687565b6040805160208101989098526001600160a01b03909616958701959095526060860193909352608085019190915260a08401526001600160601b0390811660c08401521660e08201526101000160405160208183030381529060405280519060200120611b4a565b60008060006118ec8585611b98565b915091506118f981611bda565b509392505050565b61190b8383611d24565b61191860008484846119d6565b6109365760405162461bcd60e51b81526004016104c190612963565b61193e8282610c10565b6107695761194b81611eaf565b611956836020610e2a565b6040516020016119679291906129f4565b60408051601f198184030181529082905262461bcd60e51b82526104c19160040161230a565b600b5460ff16610dc85760405162461bcd60e51b815260206004820152601460248201527314185d5cd8589b194e881b9bdd081c185d5cd95960621b60448201526064016104c1565b60006001600160a01b0384163b15611acc57604051630a85bd0160e11b81526001600160a01b0385169063150b7a0290611a1a903390899088908890600401612a69565b6020604051808303816000875af1925050508015611a55575060408051601f3d908101601f19168201909252611a5291810190612aa6565b60015b611ab2573d808015611a83576040519150601f19603f3d011682016040523d82523d6000602084013e611a88565b606091505b508051600003611aaa5760405162461bcd60e51b81526004016104c190612963565b805181602001fd5b6001600160e01b031916630a85bd0160e11b149050611428565b506001949350505050565b6060611ae2826112e4565b6000611af960408051602081019091526000815290565b90506000815111611b195760405180602001604052806000815250610e23565b80611b2384611ec5565b604051602001611b349291906129b5565b6040516020818303038152906040529392505050565b6000610442611b57611f58565b8360405161190160f01b6020820152602281018390526042810182905260009060620160405160208183030381529060405280519060200120905092915050565b6000808251604103611bce5760208301516040840151606085015160001a611bc28782858561207f565b94509450505050610a12565b50600090506002610a12565b6000816004811115611bee57611bee612ac3565b03611bf65750565b6001816004811115611c0a57611c0a612ac3565b03611c575760405162461bcd60e51b815260206004820152601860248201527f45434453413a20696e76616c6964207369676e6174757265000000000000000060448201526064016104c1565b6002816004811115611c6b57611c6b612ac3565b03611cb85760405162461bcd60e51b815260206004820152601f60248201527f45434453413a20696e76616c6964207369676e6174757265206c656e6774680060448201526064016104c1565b6003816004811115611ccc57611ccc612ac3565b03610acb5760405162461bcd60e51b815260206004820152602260248201527f45434453413a20696e76616c6964207369676e6174757265202773272076616c604482015261756560f01b60648201526084016104c1565b6001600160a01b038216611d7a5760405162461bcd60e51b815260206004820181905260248201527f4552433732313a206d696e7420746f20746865207a65726f206164647265737360448201526064016104c1565b6000818152600460205260409020546001600160a01b031615611ddf5760405162461bcd60e51b815260206004820152601c60248201527f4552433732313a20746f6b656e20616c7265616479206d696e7465640000000060448201526064016104c1565b6000818152600460205260409020546001600160a01b031615611e445760405162461bcd60e51b815260206004820152601c60248201527f4552433732313a20746f6b656e20616c7265616479206d696e7465640000000060448201526064016104c1565b6001600160a01b038216600081815260056020908152604080832080546001019055848352600490915280822080546001600160a01b0319168417905551839291907fddf252ad1be2c89b69c2b068fc378daa952ba7f163c4a11628f55a4df523b3ef908290a45050565b60606104426001600160a01b0383166014610e2a565b60606000611ed283612143565b600101905060008167ffffffffffffffff811115611ef257611ef2612443565b6040519080825280601f01601f191660200182016040528015611f1c576020820181803683370190505b5090508181016020015b600019016f181899199a1a9b1b9c1cb0b131b232b360811b600a86061a8153600a8504945084611f2657509392505050565b6000306001600160a01b037f000000000000000000000000000000000000000000000000000000000000000016148015611fb157507f000000000000000000000000000000000000000000000000000000000000000046145b15611fdb57507f000000000000000000000000000000000000000000000000000000000000000090565b50604080517f00000000000000000000000000000000000000000000000000000000000000006020808301919091527f0000000000000000000000000000000000000000000000000000000000000000828401527f000000000000000000000000000000000000000000000000000000000000000060608301524660808301523060a0808401919091528351808403909101815260c0909201909252805191012090565b6000807f7fffffffffffffffffffffffffffffff5d576e7357a4501ddfe92f46681b20a08311156120b6575060009050600361213a565b6040805160008082526020820180845289905260ff881692820192909252606081018690526080810185905260019060a0016020604051602081039080840390855afa15801561210a573d6000803e3d6000fd5b5050604051601f1901519150506001600160a01b0381166121335760006001925092505061213a565b9150600090505b94509492505050565b60008072184f03e93ff9f4daa797ed6e38ed64bf6a1f0160401b83106121825772184f03e93ff9f4daa797ed6e38ed64bf6a1f0160401b830492506040015b6d04ee2d6d415b85acef810000000083106121ae576d04ee2d6d415b85acef8100000000830492506020015b662386f26fc1000083106121cc57662386f26fc10000830492506010015b6305f5e10083106121e4576305f5e100830492506008015b61271083106121f857612710830492506004015b6064831061220a576064830492506002015b600a83106104425760010192915050565b6001600160e01b031981168114610acb57600080fd5b60006020828403121561224357600080fd5b8135610e238161221b565b6001600160a01b0381168114610acb57600080fd5b6000806040838503121561227657600080fd5b82356122818161224e565b9150602083013567ffffffffffffffff81111561229d57600080fd5b830160e081860312156122af57600080fd5b809150509250929050565b60005b838110156122d55781810151838201526020016122bd565b50506000910152565b600081518084526122f68160208601602086016122ba565b601f01601f19169290920160200192915050565b602081526000610e2360208301846122de565b60006020828403121561232f57600080fd5b5035919050565b6000806040838503121561234957600080fd5b82356123548161224e565b946020939093013593505050565b60008060006060848603121561237757600080fd5b83356123828161224e565b925060208401356123928161224e565b929592945050506040919091013590565b600080604083850312156123b657600080fd5b50508035926020909101359150565b600080604083850312156123d857600080fd5b8235915060208301356122af8161224e565b6000602082840312156123fc57600080fd5b8135610e238161224e565b8015158114610acb57600080fd5b6000806040838503121561242857600080fd5b82356124338161224e565b915060208301356122af81612407565b634e487b7160e01b600052604160045260246000fd5b6000806000806080858703121561246f57600080fd5b843561247a8161224e565b9350602085013561248a8161224e565b925060408501359150606085013567ffffffffffffffff808211156124ae57600080fd5b818701915087601f8301126124c257600080fd5b8135818111156124d4576124d4612443565b604051601f8201601f19908116603f011681019083821181831017156124fc576124fc612443565b816040528281528a602084870101111561251557600080fd5b82602086016020830137600060208483010152809550505050505092959194509250565b6000806040838503121561254c57600080fd5b82356125578161224e565b915060208301356122af8161224e565b634e487b7160e01b600052601160045260246000fd5b600181815b808511156125b857816000190482111561259e5761259e612567565b808516156125ab57918102915b93841c9390800290612582565b509250929050565b6000826125cf57506001610442565b816125dc57506000610442565b81600181146125f257600281146125fc57612618565b6001915050610442565b60ff84111561260d5761260d612567565b50506001821b610442565b5060208310610133831016604e8410600b841016171561263b575081810a610442565b612645838361257d565b806000190482111561265957612659612567565b029392505050565b6000610e2360ff8416836125c0565b808202811582820484141761044257610442612567565b60006020828403121561269957600080fd5b81356001600160601b0381168114610e2357600080fd5b6000826126cd57634e487b7160e01b600052601260045260246000fd5b500490565b6000602082840312156126e457600080fd5b8151610e2381612407565b8181038181111561044257610442612567565b6000808335601e1984360301811261271957600080fd5b83018035915067ffffffffffffffff82111561273457600080fd5b602001915036819003821315610a1257600080fd5b600181811c9082168061275d57607f821691505b60208210810361277d57634e487b7160e01b600052602260045260246000fd5b50919050565b6020808252602d908201527f4552433732313a2063616c6c6572206973206e6f7420746f6b656e206f776e6560408201526c1c881bdc88185c1c1c9bdd9959609a1b606082015260800190565b8082018082111561044257610442612567565b634e487b7160e01b600052603260045260246000fd5b60008161280857612808612567565b506000190190565b601f82111561093657600081815260208120601f850160051c810160208610156128375750805b601f850160051c820191505b8181101561285657828155600101612843565b505050505050565b815167ffffffffffffffff81111561287857612878612443565b61288c816128868454612749565b84612810565b602080601f8311600181146128c157600084156128a95750858301515b600019600386901b1c1916600185901b178555612856565b600085815260208120601f198616915b828110156128f0578886015182559484019460019091019084016128d1565b508582101561290e5787850151600019600388901b60f8161c191681555b5050505050600190811b01905550565b60208082526025908201527f4552433732313a207472616e736665722066726f6d20696e636f72726563742060408201526437bbb732b960d91b606082015260800190565b60208082526032908201527f4552433732313a207472616e7366657220746f206e6f6e20455243373231526560408201527131b2b4bb32b91034b6b83632b6b2b73a32b960711b606082015260800190565b600083516129c78184602088016122ba565b8351908301906129db8183602088016122ba565b01949350505050565b8183823760009101908152919050565b7f416363657373436f6e74726f6c3a206163636f756e7420000000000000000000815260008351612a2c8160178501602088016122ba565b7001034b99036b4b9b9b4b733903937b6329607d1b6017918401918201528351612a5d8160288401602088016122ba565b01602801949350505050565b6001600160a01b0385811682528416602082015260408101839052608060608201819052600090612a9c908301846122de565b9695505050505050565b600060208284031215612ab857600080fd5b8151610e238161221b565b634e487b7160e01b600052602160045260246000fdfea264697066735822122056cd403727c07b6c0acfe2eba3648c8eef09f0ab35135353e8766830c0d4ad7e64736f6c63430008130033",
  "linkReferences": {},
  "deployedLinkReferences": {}
}