{
  "_format": "hh-sol-artifact-1",
  "contractName": "LazyFactory",
  "sourceName": "contracts/LazyFactory.sol",
  "abi": [
    {
      "inputs": [
        {
          "internalType": "string",
          "name": "name",
          "type": "string"
        },
        {
          "internalType": "string",
          "name": "symbol",
          "type": "string"
        },
        {
          "internalType": "address payable",
          "name": "artist",
          "type": "address"
        },
        {
          "internalType": "uint256",
          "name": "_vadeeFee",
          "type": "uint256"
        },
        {
          "internalType": "address payable",
          "name": "_vadeeAddress",
          "type": "address"
        },
        {
          "internalType": "uint96",
          "name": "royaltyFee",
          "type": "uint96"
        }
      ],
      "stateMutability": "nonpayable",
      "type": "constructor"
    },
    {
      "anonymous": false,
      "inputs": [
        {
          "indexed": true,
          "internalType": "address",
          "name": "owner",
          "type": "address"
        },
        {
          "indexed": true,
          "internalType": "address",
          "name": "approved",
          "type": "address"
        },
        {
          "indexed": true,
          "internalType": "uint256",
          "name": "tokenId",
          "type": "uint256"
        }
      ],
      "name": "Approval",
      "type": "event"
    },
    {
      "anonymous": false,
      "inputs": [
        {
          "indexed": true,
          "internalType": "address",
          "name": "owner",
          "type": "address"
        },
        {
          "indexed": true,
          "internalType": "address",
          "name": "operator",
          "type": "address"
        },
        {
          "indexed": false,
          "internalType": "bool",
          "name": "approved",
          "type": "bool"
        }
      ],
      "name": "ApprovalForAll",
      "type": "event"
    },
    {
      "anonymous": false,
      "inputs": [
        {
          "indexed": true,
          "internalType": "uint256",
          "name": "tokenId",
          "type": "uint256"
        }
      ],
      "name": "RedeemedAndMinted",
      "type": "event"
    },
    {
      "anonymous": false,
      "inputs": [
        {
          "indexed": true,
          "internalType": "bytes32",
          "name": "role",
          "type": "bytes32"
        },
        {
          "indexed": true,
          "internalType": "bytes32",
          "name": "previousAdminRole",
          "type": "bytes32"
        },
        {
          "indexed": true,
          "internalType": "bytes32",
          "name": "newAdminRole",
          "type": "bytes32"
        }
      ],
      "name": "RoleAdminChanged",
      "type": "event"
    },
    {
      "anonymous": false,
      "inputs": [
        {
          "indexed": true,
          "internalType": "bytes32",
          "name": "role",
          "type": "bytes32"
        },
        {
          "indexed": true,
          "internalType": "address",
          "name": "account",
          "type": "address"
        },
        {
          "indexed": true,
          "internalType": "address",
          "name": "sender",
          "type": "address"
        }
      ],
      "name": "RoleGranted",
      "type": "event"
    },
    {
      "anonymous": false,
      "inputs": [
        {
          "indexed": true,
          "internalType": "bytes32",
          "name": "role",
          "type": "bytes32"
        },
        {
          "indexed": true,
          "internalType": "address",
          "name": "account",
          "type": "address"
        },
        {
          "indexed": true,
          "internalType": "address",
          "name": "sender",
          "type": "address"
        }
      ],
      "name": "RoleRevoked",
      "type": "event"
    },
    {
      "anonymous": false,
      "inputs": [
        {
          "indexed": true,
          "internalType": "address",
          "name": "from",
          "type": "address"
        },
        {
          "indexed": true,
          "internalType": "address",
          "name": "to",
          "type": "address"
        },
        {
          "indexed": true,
          "internalType": "uint256",
          "name": "tokenId",
          "type": "uint256"
        }
      ],
      "name": "Transfer",
      "type": "event"
    },
    {
      "inputs": [],
      "name": "DEFAULT_ADMIN_ROLE",
      "outputs": [
        {
          "internalType": "bytes32",
          "name": "",
          "type": "bytes32"
        }
      ],
      "stateMutability": "view",
      "type": "function"
    },
    {
      "inputs": [],
      "name": "SIGNER_ROLE",
      "outputs": [
        {
          "internalType": "bytes32",
          "name": "",
          "type": "bytes32"
        }
      ],
      "stateMutability": "view",
      "type": "function"
    },
    {
      "inputs": [
        {
          "internalType": "address",
          "name": "to",
          "type": "address"
        },
        {
          "internalType": "uint256",
          "name": "tokenId",
          "type": "uint256"
        }
      ],
      "name": "approve",
      "outputs": [],
      "stateMutability": "nonpayable",
      "type": "function"
    },
    {
      "inputs": [
        {
          "internalType": "address",
          "name": "owner",
          "type": "address"
        }
      ],
      "name": "balanceOf",
      "outputs": [
        {
          "internalType": "uint256",
          "name": "",
          "type": "uint256"
        }
      ],
      "stateMutability": "view",
      "type": "function"
    },
    {
      "inputs": [
        {
          "internalType": "uint256",
          "name": "tokenId",
          "type": "uint256"
        }
      ],
      "name": "getApproved",
      "outputs": [
        {
          "internalType": "address",
          "name": "",
          "type": "address"
        }
      ],
      "stateMutability": "view",
      "type": "function"
    },
    {
      "inputs": [],
      "name": "getChainID",
      "outputs": [
        {
          "internalType": "uint256",
          "name": "",
          "type": "uint256"
        }
      ],
      "stateMutability": "view",
      "type": "function"
    },
    {
      "inputs": [
        {
          "internalType": "bytes32",
          "name": "role",
          "type": "bytes32"
        }
      ],
      "name": "getRoleAdmin",
      "outputs": [
        {
          "internalType": "bytes32",
          "name": "",
          "type": "bytes32"
        }
      ],
      "stateMutability": "view",
      "type": "function"
    },
    {
      "inputs": [
        {
          "internalType": "bytes32",
          "name": "role",
          "type": "bytes32"
        },
        {
          "internalType": "address",
          "name": "account",
          "type": "address"
        }
      ],
      "name": "grantRole",
      "outputs": [],
      "stateMutability": "nonpayable",
      "type": "function"
    },
    {
      "inputs": [
        {
          "internalType": "bytes32",
          "name": "role",
          "type": "bytes32"
        },
        {
          "internalType": "address",
          "name": "account",
          "type": "address"
        }
      ],
      "name": "hasRole",
      "outputs": [
        {
          "internalType": "bool",
          "name": "",
          "type": "bool"
        }
      ],
      "stateMutability": "view",
      "type": "function"
    },
    {
      "inputs": [
        {
          "internalType": "address",
          "name": "owner",
          "type": "address"
        },
        {
          "internalType": "address",
          "name": "operator",
          "type": "address"
        }
      ],
      "name": "isApprovedForAll",
      "outputs": [
        {
          "internalType": "bool",
          "name": "",
          "type": "bool"
        }
      ],
      "stateMutability": "view",
      "type": "function"
    },
    {
      "inputs": [],
      "name": "name",
      "outputs": [
        {
          "internalType": "string",
          "name": "",
          "type": "string"
        }
      ],
      "stateMutability": "view",
      "type": "function"
    },
    {
      "inputs": [
        {
          "internalType": "uint256",
          "name": "tokenId",
          "type": "uint256"
        }
      ],
      "name": "ownerOf",
      "outputs": [
        {
          "internalType": "address",
          "name": "",
          "type": "address"
        }
      ],
      "stateMutability": "view",
      "type": "function"
    },
    {
      "inputs": [
        {
          "internalType": "address",
          "name": "buyer",
          "type": "address"
        },
        {
          "components": [
            {
              "internalType": "string",
              "name": "title",
              "type": "string"
            },
            {
              "internalType": "uint256",
              "name": "artworkId",
              "type": "uint256"
            },
            {
              "internalType": "string",
              "name": "editionNumber",
              "type": "string"
            },
            {
              "internalType": "string",
              "name": "edition",
              "type": "string"
            },
            {
              "internalType": "uint256",
              "name": "priceWei",
              "type": "uint256"
            },
            {
              "internalType": "string",
              "name": "priceDollar",
              "type": "string"
            },
            {
              "internalType": "string",
              "name": "tokenUri",
              "type": "string"
            },
            {
              "internalType": "string",
              "name": "content",
              "type": "string"
            },
            {
              "internalType": "bytes",
              "name": "signature",
              "type": "bytes"
            }
          ],
          "internalType": "struct LazyFactory.Voucher",
          "name": "voucher",
          "type": "tuple"
        }
      ],
      "name": "redeem",
      "outputs": [],
      "stateMutability": "payable",
      "type": "function"
    },
    {
      "inputs": [
        {
          "internalType": "bytes32",
          "name": "role",
          "type": "bytes32"
        },
        {
          "internalType": "address",
          "name": "account",
          "type": "address"
        }
      ],
      "name": "renounceRole",
      "outputs": [],
      "stateMutability": "nonpayable",
      "type": "function"
    },
    {
      "inputs": [
        {
          "internalType": "bytes32",
          "name": "role",
          "type": "bytes32"
        },
        {
          "internalType": "address",
          "name": "account",
          "type": "address"
        }
      ],
      "name": "revokeRole",
      "outputs": [],
      "stateMutability": "nonpayable",
      "type": "function"
    },
    {
      "inputs": [
        {
          "internalType": "uint256",
          "name": "_tokenId",
          "type": "uint256"
        },
        {
          "internalType": "uint256",
          "name": "_salePrice",
          "type": "uint256"
        }
      ],
      "name": "royaltyInfo",
      "outputs": [
        {
          "internalType": "address",
          "name": "",
          "type": "address"
        },
        {
          "internalType": "uint256",
          "name": "",
          "type": "uint256"
        }
      ],
      "stateMutability": "view",
      "type": "function"
    },
    {
      "inputs": [
        {
          "internalType": "address",
          "name": "from",
          "type": "address"
        },
        {
          "internalType": "address",
          "name": "to",
          "type": "address"
        },
        {
          "internalType": "uint256",
          "name": "tokenId",
          "type": "uint256"
        }
      ],
      "name": "safeTransferFrom",
      "outputs": [],
      "stateMutability": "nonpayable",
      "type": "function"
    },
    {
      "inputs": [
        {
          "internalType": "address",
          "name": "from",
          "type": "address"
        },
        {
          "internalType": "address",
          "name": "to",
          "type": "address"
        },
        {
          "internalType": "uint256",
          "name": "tokenId",
          "type": "uint256"
        },
        {
          "internalType": "bytes",
          "name": "_data",
          "type": "bytes"
        }
      ],
      "name": "safeTransferFrom",
      "outputs": [],
      "stateMutability": "nonpayable",
      "type": "function"
    },
    {
      "inputs": [
        {
          "internalType": "address",
          "name": "operator",
          "type": "address"
        },
        {
          "internalType": "bool",
          "name": "approved",
          "type": "bool"
        }
      ],
      "name": "setApprovalForAll",
      "outputs": [],
      "stateMutability": "nonpayable",
      "type": "function"
    },
    {
      "inputs": [
        {
          "internalType": "bytes4",
          "name": "interfaceId",
          "type": "bytes4"
        }
      ],
      "name": "supportsInterface",
      "outputs": [
        {
          "internalType": "bool",
          "name": "",
          "type": "bool"
        }
      ],
      "stateMutability": "view",
      "type": "function"
    },
    {
      "inputs": [],
      "name": "symbol",
      "outputs": [
        {
          "internalType": "string",
          "name": "",
          "type": "string"
        }
      ],
      "stateMutability": "view",
      "type": "function"
    },
    {
      "inputs": [
        {
          "internalType": "uint256",
          "name": "tokenId",
          "type": "uint256"
        }
      ],
      "name": "tokenURI",
      "outputs": [
        {
          "internalType": "string",
          "name": "",
          "type": "string"
        }
      ],
      "stateMutability": "view",
      "type": "function"
    },
    {
      "inputs": [
        {
          "internalType": "address",
          "name": "from",
          "type": "address"
        },
        {
          "internalType": "address",
          "name": "to",
          "type": "address"
        },
        {
          "internalType": "uint256",
          "name": "tokenId",
          "type": "uint256"
        }
      ],
      "name": "transferFrom",
      "outputs": [],
      "stateMutability": "nonpayable",
      "type": "function"
    }
  ],
  "bytecode": "0x6101406040523480156200001257600080fd5b5060405162005b1438038062005b148339818101604052810190620000389190620007c8565b85856040518060400160405280600581526020017f56414445450000000000000000000000000000000000000000000000000000008152506040518060400160405280600181526020017f310000000000000000000000000000000000000000000000000000000000000081525060008280519060200120905060008280519060200120905060007f8b73c3c69bb8fe3d512ecc4cf759cc79239f7b179b0ffacaa9a75d522b39400f90508260e081815250508161010081815250504660a081815250506200010f818484620002fd60201b60201c565b608081815250503073ffffffffffffffffffffffffffffffffffffffff1660c08173ffffffffffffffffffffffffffffffffffffffff1660601b81525050806101208181525050505050505081600290805190602001906200017392919062000661565b5080600390805190602001906200018c92919062000661565b5050506001600a8190555060648310620001dd576040517f08c379a0000000000000000000000000000000000000000000000000000000008152600401620001d490620009de565b60405180910390fd5b600083101562000224576040517f08c379a00000000000000000000000000000000000000000000000000000000081526004016200021b90620009bc565b60405180910390fd5b620002567fe2f4eaae4a9751e85a3e4a7b9587827a877f29914755229b07a7b2da98285f70856200033960201b60201c565b83600b60006101000a81548173ffffffffffffffffffffffffffffffffffffffff021916908373ffffffffffffffffffffffffffffffffffffffff16021790555082600c8190555081600d60006101000a81548173ffffffffffffffffffffffffffffffffffffffff021916908373ffffffffffffffffffffffffffffffffffffffff160217905550620002f184826200034f60201b60201c565b50505050505062000d51565b600083838346306040516020016200031a9594939291906200095f565b6040516020818303038152906040528051906020012090509392505050565b6200034b8282620004f260201b60201c565b5050565b6200035f620005e460201b60201c565b6bffffffffffffffffffffffff16816bffffffffffffffffffffffff161115620003c0576040517f08c379a0000000000000000000000000000000000000000000000000000000008152600401620003b79062000a00565b60405180910390fd5b600073ffffffffffffffffffffffffffffffffffffffff168273ffffffffffffffffffffffffffffffffffffffff16141562000433576040517f08c379a00000000000000000000000000000000000000000000000000000000081526004016200042a9062000a22565b60405180910390fd5b60405180604001604052808373ffffffffffffffffffffffffffffffffffffffff168152602001826bffffffffffffffffffffffff168152506000808201518160000160006101000a81548173ffffffffffffffffffffffffffffffffffffffff021916908373ffffffffffffffffffffffffffffffffffffffff16021790555060208201518160000160146101000a8154816bffffffffffffffffffffffff02191690836bffffffffffffffffffffffff1602179055509050505050565b620005048282620005ee60201b60201c565b620005e05760016009600084815260200190815260200160002060000160008373ffffffffffffffffffffffffffffffffffffffff1673ffffffffffffffffffffffffffffffffffffffff16815260200190815260200160002060006101000a81548160ff021916908315150217905550620005856200065960201b60201c565b73ffffffffffffffffffffffffffffffffffffffff168173ffffffffffffffffffffffffffffffffffffffff16837f2f8788117e7eff1d82e926ec794901d17c78024a50270940304540a733656f0d60405160405180910390a45b5050565b6000612710905090565b60006009600084815260200190815260200160002060000160008373ffffffffffffffffffffffffffffffffffffffff1673ffffffffffffffffffffffffffffffffffffffff16815260200190815260200160002060009054906101000a900460ff16905092915050565b600033905090565b8280546200066f9062000b5e565b90600052602060002090601f016020900481019282620006935760008555620006df565b82601f10620006ae57805160ff1916838001178555620006df565b82800160010185558215620006df579182015b82811115620006de578251825591602001919060010190620006c1565b5b509050620006ee9190620006f2565b5090565b5b808211156200070d576000816000905550600101620006f3565b5090565b600062000728620007228462000a6d565b62000a44565b9050828152602081018484840111156200074157600080fd5b6200074e84828562000b28565b509392505050565b600081519050620007678162000d03565b92915050565b600082601f8301126200077f57600080fd5b81516200079184826020860162000711565b91505092915050565b600081519050620007ab8162000d1d565b92915050565b600081519050620007c28162000d37565b92915050565b60008060008060008060c08789031215620007e257600080fd5b600087015167ffffffffffffffff811115620007fd57600080fd5b6200080b89828a016200076d565b965050602087015167ffffffffffffffff8111156200082957600080fd5b6200083789828a016200076d565b95505060406200084a89828a0162000756565b94505060606200085d89828a016200079a565b93505060806200087089828a0162000756565b92505060a06200088389828a01620007b1565b9150509295509295509295565b6200089b8162000ab4565b82525050565b620008ac8162000adc565b82525050565b6000620008c1601b8362000aa3565b9150620008ce8262000c39565b602082019050919050565b6000620008e860118362000aa3565b9150620008f58262000c62565b602082019050919050565b60006200090f602a8362000aa3565b91506200091c8262000c8b565b604082019050919050565b60006200093660198362000aa3565b9150620009438262000cda565b602082019050919050565b620009598162000b06565b82525050565b600060a082019050620009766000830188620008a1565b620009856020830187620008a1565b620009946040830186620008a1565b620009a360608301856200094e565b620009b2608083018462000890565b9695505050505050565b60006020820190508181036000830152620009d781620008b2565b9050919050565b60006020820190508181036000830152620009f981620008d9565b9050919050565b6000602082019050818103600083015262000a1b8162000900565b9050919050565b6000602082019050818103600083015262000a3d8162000927565b9050919050565b600062000a5062000a63565b905062000a5e828262000b94565b919050565b6000604051905090565b600067ffffffffffffffff82111562000a8b5762000a8a62000bf9565b5b62000a968262000c28565b9050602081019050919050565b600082825260208201905092915050565b600062000ac18262000ae6565b9050919050565b600062000ad58262000ae6565b9050919050565b6000819050919050565b600073ffffffffffffffffffffffffffffffffffffffff82169050919050565b6000819050919050565b60006bffffffffffffffffffffffff82169050919050565b60005b8381101562000b4857808201518184015260208101905062000b2b565b8381111562000b58576000848401525b50505050565b6000600282049050600182168062000b7757607f821691505b6020821081141562000b8e5762000b8d62000bca565b5b50919050565b62000b9f8262000c28565b810181811067ffffffffffffffff8211171562000bc15762000bc062000bf9565b5b80604052505050565b7f4e487b7100000000000000000000000000000000000000000000000000000000600052602260045260246000fd5b7f4e487b7100000000000000000000000000000000000000000000000000000000600052604160045260246000fd5b6000601f19601f8301169050919050565b7f76616465654665652073686f756c6420626520706f7369746976650000000000600082015250565b7f766164656546656520746f6f2068696768000000000000000000000000000000600082015250565b7f455243323938313a20726f79616c7479206665652077696c6c2065786365656460008201527f2073616c65507269636500000000000000000000000000000000000000000000602082015250565b7f455243323938313a20696e76616c696420726563656976657200000000000000600082015250565b62000d0e8162000ac8565b811462000d1a57600080fd5b50565b62000d288162000b06565b811462000d3457600080fd5b50565b62000d428162000b10565b811462000d4e57600080fd5b50565b60805160a05160c05160601c60e0516101005161012051614d7062000da46000396000612e7801526000612eba01526000612e9901526000612dce01526000612e2401526000612e4d0152614d706000f3fe6080604052600436106101405760003560e01c80636352211e116100b6578063a22cb4651161006f578063a22cb46514610495578063ac6a9d4f146104be578063b88d4fde146104da578063c87b56dd14610503578063d547741f14610540578063e985e9c51461056957610140565b80636352211e1461035d57806370a082311461039a57806391d14854146103d757806395d89b4114610414578063a1ebf35d1461043f578063a217fddf1461046a57610140565b8063248a9ca311610108578063248a9ca31461023c5780632a55205a146102795780632f2ff15d146102b757806336568abe146102e057806342842e0e14610309578063564b81ef1461033257610140565b806301ffc9a71461014557806306fdde0314610182578063081812fc146101ad578063095ea7b3146101ea57806323b872dd14610213575b600080fd5b34801561015157600080fd5b5061016c600480360381019061016791906134c2565b6105a6565b6040516101799190613bd8565b60405180910390f35b34801561018e57600080fd5b506101976105d8565b6040516101a49190613d33565b60405180910390f35b3480156101b957600080fd5b506101d460048036038101906101cf9190613514565b61066a565b6040516101e19190613b48565b60405180910390f35b3480156101f657600080fd5b50610211600480360381019061020c9190613421565b6106ef565b005b34801561021f57600080fd5b5061023a600480360381019061023591906132c7565b610807565b005b34801561024857600080fd5b50610263600480360381019061025e919061345d565b610867565b6040516102709190613bf3565b60405180910390f35b34801561028557600080fd5b506102a0600480360381019061029b919061353d565b610887565b6040516102ae929190613baf565b60405180910390f35b3480156102c357600080fd5b506102de60048036038101906102d99190613486565b610a72565b005b3480156102ec57600080fd5b5061030760048036038101906103029190613486565b610a9b565b005b34801561031557600080fd5b50610330600480360381019061032b91906132c7565b610b1e565b005b34801561033e57600080fd5b50610347610b3e565b6040516103549190614095565b60405180910390f35b34801561036957600080fd5b50610384600480360381019061037f9190613514565b610b4b565b6040516103919190613b48565b60405180910390f35b3480156103a657600080fd5b506103c160048036038101906103bc9190613262565b610bfd565b6040516103ce9190614095565b60405180910390f35b3480156103e357600080fd5b506103fe60048036038101906103f99190613486565b610cb5565b60405161040b9190613bd8565b60405180910390f35b34801561042057600080fd5b50610429610d20565b6040516104369190613d33565b60405180910390f35b34801561044b57600080fd5b50610454610db2565b6040516104619190613bf3565b60405180910390f35b34801561047657600080fd5b5061047f610dd6565b60405161048c9190613bf3565b60405180910390f35b3480156104a157600080fd5b506104bc60048036038101906104b79190613391565b610ddd565b005b6104d860048036038101906104d391906133cd565b610df3565b005b3480156104e657600080fd5b5061050160048036038101906104fc9190613316565b611103565b005b34801561050f57600080fd5b5061052a60048036038101906105259190613514565b611165565b6040516105379190613d33565b60405180910390f35b34801561054c57600080fd5b5061056760048036038101906105629190613486565b611177565b005b34801561057557600080fd5b50610590600480360381019061058b919061328b565b6111a0565b60405161059d9190613bd8565b60405180910390f35b60006105b182611234565b806105c157506105c082611316565b5b806105d157506105d082611390565b5b9050919050565b6060600280546105e79061440e565b80601f01602080910402602001604051908101604052809291908181526020018280546106139061440e565b80156106605780601f1061063557610100808354040283529160200191610660565b820191906000526020600020905b81548152906001019060200180831161064357829003601f168201915b5050505050905090565b6000610675826113a2565b6106b4576040517f08c379a00000000000000000000000000000000000000000000000000000000081526004016106ab90613f95565b60405180910390fd5b6006600083815260200190815260200160002060009054906101000a900473ffffffffffffffffffffffffffffffffffffffff169050919050565b60006106fa82610b4b565b90508073ffffffffffffffffffffffffffffffffffffffff168373ffffffffffffffffffffffffffffffffffffffff16141561076b576040517f08c379a000000000000000000000000000000000000000000000000000000000815260040161076290613ff5565b60405180910390fd5b8073ffffffffffffffffffffffffffffffffffffffff1661078a61140e565b73ffffffffffffffffffffffffffffffffffffffff1614806107b957506107b8816107b361140e565b6111a0565b5b6107f8576040517f08c379a00000000000000000000000000000000000000000000000000000000081526004016107ef90613eb5565b60405180910390fd5b6108028383611416565b505050565b61081861081261140e565b826114cf565b610857576040517f08c379a000000000000000000000000000000000000000000000000000000000815260040161084e90614035565b60405180910390fd5b6108628383836115ad565b505050565b600060096000838152602001908152602001600020600101549050919050565b6000806000600160008681526020019081526020016000206040518060400160405290816000820160009054906101000a900473ffffffffffffffffffffffffffffffffffffffff1673ffffffffffffffffffffffffffffffffffffffff1673ffffffffffffffffffffffffffffffffffffffff1681526020016000820160149054906101000a90046bffffffffffffffffffffffff166bffffffffffffffffffffffff166bffffffffffffffffffffffff16815250509050600073ffffffffffffffffffffffffffffffffffffffff16816000015173ffffffffffffffffffffffffffffffffffffffff161415610a1d5760006040518060400160405290816000820160009054906101000a900473ffffffffffffffffffffffffffffffffffffffff1673ffffffffffffffffffffffffffffffffffffffff1673ffffffffffffffffffffffffffffffffffffffff1681526020016000820160149054906101000a90046bffffffffffffffffffffffff166bffffffffffffffffffffffff166bffffffffffffffffffffffff168152505090505b6000610a27611814565b6bffffffffffffffffffffffff1682602001516bffffffffffffffffffffffff1686610a539190614289565b610a5d9190614258565b90508160000151819350935050509250929050565b610a7b82610867565b610a8c81610a8761140e565b61181e565b610a9683836118bb565b505050565b610aa361140e565b73ffffffffffffffffffffffffffffffffffffffff168173ffffffffffffffffffffffffffffffffffffffff1614610b10576040517f08c379a0000000000000000000000000000000000000000000000000000000008152600401610b0790614075565b60405180910390fd5b610b1a828261199c565b5050565b610b3983838360405180602001604052806000815250611103565b505050565b6000804690508091505090565b6000806004600084815260200190815260200160002060009054906101000a900473ffffffffffffffffffffffffffffffffffffffff169050600073ffffffffffffffffffffffffffffffffffffffff168173ffffffffffffffffffffffffffffffffffffffff161415610bf4576040517f08c379a0000000000000000000000000000000000000000000000000000000008152600401610beb90613ef5565b60405180910390fd5b80915050919050565b60008073ffffffffffffffffffffffffffffffffffffffff168273ffffffffffffffffffffffffffffffffffffffff161415610c6e576040517f08c379a0000000000000000000000000000000000000000000000000000000008152600401610c6590613ed5565b60405180910390fd5b600560008373ffffffffffffffffffffffffffffffffffffffff1673ffffffffffffffffffffffffffffffffffffffff168152602001908152602001600020549050919050565b60006009600084815260200190815260200160002060000160008373ffffffffffffffffffffffffffffffffffffffff1673ffffffffffffffffffffffffffffffffffffffff16815260200190815260200160002060009054906101000a900460ff16905092915050565b606060038054610d2f9061440e565b80601f0160208091040260200160405190810160405280929190818152602001828054610d5b9061440e565b8015610da85780601f10610d7d57610100808354040283529160200191610da8565b820191906000526020600020905b815481529060010190602001808311610d8b57829003601f168201915b5050505050905090565b7fe2f4eaae4a9751e85a3e4a7b9587827a877f29914755229b07a7b2da98285f7081565b6000801b81565b610def610de861140e565b8383611a7e565b5050565b6002600a541415610e39576040517f08c379a0000000000000000000000000000000000000000000000000000000008152600401610e3090614055565b60405180910390fd5b6002600a819055506000610e4c82611beb565b905081608001353414610e94576040517f08c379a0000000000000000000000000000000000000000000000000000000008152600401610e8b90614015565b60405180910390fd5b8273ffffffffffffffffffffffffffffffffffffffff168173ffffffffffffffffffffffffffffffffffffffff161415610f03576040517f08c379a0000000000000000000000000000000000000000000000000000000008152600401610efa90613db5565b60405180910390fd5b610f2d7fe2f4eaae4a9751e85a3e4a7b9587827a877f29914755229b07a7b2da98285f7082610cb5565b610f6c576040517f08c379a0000000000000000000000000000000000000000000000000000000008152600401610f6390613fb5565b60405180910390fd5b60003490508173ffffffffffffffffffffffffffffffffffffffff166108fc600c546064610f9a91906142e3565b83610fa591906142e3565b9081150290604051600060405180830381858888f19350505050158015610fd0573d6000803e3d6000fd5b50600d60009054906101000a900473ffffffffffffffffffffffffffffffffffffffff1673ffffffffffffffffffffffffffffffffffffffff166108fc600c548361101b9190614289565b9081150290604051600060405180830381858888f19350505050158015611046573d6000803e3d6000fd5b50611055828460200135611c5e565b6110b58360200135848060c0019061106d9190614107565b8080601f016020809104026020016040519081016040528093929190818152602001838380828437600081840152601f19601f82011690508083019250505050505050611e38565b6110c4828585602001356115ad565b82602001357fe925326602e433d1e45b5c79b4ff305e4a75ea3a9c63be961abb9e36bd29b47c60405160405180910390a250506001600a819055505050565b61111461110e61140e565b836114cf565b611153576040517f08c379a000000000000000000000000000000000000000000000000000000000815260040161114a90614035565b60405180910390fd5b61115f84848484611eac565b50505050565b606061117082611f08565b9050919050565b61118082610867565b6111918161118c61140e565b61181e565b61119b838361199c565b505050565b6000600760008473ffffffffffffffffffffffffffffffffffffffff1673ffffffffffffffffffffffffffffffffffffffff16815260200190815260200160002060008373ffffffffffffffffffffffffffffffffffffffff1673ffffffffffffffffffffffffffffffffffffffff16815260200190815260200160002060009054906101000a900460ff16905092915050565b60007f80ac58cd000000000000000000000000000000000000000000000000000000007bffffffffffffffffffffffffffffffffffffffffffffffffffffffff1916827bffffffffffffffffffffffffffffffffffffffffffffffffffffffff191614806112ff57507f5b5e139f000000000000000000000000000000000000000000000000000000007bffffffffffffffffffffffffffffffffffffffffffffffffffffffff1916827bffffffffffffffffffffffffffffffffffffffffffffffffffffffff1916145b8061130f575061130e8261205a565b5b9050919050565b60007f7965db0b000000000000000000000000000000000000000000000000000000007bffffffffffffffffffffffffffffffffffffffffffffffffffffffff1916827bffffffffffffffffffffffffffffffffffffffffffffffffffffffff19161480611389575061138882611390565b5b9050919050565b600061139b82611234565b9050919050565b60008073ffffffffffffffffffffffffffffffffffffffff166004600084815260200190815260200160002060009054906101000a900473ffffffffffffffffffffffffffffffffffffffff1673ffffffffffffffffffffffffffffffffffffffff1614159050919050565b600033905090565b816006600083815260200190815260200160002060006101000a81548173ffffffffffffffffffffffffffffffffffffffff021916908373ffffffffffffffffffffffffffffffffffffffff160217905550808273ffffffffffffffffffffffffffffffffffffffff1661148983610b4b565b73ffffffffffffffffffffffffffffffffffffffff167f8c5be1e5ebec7d5bd14f71427d1e84f3dd0314c0f7b2291e5b200ac8c7c3b92560405160405180910390a45050565b60006114da826113a2565b611519576040517f08c379a000000000000000000000000000000000000000000000000000000000815260040161151090613e95565b60405180910390fd5b600061152483610b4b565b90508073ffffffffffffffffffffffffffffffffffffffff168473ffffffffffffffffffffffffffffffffffffffff16148061159357508373ffffffffffffffffffffffffffffffffffffffff1661157b8461066a565b73ffffffffffffffffffffffffffffffffffffffff16145b806115a457506115a381856111a0565b5b91505092915050565b8273ffffffffffffffffffffffffffffffffffffffff166115cd82610b4b565b73ffffffffffffffffffffffffffffffffffffffff1614611623576040517f08c379a000000000000000000000000000000000000000000000000000000000815260040161161a90613df5565b60405180910390fd5b600073ffffffffffffffffffffffffffffffffffffffff168273ffffffffffffffffffffffffffffffffffffffff161415611693576040517f08c379a000000000000000000000000000000000000000000000000000000000815260040161168a90613e35565b60405180910390fd5b61169e8383836120d4565b6116a9600082611416565b6001600560008573ffffffffffffffffffffffffffffffffffffffff1673ffffffffffffffffffffffffffffffffffffffff16815260200190815260200160002060008282546116f991906142e3565b925050819055506001600560008473ffffffffffffffffffffffffffffffffffffffff1673ffffffffffffffffffffffffffffffffffffffff16815260200190815260200160002060008282546117509190614202565b92505081905550816004600083815260200190815260200160002060006101000a81548173ffffffffffffffffffffffffffffffffffffffff021916908373ffffffffffffffffffffffffffffffffffffffff160217905550808273ffffffffffffffffffffffffffffffffffffffff168473ffffffffffffffffffffffffffffffffffffffff167fddf252ad1be2c89b69c2b068fc378daa952ba7f163c4a11628f55a4df523b3ef60405160405180910390a461180f8383836120d9565b505050565b6000612710905090565b6118288282610cb5565b6118b75761184d8173ffffffffffffffffffffffffffffffffffffffff1660146120de565b61185b8360001c60206120de565b60405160200161186c929190613b0e565b6040516020818303038152906040526040517f08c379a00000000000000000000000000000000000000000000000000000000081526004016118ae9190613d33565b60405180910390fd5b5050565b6118c58282610cb5565b6119985760016009600084815260200190815260200160002060000160008373ffffffffffffffffffffffffffffffffffffffff1673ffffffffffffffffffffffffffffffffffffffff16815260200190815260200160002060006101000a81548160ff02191690831515021790555061193d61140e565b73ffffffffffffffffffffffffffffffffffffffff168173ffffffffffffffffffffffffffffffffffffffff16837f2f8788117e7eff1d82e926ec794901d17c78024a50270940304540a733656f0d60405160405180910390a45b5050565b6119a68282610cb5565b15611a7a5760006009600084815260200190815260200160002060000160008373ffffffffffffffffffffffffffffffffffffffff1673ffffffffffffffffffffffffffffffffffffffff16815260200190815260200160002060006101000a81548160ff021916908315150217905550611a1f61140e565b73ffffffffffffffffffffffffffffffffffffffff168173ffffffffffffffffffffffffffffffffffffffff16837ff6391f5c32d9c69d2a47ea670b442974b53935d1edc7fd64eb21e047a839171b60405160405180910390a45b5050565b8173ffffffffffffffffffffffffffffffffffffffff168373ffffffffffffffffffffffffffffffffffffffff161415611aed576040517f08c379a0000000000000000000000000000000000000000000000000000000008152600401611ae490613e55565b60405180910390fd5b80600760008573ffffffffffffffffffffffffffffffffffffffff1673ffffffffffffffffffffffffffffffffffffffff16815260200190815260200160002060008473ffffffffffffffffffffffffffffffffffffffff1673ffffffffffffffffffffffffffffffffffffffff16815260200190815260200160002060006101000a81548160ff0219169083151502179055508173ffffffffffffffffffffffffffffffffffffffff168373ffffffffffffffffffffffffffffffffffffffff167f17307eab39ab6107e8899845ad3d59bd9653f200f220920489ca2b5937696c3183604051611bde9190613bd8565b60405180910390a3505050565b600080611bf7836123d8565b9050611c568184806101000190611c0e91906140b0565b8080601f016020809104026020016040519081016040528093929190818152602001838380828437600081840152601f19601f82011690508083019250505050505050612526565b915050919050565b600073ffffffffffffffffffffffffffffffffffffffff168273ffffffffffffffffffffffffffffffffffffffff161415611cce576040517f08c379a0000000000000000000000000000000000000000000000000000000008152600401611cc590613f55565b60405180910390fd5b611cd7816113a2565b15611d17576040517f08c379a0000000000000000000000000000000000000000000000000000000008152600401611d0e90613e15565b60405180910390fd5b611d23600083836120d4565b6001600560008473ffffffffffffffffffffffffffffffffffffffff1673ffffffffffffffffffffffffffffffffffffffff1681526020019081526020016000206000828254611d739190614202565b92505081905550816004600083815260200190815260200160002060006101000a81548173ffffffffffffffffffffffffffffffffffffffff021916908373ffffffffffffffffffffffffffffffffffffffff160217905550808273ffffffffffffffffffffffffffffffffffffffff16600073ffffffffffffffffffffffffffffffffffffffff167fddf252ad1be2c89b69c2b068fc378daa952ba7f163c4a11628f55a4df523b3ef60405160405180910390a4611e34600083836120d9565b5050565b611e41826113a2565b611e80576040517f08c379a0000000000000000000000000000000000000000000000000000000008152600401611e7790613f15565b60405180910390fd5b80600860008481526020019081526020016000209080519060200190611ea79291906130bd565b505050565b611eb78484846115ad565b611ec38484848461254d565b611f02576040517f08c379a0000000000000000000000000000000000000000000000000000000008152600401611ef990613dd5565b60405180910390fd5b50505050565b6060611f13826113a2565b611f52576040517f08c379a0000000000000000000000000000000000000000000000000000000008152600401611f4990613f75565b60405180910390fd5b6000600860008481526020019081526020016000208054611f729061440e565b80601f0160208091040260200160405190810160405280929190818152602001828054611f9e9061440e565b8015611feb5780601f10611fc057610100808354040283529160200191611feb565b820191906000526020600020905b815481529060010190602001808311611fce57829003601f168201915b505050505090506000611ffc6126e4565b9050600081511415612012578192505050612055565b60008251111561204757808260405160200161202f929190613ab3565b60405160208183030381529060405292505050612055565b612050846126fb565b925050505b919050565b60007f2a55205a000000000000000000000000000000000000000000000000000000007bffffffffffffffffffffffffffffffffffffffffffffffffffffffff1916827bffffffffffffffffffffffffffffffffffffffffffffffffffffffff191614806120cd57506120cc826127a2565b5b9050919050565b505050565b505050565b6060600060028360026120f19190614289565b6120fb9190614202565b67ffffffffffffffff81111561213a577f4e487b7100000000000000000000000000000000000000000000000000000000600052604160045260246000fd5b6040519080825280601f01601f19166020018201604052801561216c5781602001600182028036833780820191505090505b5090507f3000000000000000000000000000000000000000000000000000000000000000816000815181106121ca577f4e487b7100000000000000000000000000000000000000000000000000000000600052603260045260246000fd5b60200101907effffffffffffffffffffffffffffffffffffffffffffffffffffffffffffff1916908160001a9053507f780000000000000000000000000000000000000000000000000000000000000081600181518110612254577f4e487b7100000000000000000000000000000000000000000000000000000000600052603260045260246000fd5b60200101907effffffffffffffffffffffffffffffffffffffffffffffffffffffffffffff1916908160001a905350600060018460026122949190614289565b61229e9190614202565b90505b600181111561238a577f3031323334353637383961626364656600000000000000000000000000000000600f861660108110612306577f4e487b7100000000000000000000000000000000000000000000000000000000600052603260045260246000fd5b1a60f81b828281518110612343577f4e487b7100000000000000000000000000000000000000000000000000000000600052603260045260246000fd5b60200101907effffffffffffffffffffffffffffffffffffffffffffffffffffffffffffff1916908160001a905350600485901c945080612383906143e4565b90506122a1565b50600084146123ce576040517f08c379a00000000000000000000000000000000000000000000000000000000081526004016123c590613d75565b60405180910390fd5b8091505092915050565b600061251f7f8a4543536a07699fa90d70be7e25283d74ab9f38765bf394458acef3476205ad83806000019061240e9190614107565b60405161241c929190613a9a565b604051809103902084602001358580604001906124399190614107565b604051612447929190613a9a565b604051809103902086806060019061245f9190614107565b60405161246d929190613a9a565b60405180910390208760800135888060a0019061248a9190614107565b604051612498929190613a9a565b6040518091039020898060c001906124b09190614107565b6040516124be929190613a9a565b60405180910390208a8060e001906124d69190614107565b6040516124e4929190613a9a565b604051809103902060405160200161250499989796959493929190613c61565b6040516020818303038152906040528051906020012061280c565b9050919050565b60008060006125358585612826565b91509150612542816128a9565b819250505092915050565b600061256e8473ffffffffffffffffffffffffffffffffffffffff16612bfa565b156126d7578373ffffffffffffffffffffffffffffffffffffffff1663150b7a0261259761140e565b8786866040518563ffffffff1660e01b81526004016125b99493929190613b63565b602060405180830381600087803b1580156125d357600080fd5b505af192505050801561260457506040513d601f19601f8201168201806040525081019061260191906134eb565b60015b612687573d8060008114612634576040519150601f19603f3d011682016040523d82523d6000602084013e612639565b606091505b5060008151141561267f576040517f08c379a000000000000000000000000000000000000000000000000000000000815260040161267690613dd5565b60405180910390fd5b805181602001fd5b63150b7a0260e01b7bffffffffffffffffffffffffffffffffffffffffffffffffffffffff1916817bffffffffffffffffffffffffffffffffffffffffffffffffffffffff1916149150506126dc565b600190505b949350505050565b606060405180602001604052806000815250905090565b6060612706826113a2565b612745576040517f08c379a000000000000000000000000000000000000000000000000000000000815260040161273c90613fd5565b60405180910390fd5b600061274f6126e4565b9050600081511161276f576040518060200160405280600081525061279a565b8061277984612c1d565b60405160200161278a929190613ab3565b6040516020818303038152906040525b915050919050565b60007f01ffc9a7000000000000000000000000000000000000000000000000000000007bffffffffffffffffffffffffffffffffffffffffffffffffffffffff1916827bffffffffffffffffffffffffffffffffffffffffffffffffffffffff1916149050919050565b600061281f612819612dca565b83612ee4565b9050919050565b6000806041835114156128685760008060006020860151925060408601519150606086015160001a905061285c87828585612f17565b945094505050506128a2565b60408351141561289957600080602085015191506040850151905061288e868383613024565b9350935050506128a2565b60006002915091505b9250929050565b600060048111156128e3577f4e487b7100000000000000000000000000000000000000000000000000000000600052602160045260246000fd5b81600481111561291c577f4e487b7100000000000000000000000000000000000000000000000000000000600052602160045260246000fd5b141561292757612bf7565b60016004811115612961577f4e487b7100000000000000000000000000000000000000000000000000000000600052602160045260246000fd5b81600481111561299a577f4e487b7100000000000000000000000000000000000000000000000000000000600052602160045260246000fd5b14156129db576040517f08c379a00000000000000000000000000000000000000000000000000000000081526004016129d290613d55565b60405180910390fd5b60026004811115612a15577f4e487b7100000000000000000000000000000000000000000000000000000000600052602160045260246000fd5b816004811115612a4e577f4e487b7100000000000000000000000000000000000000000000000000000000600052602160045260246000fd5b1415612a8f576040517f08c379a0000000000000000000000000000000000000000000000000000000008152600401612a8690613d95565b60405180910390fd5b60036004811115612ac9577f4e487b7100000000000000000000000000000000000000000000000000000000600052602160045260246000fd5b816004811115612b02577f4e487b7100000000000000000000000000000000000000000000000000000000600052602160045260246000fd5b1415612b43576040517f08c379a0000000000000000000000000000000000000000000000000000000008152600401612b3a90613e75565b60405180910390fd5b600480811115612b7c577f4e487b7100000000000000000000000000000000000000000000000000000000600052602160045260246000fd5b816004811115612bb5577f4e487b7100000000000000000000000000000000000000000000000000000000600052602160045260246000fd5b1415612bf6576040517f08c379a0000000000000000000000000000000000000000000000000000000008152600401612bed90613f35565b60405180910390fd5b5b50565b6000808273ffffffffffffffffffffffffffffffffffffffff163b119050919050565b60606000821415612c65576040518060400160405280600181526020017f30000000000000000000000000000000000000000000000000000000000000008152509050612dc5565b600082905060005b60008214612c97578080612c8090614471565b915050600a82612c909190614258565b9150612c6d565b60008167ffffffffffffffff811115612cd9577f4e487b7100000000000000000000000000000000000000000000000000000000600052604160045260246000fd5b6040519080825280601f01601f191660200182016040528015612d0b5781602001600182028036833780820191505090505b5090505b60008514612dbe57600182612d2491906142e3565b9150600a85612d3391906144c4565b6030612d3f9190614202565b60f81b818381518110612d7b577f4e487b7100000000000000000000000000000000000000000000000000000000600052603260045260246000fd5b60200101907effffffffffffffffffffffffffffffffffffffffffffffffffffffffffffff1916908160001a905350600a85612db79190614258565b9450612d0f565b8093505050505b919050565b60007f000000000000000000000000000000000000000000000000000000000000000073ffffffffffffffffffffffffffffffffffffffff163073ffffffffffffffffffffffffffffffffffffffff16148015612e4657507f000000000000000000000000000000000000000000000000000000000000000046145b15612e73577f00000000000000000000000000000000000000000000000000000000000000009050612ee1565b612ede7f00000000000000000000000000000000000000000000000000000000000000007f00000000000000000000000000000000000000000000000000000000000000007f0000000000000000000000000000000000000000000000000000000000000000613083565b90505b90565b60008282604051602001612ef9929190613ad7565b60405160208183030381529060405280519060200120905092915050565b6000807f7fffffffffffffffffffffffffffffff5d576e7357a4501ddfe92f46681b20a08360001c1115612f5257600060039150915061301b565b601b8560ff1614158015612f6a5750601c8560ff1614155b15612f7c57600060049150915061301b565b600060018787878760405160008152602001604052604051612fa19493929190613cee565b6020604051602081039080840390855afa158015612fc3573d6000803e3d6000fd5b505050602060405103519050600073ffffffffffffffffffffffffffffffffffffffff168173ffffffffffffffffffffffffffffffffffffffff1614156130125760006001925092505061301b565b80600092509250505b94509492505050565b60008060007f7fffffffffffffffffffffffffffffffffffffffffffffffffffffffffffffff60001b841690506000601b60ff8660001c901c6130679190614202565b905061307587828885612f17565b935093505050935093915050565b6000838383463060405160200161309e959493929190613c0e565b6040516020818303038152906040528051906020012090509392505050565b8280546130c99061440e565b90600052602060002090601f0160209004810192826130eb5760008555613132565b82601f1061310457805160ff1916838001178555613132565b82800160010185558215613132579182015b82811115613131578251825591602001919060010190613116565b5b50905061313f9190613143565b5090565b5b8082111561315c576000816000905550600101613144565b5090565b600061317361316e84614183565b61415e565b90508281526020810184848401111561318b57600080fd5b6131968482856143a2565b509392505050565b6000813590506131ad81614cc7565b92915050565b6000813590506131c281614cde565b92915050565b6000813590506131d781614cf5565b92915050565b6000813590506131ec81614d0c565b92915050565b60008151905061320181614d0c565b92915050565b600082601f83011261321857600080fd5b8135613228848260208601613160565b91505092915050565b6000610120828403121561324457600080fd5b81905092915050565b60008135905061325c81614d23565b92915050565b60006020828403121561327457600080fd5b60006132828482850161319e565b91505092915050565b6000806040838503121561329e57600080fd5b60006132ac8582860161319e565b92505060206132bd8582860161319e565b9150509250929050565b6000806000606084860312156132dc57600080fd5b60006132ea8682870161319e565b93505060206132fb8682870161319e565b925050604061330c8682870161324d565b9150509250925092565b6000806000806080858703121561332c57600080fd5b600061333a8782880161319e565b945050602061334b8782880161319e565b935050604061335c8782880161324d565b925050606085013567ffffffffffffffff81111561337957600080fd5b61338587828801613207565b91505092959194509250565b600080604083850312156133a457600080fd5b60006133b28582860161319e565b92505060206133c3858286016131b3565b9150509250929050565b600080604083850312156133e057600080fd5b60006133ee8582860161319e565b925050602083013567ffffffffffffffff81111561340b57600080fd5b61341785828601613231565b9150509250929050565b6000806040838503121561343457600080fd5b60006134428582860161319e565b92505060206134538582860161324d565b9150509250929050565b60006020828403121561346f57600080fd5b600061347d848285016131c8565b91505092915050565b6000806040838503121561349957600080fd5b60006134a7858286016131c8565b92505060206134b88582860161319e565b9150509250929050565b6000602082840312156134d457600080fd5b60006134e2848285016131dd565b91505092915050565b6000602082840312156134fd57600080fd5b600061350b848285016131f2565b91505092915050565b60006020828403121561352657600080fd5b60006135348482850161324d565b91505092915050565b6000806040838503121561355057600080fd5b600061355e8582860161324d565b925050602061356f8582860161324d565b9150509250929050565b61358281614317565b82525050565b61359181614329565b82525050565b6135a081614335565b82525050565b6135b76135b282614335565b6144ba565b82525050565b60006135c983856141db565b93506135d68385846143a2565b82840190509392505050565b60006135ed826141b4565b6135f781856141ca565b93506136078185602086016143b1565b613610816145b1565b840191505092915050565b6000613626826141bf565b61363081856141e6565b93506136408185602086016143b1565b613649816145b1565b840191505092915050565b600061365f826141bf565b61366981856141f7565b93506136798185602086016143b1565b80840191505092915050565b60006136926018836141e6565b915061369d826145c2565b602082019050919050565b60006136b56020836141e6565b91506136c0826145eb565b602082019050919050565b60006136d8601f836141e6565b91506136e382614614565b602082019050919050565b60006136fb6016836141e6565b91506137068261463d565b602082019050919050565b600061371e6032836141e6565b915061372982614666565b604082019050919050565b60006137416025836141e6565b915061374c826146b5565b604082019050919050565b6000613764601c836141e6565b915061376f82614704565b602082019050919050565b60006137876002836141f7565b91506137928261472d565b600282019050919050565b60006137aa6024836141e6565b91506137b582614756565b604082019050919050565b60006137cd6019836141e6565b91506137d8826147a5565b602082019050919050565b60006137f06022836141e6565b91506137fb826147ce565b604082019050919050565b6000613813602c836141e6565b915061381e8261481d565b604082019050919050565b60006138366038836141e6565b91506138418261486c565b604082019050919050565b6000613859602a836141e6565b9150613864826148bb565b604082019050919050565b600061387c6029836141e6565b91506138878261490a565b604082019050919050565b600061389f602e836141e6565b91506138aa82614959565b604082019050919050565b60006138c26022836141e6565b91506138cd826149a8565b604082019050919050565b60006138e56020836141e6565b91506138f0826149f7565b602082019050919050565b60006139086031836141e6565b915061391382614a20565b604082019050919050565b600061392b602c836141e6565b915061393682614a6f565b604082019050919050565b600061394e6011836141e6565b915061395982614abe565b602082019050919050565b6000613971602f836141e6565b915061397c82614ae7565b604082019050919050565b60006139946021836141e6565b915061399f82614b36565b604082019050919050565b60006139b76017836141e6565b91506139c282614b85565b602082019050919050565b60006139da6031836141e6565b91506139e582614bae565b604082019050919050565b60006139fd6017836141f7565b9150613a0882614bfd565b601782019050919050565b6000613a20601f836141e6565b9150613a2b82614c26565b602082019050919050565b6000613a436011836141f7565b9150613a4e82614c4f565b601182019050919050565b6000613a66602f836141e6565b9150613a7182614c78565b604082019050919050565b613a858161438b565b82525050565b613a9481614395565b82525050565b6000613aa78284866135bd565b91508190509392505050565b6000613abf8285613654565b9150613acb8284613654565b91508190509392505050565b6000613ae28261377a565b9150613aee82856135a6565b602082019150613afe82846135a6565b6020820191508190509392505050565b6000613b19826139f0565b9150613b258285613654565b9150613b3082613a36565b9150613b3c8284613654565b91508190509392505050565b6000602082019050613b5d6000830184613579565b92915050565b6000608082019050613b786000830187613579565b613b856020830186613579565b613b926040830185613a7c565b8181036060830152613ba481846135e2565b905095945050505050565b6000604082019050613bc46000830185613579565b613bd16020830184613a7c565b9392505050565b6000602082019050613bed6000830184613588565b92915050565b6000602082019050613c086000830184613597565b92915050565b600060a082019050613c236000830188613597565b613c306020830187613597565b613c3d6040830186613597565b613c4a6060830185613a7c565b613c576080830184613579565b9695505050505050565b600061012082019050613c77600083018c613597565b613c84602083018b613597565b613c91604083018a613a7c565b613c9e6060830189613597565b613cab6080830188613597565b613cb860a0830187613a7c565b613cc560c0830186613597565b613cd260e0830185613597565b613ce0610100830184613597565b9a9950505050505050505050565b6000608082019050613d036000830187613597565b613d106020830186613a8b565b613d1d6040830185613597565b613d2a6060830184613597565b95945050505050565b60006020820190508181036000830152613d4d818461361b565b905092915050565b60006020820190508181036000830152613d6e81613685565b9050919050565b60006020820190508181036000830152613d8e816136a8565b9050919050565b60006020820190508181036000830152613dae816136cb565b9050919050565b60006020820190508181036000830152613dce816136ee565b9050919050565b60006020820190508181036000830152613dee81613711565b9050919050565b60006020820190508181036000830152613e0e81613734565b9050919050565b60006020820190508181036000830152613e2e81613757565b9050919050565b60006020820190508181036000830152613e4e8161379d565b9050919050565b60006020820190508181036000830152613e6e816137c0565b9050919050565b60006020820190508181036000830152613e8e816137e3565b9050919050565b60006020820190508181036000830152613eae81613806565b9050919050565b60006020820190508181036000830152613ece81613829565b9050919050565b60006020820190508181036000830152613eee8161384c565b9050919050565b60006020820190508181036000830152613f0e8161386f565b9050919050565b60006020820190508181036000830152613f2e81613892565b9050919050565b60006020820190508181036000830152613f4e816138b5565b9050919050565b60006020820190508181036000830152613f6e816138d8565b9050919050565b60006020820190508181036000830152613f8e816138fb565b9050919050565b60006020820190508181036000830152613fae8161391e565b9050919050565b60006020820190508181036000830152613fce81613941565b9050919050565b60006020820190508181036000830152613fee81613964565b9050919050565b6000602082019050818103600083015261400e81613987565b9050919050565b6000602082019050818103600083015261402e816139aa565b9050919050565b6000602082019050818103600083015261404e816139cd565b9050919050565b6000602082019050818103600083015261406e81613a13565b9050919050565b6000602082019050818103600083015261408e81613a59565b9050919050565b60006020820190506140aa6000830184613a7c565b92915050565b600080833560016020038436030381126140c957600080fd5b80840192508235915067ffffffffffffffff8211156140e757600080fd5b6020830192506001820236038313156140ff57600080fd5b509250929050565b6000808335600160200384360303811261412057600080fd5b80840192508235915067ffffffffffffffff82111561413e57600080fd5b60208301925060018202360383131561415657600080fd5b509250929050565b6000614168614179565b90506141748282614440565b919050565b6000604051905090565b600067ffffffffffffffff82111561419e5761419d614582565b5b6141a7826145b1565b9050602081019050919050565b600081519050919050565b600081519050919050565b600082825260208201905092915050565b600081905092915050565b600082825260208201905092915050565b600081905092915050565b600061420d8261438b565b91506142188361438b565b9250827fffffffffffffffffffffffffffffffffffffffffffffffffffffffffffffffff0382111561424d5761424c6144f5565b5b828201905092915050565b60006142638261438b565b915061426e8361438b565b92508261427e5761427d614524565b5b828204905092915050565b60006142948261438b565b915061429f8361438b565b9250817fffffffffffffffffffffffffffffffffffffffffffffffffffffffffffffffff04831182151516156142d8576142d76144f5565b5b828202905092915050565b60006142ee8261438b565b91506142f98361438b565b92508282101561430c5761430b6144f5565b5b828203905092915050565b60006143228261436b565b9050919050565b60008115159050919050565b6000819050919050565b60007fffffffff0000000000000000000000000000000000000000000000000000000082169050919050565b600073ffffffffffffffffffffffffffffffffffffffff82169050919050565b6000819050919050565b600060ff82169050919050565b82818337600083830152505050565b60005b838110156143cf5780820151818401526020810190506143b4565b838111156143de576000848401525b50505050565b60006143ef8261438b565b91506000821415614403576144026144f5565b5b600182039050919050565b6000600282049050600182168061442657607f821691505b6020821081141561443a57614439614553565b5b50919050565b614449826145b1565b810181811067ffffffffffffffff8211171561446857614467614582565b5b80604052505050565b600061447c8261438b565b91507fffffffffffffffffffffffffffffffffffffffffffffffffffffffffffffffff8214156144af576144ae6144f5565b5b600182019050919050565b6000819050919050565b60006144cf8261438b565b91506144da8361438b565b9250826144ea576144e9614524565b5b828206905092915050565b7f4e487b7100000000000000000000000000000000000000000000000000000000600052601160045260246000fd5b7f4e487b7100000000000000000000000000000000000000000000000000000000600052601260045260246000fd5b7f4e487b7100000000000000000000000000000000000000000000000000000000600052602260045260246000fd5b7f4e487b7100000000000000000000000000000000000000000000000000000000600052604160045260246000fd5b6000601f19601f8301169050919050565b7f45434453413a20696e76616c6964207369676e61747572650000000000000000600082015250565b7f537472696e67733a20686578206c656e67746820696e73756666696369656e74600082015250565b7f45434453413a20696e76616c6964207369676e6174757265206c656e67746800600082015250565b7f6172746973742063616e6e6f7420707572636861736500000000000000000000600082015250565b7f4552433732313a207472616e7366657220746f206e6f6e20455243373231526560008201527f63656976657220696d706c656d656e7465720000000000000000000000000000602082015250565b7f4552433732313a207472616e736665722066726f6d20696e636f72726563742060008201527f6f776e6572000000000000000000000000000000000000000000000000000000602082015250565b7f4552433732313a20746f6b656e20616c7265616479206d696e74656400000000600082015250565b7f1901000000000000000000000000000000000000000000000000000000000000600082015250565b7f4552433732313a207472616e7366657220746f20746865207a65726f2061646460008201527f7265737300000000000000000000000000000000000000000000000000000000602082015250565b7f4552433732313a20617070726f766520746f2063616c6c657200000000000000600082015250565b7f45434453413a20696e76616c6964207369676e6174757265202773272076616c60008201527f7565000000000000000000000000000000000000000000000000000000000000602082015250565b7f4552433732313a206f70657261746f7220717565727920666f72206e6f6e657860008201527f697374656e7420746f6b656e0000000000000000000000000000000000000000602082015250565b7f4552433732313a20617070726f76652063616c6c6572206973206e6f74206f7760008201527f6e6572206e6f7220617070726f76656420666f7220616c6c0000000000000000602082015250565b7f4552433732313a2062616c616e636520717565727920666f7220746865207a6560008201527f726f206164647265737300000000000000000000000000000000000000000000602082015250565b7f4552433732313a206f776e657220717565727920666f72206e6f6e657869737460008201527f656e7420746f6b656e0000000000000000000000000000000000000000000000602082015250565b7f45524337323155524953746f726167653a2055524920736574206f66206e6f6e60008201527f6578697374656e7420746f6b656e000000000000000000000000000000000000602082015250565b7f45434453413a20696e76616c6964207369676e6174757265202776272076616c60008201527f7565000000000000000000000000000000000000000000000000000000000000602082015250565b7f4552433732313a206d696e7420746f20746865207a65726f2061646472657373600082015250565b7f45524337323155524953746f726167653a2055524920717565727920666f722060008201527f6e6f6e6578697374656e7420746f6b656e000000000000000000000000000000602082015250565b7f4552433732313a20617070726f76656420717565727920666f72206e6f6e657860008201527f697374656e7420746f6b656e0000000000000000000000000000000000000000602082015250565b7f496e76616c6964205369676e6174757265000000000000000000000000000000600082015250565b7f4552433732314d657461646174613a2055524920717565727920666f72206e6f60008201527f6e6578697374656e7420746f6b656e0000000000000000000000000000000000602082015250565b7f4552433732313a20617070726f76616c20746f2063757272656e74206f776e6560008201527f7200000000000000000000000000000000000000000000000000000000000000602082015250565b7f456e7465722074686520636f7272656374207072696365000000000000000000600082015250565b7f4552433732313a207472616e736665722063616c6c6572206973206e6f74206f60008201527f776e6572206e6f7220617070726f766564000000000000000000000000000000602082015250565b7f416363657373436f6e74726f6c3a206163636f756e7420000000000000000000600082015250565b7f5265656e7472616e637947756172643a207265656e7472616e742063616c6c00600082015250565b7f206973206d697373696e6720726f6c6520000000000000000000000000000000600082015250565b7f416363657373436f6e74726f6c3a2063616e206f6e6c792072656e6f756e636560008201527f20726f6c657320666f722073656c660000000000000000000000000000000000602082015250565b614cd081614317565b8114614cdb57600080fd5b50565b614ce781614329565b8114614cf257600080fd5b50565b614cfe81614335565b8114614d0957600080fd5b50565b614d158161433f565b8114614d2057600080fd5b50565b614d2c8161438b565b8114614d3757600080fd5b5056fea26469706673582212202fc7f9273401843c99d394a3ffddd05e930a51f4806c83a70e0c5ede8c02e88164736f6c63430008040033",
  "linkReferences": {},
  "deployedLinkReferences": {}
}