{
  "_format": "hh-sol-artifact-1",
  "contractName": "LazyFactory",
  "sourceName": "contracts/LazyFactory.sol",
  "abi": [
    {
      "inputs": [
        {
          "internalType": "address payable",
          "name": "usdt",
          "type": "address"
        }
      ],
      "stateMutability": "nonpayable",
      "type": "constructor"
    },
    {
      "anonymous": false,
      "inputs": [
        {
          "indexed": true,
          "internalType": "address",
          "name": "owner",
          "type": "address"
        },
        {
          "indexed": true,
          "internalType": "address",
          "name": "approved",
          "type": "address"
        },
        {
          "indexed": true,
          "internalType": "uint256",
          "name": "tokenId",
          "type": "uint256"
        }
      ],
      "name": "Approval",
      "type": "event"
    },
    {
      "anonymous": false,
      "inputs": [
        {
          "indexed": true,
          "internalType": "address",
          "name": "owner",
          "type": "address"
        },
        {
          "indexed": true,
          "internalType": "address",
          "name": "operator",
          "type": "address"
        },
        {
          "indexed": false,
          "internalType": "bool",
          "name": "approved",
          "type": "bool"
        }
      ],
      "name": "ApprovalForAll",
      "type": "event"
    },
    {
      "anonymous": false,
      "inputs": [
        {
          "indexed": true,
          "internalType": "address",
          "name": "artist",
          "type": "address"
        },
        {
          "indexed": true,
          "internalType": "uint256",
          "name": "tokenId",
          "type": "uint256"
        }
      ],
      "name": "RedeemedAndMinted",
      "type": "event"
    },
    {
      "anonymous": false,
      "inputs": [
        {
          "indexed": true,
          "internalType": "bytes32",
          "name": "role",
          "type": "bytes32"
        },
        {
          "indexed": true,
          "internalType": "bytes32",
          "name": "previousAdminRole",
          "type": "bytes32"
        },
        {
          "indexed": true,
          "internalType": "bytes32",
          "name": "newAdminRole",
          "type": "bytes32"
        }
      ],
      "name": "RoleAdminChanged",
      "type": "event"
    },
    {
      "anonymous": false,
      "inputs": [
        {
          "indexed": true,
          "internalType": "bytes32",
          "name": "role",
          "type": "bytes32"
        },
        {
          "indexed": true,
          "internalType": "address",
          "name": "account",
          "type": "address"
        },
        {
          "indexed": true,
          "internalType": "address",
          "name": "sender",
          "type": "address"
        }
      ],
      "name": "RoleGranted",
      "type": "event"
    },
    {
      "anonymous": false,
      "inputs": [
        {
          "indexed": true,
          "internalType": "bytes32",
          "name": "role",
          "type": "bytes32"
        },
        {
          "indexed": true,
          "internalType": "address",
          "name": "account",
          "type": "address"
        },
        {
          "indexed": true,
          "internalType": "address",
          "name": "sender",
          "type": "address"
        }
      ],
      "name": "RoleRevoked",
      "type": "event"
    },
    {
      "anonymous": false,
      "inputs": [
        {
          "indexed": true,
          "internalType": "address",
          "name": "from",
          "type": "address"
        },
        {
          "indexed": true,
          "internalType": "address",
          "name": "to",
          "type": "address"
        },
        {
          "indexed": true,
          "internalType": "uint256",
          "name": "tokenId",
          "type": "uint256"
        }
      ],
      "name": "Transfer",
      "type": "event"
    },
    {
      "inputs": [],
      "name": "DEFAULT_ADMIN_ROLE",
      "outputs": [
        {
          "internalType": "bytes32",
          "name": "",
          "type": "bytes32"
        }
      ],
      "stateMutability": "view",
      "type": "function"
    },
    {
      "inputs": [],
      "name": "SIGNER_ROLE",
      "outputs": [
        {
          "internalType": "bytes32",
          "name": "",
          "type": "bytes32"
        }
      ],
      "stateMutability": "view",
      "type": "function"
    },
    {
      "inputs": [
        {
          "internalType": "address",
          "name": "to",
          "type": "address"
        },
        {
          "internalType": "uint256",
          "name": "tokenId",
          "type": "uint256"
        }
      ],
      "name": "approve",
      "outputs": [],
      "stateMutability": "nonpayable",
      "type": "function"
    },
    {
      "inputs": [
        {
          "internalType": "address",
          "name": "owner",
          "type": "address"
        }
      ],
      "name": "balanceOf",
      "outputs": [
        {
          "internalType": "uint256",
          "name": "",
          "type": "uint256"
        }
      ],
      "stateMutability": "view",
      "type": "function"
    },
    {
      "inputs": [
        {
          "internalType": "uint256",
          "name": "tokenId",
          "type": "uint256"
        }
      ],
      "name": "getApproved",
      "outputs": [
        {
          "internalType": "address",
          "name": "",
          "type": "address"
        }
      ],
      "stateMutability": "view",
      "type": "function"
    },
    {
      "inputs": [],
      "name": "getChainID",
      "outputs": [
        {
          "internalType": "uint256",
          "name": "",
          "type": "uint256"
        }
      ],
      "stateMutability": "view",
      "type": "function"
    },
    {
      "inputs": [
        {
          "internalType": "bytes32",
          "name": "role",
          "type": "bytes32"
        }
      ],
      "name": "getRoleAdmin",
      "outputs": [
        {
          "internalType": "bytes32",
          "name": "",
          "type": "bytes32"
        }
      ],
      "stateMutability": "view",
      "type": "function"
    },
    {
      "inputs": [
        {
          "internalType": "bytes32",
          "name": "role",
          "type": "bytes32"
        },
        {
          "internalType": "address",
          "name": "account",
          "type": "address"
        }
      ],
      "name": "grantRole",
      "outputs": [],
      "stateMutability": "nonpayable",
      "type": "function"
    },
    {
      "inputs": [
        {
          "internalType": "bytes32",
          "name": "role",
          "type": "bytes32"
        },
        {
          "internalType": "address",
          "name": "account",
          "type": "address"
        }
      ],
      "name": "hasRole",
      "outputs": [
        {
          "internalType": "bool",
          "name": "",
          "type": "bool"
        }
      ],
      "stateMutability": "view",
      "type": "function"
    },
    {
      "inputs": [
        {
          "internalType": "address",
          "name": "owner",
          "type": "address"
        },
        {
          "internalType": "address",
          "name": "operator",
          "type": "address"
        }
      ],
      "name": "isApprovedForAll",
      "outputs": [
        {
          "internalType": "bool",
          "name": "",
          "type": "bool"
        }
      ],
      "stateMutability": "view",
      "type": "function"
    },
    {
      "inputs": [],
      "name": "name",
      "outputs": [
        {
          "internalType": "string",
          "name": "",
          "type": "string"
        }
      ],
      "stateMutability": "view",
      "type": "function"
    },
    {
      "inputs": [
        {
          "internalType": "uint256",
          "name": "tokenId",
          "type": "uint256"
        }
      ],
      "name": "ownerOf",
      "outputs": [
        {
          "internalType": "address",
          "name": "",
          "type": "address"
        }
      ],
      "stateMutability": "view",
      "type": "function"
    },
    {
      "inputs": [
        {
          "internalType": "address",
          "name": "buyer",
          "type": "address"
        },
        {
          "components": [
            {
              "internalType": "string",
              "name": "title",
              "type": "string"
            },
            {
              "internalType": "address",
              "name": "artist",
              "type": "address"
            },
            {
              "internalType": "uint256",
              "name": "artworkId",
              "type": "uint256"
            },
            {
              "internalType": "string",
              "name": "editionNumber",
              "type": "string"
            },
            {
              "internalType": "string",
              "name": "edition",
              "type": "string"
            },
            {
              "internalType": "uint256",
              "name": "priceDollar",
              "type": "uint256"
            },
            {
              "internalType": "string",
              "name": "tokenUri",
              "type": "string"
            },
            {
              "internalType": "uint96",
              "name": "vadeeFee",
              "type": "uint96"
            },
            {
              "internalType": "uint96",
              "name": "royaltyFee",
              "type": "uint96"
            },
            {
              "internalType": "bytes",
              "name": "signature",
              "type": "bytes"
            }
          ],
          "internalType": "struct LazyFactory.Voucher",
          "name": "voucher",
          "type": "tuple"
        }
      ],
      "name": "redeem",
      "outputs": [],
      "stateMutability": "nonpayable",
      "type": "function"
    },
    {
      "inputs": [
        {
          "internalType": "bytes32",
          "name": "role",
          "type": "bytes32"
        },
        {
          "internalType": "address",
          "name": "account",
          "type": "address"
        }
      ],
      "name": "renounceRole",
      "outputs": [],
      "stateMutability": "nonpayable",
      "type": "function"
    },
    {
      "inputs": [
        {
          "internalType": "bytes32",
          "name": "role",
          "type": "bytes32"
        },
        {
          "internalType": "address",
          "name": "account",
          "type": "address"
        }
      ],
      "name": "revokeRole",
      "outputs": [],
      "stateMutability": "nonpayable",
      "type": "function"
    },
    {
      "inputs": [
        {
          "internalType": "uint256",
          "name": "_tokenId",
          "type": "uint256"
        },
        {
          "internalType": "uint256",
          "name": "_salePrice",
          "type": "uint256"
        }
      ],
      "name": "royaltyInfo",
      "outputs": [
        {
          "internalType": "address",
          "name": "",
          "type": "address"
        },
        {
          "internalType": "uint256",
          "name": "",
          "type": "uint256"
        }
      ],
      "stateMutability": "view",
      "type": "function"
    },
    {
      "inputs": [
        {
          "internalType": "address",
          "name": "from",
          "type": "address"
        },
        {
          "internalType": "address",
          "name": "to",
          "type": "address"
        },
        {
          "internalType": "uint256",
          "name": "tokenId",
          "type": "uint256"
        }
      ],
      "name": "safeTransferFrom",
      "outputs": [],
      "stateMutability": "nonpayable",
      "type": "function"
    },
    {
      "inputs": [
        {
          "internalType": "address",
          "name": "from",
          "type": "address"
        },
        {
          "internalType": "address",
          "name": "to",
          "type": "address"
        },
        {
          "internalType": "uint256",
          "name": "tokenId",
          "type": "uint256"
        },
        {
          "internalType": "bytes",
          "name": "data",
          "type": "bytes"
        }
      ],
      "name": "safeTransferFrom",
      "outputs": [],
      "stateMutability": "nonpayable",
      "type": "function"
    },
    {
      "inputs": [
        {
          "internalType": "address",
          "name": "operator",
          "type": "address"
        },
        {
          "internalType": "bool",
          "name": "approved",
          "type": "bool"
        }
      ],
      "name": "setApprovalForAll",
      "outputs": [],
      "stateMutability": "nonpayable",
      "type": "function"
    },
    {
      "inputs": [
        {
          "internalType": "bytes4",
          "name": "interfaceId",
          "type": "bytes4"
        }
      ],
      "name": "supportsInterface",
      "outputs": [
        {
          "internalType": "bool",
          "name": "",
          "type": "bool"
        }
      ],
      "stateMutability": "view",
      "type": "function"
    },
    {
      "inputs": [],
      "name": "symbol",
      "outputs": [
        {
          "internalType": "string",
          "name": "",
          "type": "string"
        }
      ],
      "stateMutability": "view",
      "type": "function"
    },
    {
      "inputs": [
        {
          "internalType": "uint256",
          "name": "tokenId",
          "type": "uint256"
        }
      ],
      "name": "tokenURI",
      "outputs": [
        {
          "internalType": "string",
          "name": "",
          "type": "string"
        }
      ],
      "stateMutability": "view",
      "type": "function"
    },
    {
      "inputs": [
        {
          "internalType": "address",
          "name": "from",
          "type": "address"
        },
        {
          "internalType": "address",
          "name": "to",
          "type": "address"
        },
        {
          "internalType": "uint256",
          "name": "tokenId",
          "type": "uint256"
        }
      ],
      "name": "transferFrom",
      "outputs": [],
      "stateMutability": "nonpayable",
      "type": "function"
    },
    {
      "inputs": [],
      "name": "usdtAddress",
      "outputs": [
        {
          "internalType": "address payable",
          "name": "",
          "type": "address"
        }
      ],
      "stateMutability": "view",
      "type": "function"
    }
  ],
  "bytecode": "0x6101406040523480156200001257600080fd5b50604051620055773803806200557783398181016040528101906200003891906200053a565b6040518060400160405280600581526020017f56616465650000000000000000000000000000000000000000000000000000008152506040518060400160405280600581526020017f56616465650000000000000000000000000000000000000000000000000000008152506040518060400160405280600581526020017f56414445450000000000000000000000000000000000000000000000000000008152506040518060400160405280600181526020017f310000000000000000000000000000000000000000000000000000000000000081525060008280519060200120905060008280519060200120905060007f8b73c3c69bb8fe3d512ecc4cf759cc79239f7b179b0ffacaa9a75d522b39400f90508260e081815250508161010081815250504660a0818152505062000179818484620002bc60201b60201c565b608081815250503073ffffffffffffffffffffffffffffffffffffffff1660c08173ffffffffffffffffffffffffffffffffffffffff1660601b8152505080610120818152505050505050508160029080519060200190620001dd92919062000473565b508060039080519060200190620001f692919062000473565b5050506001600a81905550620002337fe2f4eaae4a9751e85a3e4a7b9587827a877f29914755229b07a7b2da98285f7033620002f860201b60201c565b80600b60006101000a81548173ffffffffffffffffffffffffffffffffffffffff021916908373ffffffffffffffffffffffffffffffffffffffff16021790555033600c60006101000a81548173ffffffffffffffffffffffffffffffffffffffff021916908373ffffffffffffffffffffffffffffffffffffffff16021790555050620006d1565b60008383834630604051602001620002d995949392919062000599565b6040516020818303038152906040528051906020012090509392505050565b6200030a82826200030e60201b60201c565b5050565b6200032082826200040060201b60201c565b620003fc5760016009600084815260200190815260200160002060000160008373ffffffffffffffffffffffffffffffffffffffff1673ffffffffffffffffffffffffffffffffffffffff16815260200190815260200160002060006101000a81548160ff021916908315150217905550620003a16200046b60201b60201c565b73ffffffffffffffffffffffffffffffffffffffff168173ffffffffffffffffffffffffffffffffffffffff16837f2f8788117e7eff1d82e926ec794901d17c78024a50270940304540a733656f0d60405160405180910390a45b5050565b60006009600084815260200190815260200160002060000160008373ffffffffffffffffffffffffffffffffffffffff1673ffffffffffffffffffffffffffffffffffffffff16815260200190815260200160002060009054906101000a900460ff16905092915050565b600033905090565b828054620004819062000652565b90600052602060002090601f016020900481019282620004a55760008555620004f1565b82601f10620004c057805160ff1916838001178555620004f1565b82800160010185558215620004f1579182015b82811115620004f0578251825591602001919060010190620004d3565b5b50905062000500919062000504565b5090565b5b808211156200051f57600081600090555060010162000505565b5090565b6000815190506200053481620006b7565b92915050565b6000602082840312156200054d57600080fd5b60006200055d8482850162000523565b91505092915050565b6200057181620005f6565b82525050565b62000582816200061e565b82525050565b620005938162000648565b82525050565b600060a082019050620005b0600083018862000577565b620005bf602083018762000577565b620005ce604083018662000577565b620005dd606083018562000588565b620005ec608083018462000566565b9695505050505050565b6000620006038262000628565b9050919050565b6000620006178262000628565b9050919050565b6000819050919050565b600073ffffffffffffffffffffffffffffffffffffffff82169050919050565b6000819050919050565b600060028204905060018216806200066b57607f821691505b6020821081141562000682576200068162000688565b5b50919050565b7f4e487b7100000000000000000000000000000000000000000000000000000000600052602260045260246000fd5b620006c2816200060a565b8114620006ce57600080fd5b50565b60805160a05160c05160601c60e0516101005161012051614e53620007246000396000612f4901526000612f8b01526000612f6a01526000612e9f01526000612ef501526000612f1e0152614e536000f3fe608060405234801561001057600080fd5b50600436106101585760003560e01c80636352211e116100c3578063a217fddf1161007c578063a217fddf146103ec578063a22cb4651461040a578063b88d4fde14610426578063c87b56dd14610442578063d547741f14610472578063e985e9c51461048e57610158565b80636352211e1461030257806370a082311461033257806391d148541461036257806395d89b41146103925780639ab4a445146103b0578063a1ebf35d146103ce57610158565b80632a55205a116101155780632a55205a146102435780632f2ff15d1461027457806336568abe1461029057806342842e0e146102ac57806344959489146102c8578063564b81ef146102e457610158565b806301ffc9a71461015d57806306fdde031461018d578063081812fc146101ab578063095ea7b3146101db57806323b872dd146101f7578063248a9ca314610213575b600080fd5b61017760048036038101906101729190613794565b6104be565b6040516101849190613eda565b60405180910390f35b6101956104f0565b6040516101a29190614044565b60405180910390f35b6101c560048036038101906101c091906137e6565b610582565b6040516101d29190613dc1565b60405180910390f35b6101f560048036038101906101f091906136ca565b6105c8565b005b610211600480360381019061020c9190613570565b6106e0565b005b61022d6004803603810190610228919061372f565b610740565b60405161023a9190613ef5565b60405180910390f35b61025d6004803603810190610258919061380f565b610760565b60405161026b929190613eb1565b60405180910390f35b61028e60048036038101906102899190613758565b61094b565b005b6102aa60048036038101906102a59190613758565b61096c565b005b6102c660048036038101906102c19190613570565b6109ef565b005b6102e260048036038101906102dd9190613676565b610a0f565b005b6102ec610d97565b6040516102f99190614306565b60405180910390f35b61031c600480360381019061031791906137e6565b610da4565b6040516103299190613dc1565b60405180910390f35b61034c6004803603810190610347919061350b565b610e2b565b6040516103599190614306565b60405180910390f35b61037c60048036038101906103779190613758565b610ee3565b6040516103899190613eda565b60405180910390f35b61039a610f4e565b6040516103a79190614044565b60405180910390f35b6103b8610fe0565b6040516103c59190613ddc565b60405180910390f35b6103d6611006565b6040516103e39190613ef5565b60405180910390f35b6103f461102a565b6040516104019190613ef5565b60405180910390f35b610424600480360381019061041f919061363a565b611031565b005b610440600480360381019061043b91906135bf565b611047565b005b61045c600480360381019061045791906137e6565b6110a9565b6040516104699190614044565b60405180910390f35b61048c60048036038101906104879190613758565b6110bb565b005b6104a860048036038101906104a39190613534565b6110dc565b6040516104b59190613eda565b60405180910390f35b60006104c982611170565b806104d957506104d882611252565b5b806104e957506104e8826112cc565b5b9050919050565b6060600280546104ff906146df565b80601f016020809104026020016040519081016040528092919081815260200182805461052b906146df565b80156105785780601f1061054d57610100808354040283529160200191610578565b820191906000526020600020905b81548152906001019060200180831161055b57829003601f168201915b5050505050905090565b600061058d826112de565b6006600083815260200190815260200160002060009054906101000a900473ffffffffffffffffffffffffffffffffffffffff169050919050565b60006105d382610da4565b90508073ffffffffffffffffffffffffffffffffffffffff168373ffffffffffffffffffffffffffffffffffffffff161415610644576040517f08c379a000000000000000000000000000000000000000000000000000000000815260040161063b90614246565b60405180910390fd5b8073ffffffffffffffffffffffffffffffffffffffff16610663611329565b73ffffffffffffffffffffffffffffffffffffffff16148061069257506106918161068c611329565b6110dc565b5b6106d1576040517f08c379a00000000000000000000000000000000000000000000000000000000081526004016106c890614266565b60405180910390fd5b6106db8383611331565b505050565b6106f16106eb611329565b826113ea565b610730576040517f08c379a0000000000000000000000000000000000000000000000000000000008152600401610727906140a6565b60405180910390fd5b61073b83838361147f565b505050565b600060096000838152602001908152602001600020600101549050919050565b6000806000600160008681526020019081526020016000206040518060400160405290816000820160009054906101000a900473ffffffffffffffffffffffffffffffffffffffff1673ffffffffffffffffffffffffffffffffffffffff1673ffffffffffffffffffffffffffffffffffffffff1681526020016000820160149054906101000a90046bffffffffffffffffffffffff166bffffffffffffffffffffffff166bffffffffffffffffffffffff16815250509050600073ffffffffffffffffffffffffffffffffffffffff16816000015173ffffffffffffffffffffffffffffffffffffffff1614156108f65760006040518060400160405290816000820160009054906101000a900473ffffffffffffffffffffffffffffffffffffffff1673ffffffffffffffffffffffffffffffffffffffff1673ffffffffffffffffffffffffffffffffffffffff1681526020016000820160149054906101000a90046bffffffffffffffffffffffff166bffffffffffffffffffffffff166bffffffffffffffffffffffff168152505090505b6000610900611779565b6bffffffffffffffffffffffff1682602001516bffffffffffffffffffffffff168661092c91906144fa565b61093691906144c9565b90508160000151819350935050509250929050565b61095482610740565b61095d81611783565b6109678383611797565b505050565b610974611329565b73ffffffffffffffffffffffffffffffffffffffff168173ffffffffffffffffffffffffffffffffffffffff16146109e1576040517f08c379a00000000000000000000000000000000000000000000000000000000081526004016109d8906142e6565b60405180910390fd5b6109eb8282611878565b5050565b610a0a83838360405180602001604052806000815250611047565b505050565b610a1761195a565b6000610a22826119aa565b9050610a4e7fe2f4eaae4a9751e85a3e4a7b9587827a877f29914755229b07a7b2da98285f7082610ee3565b610a8d576040517f08c379a0000000000000000000000000000000000000000000000000000000008152600401610a84906141e6565b60405180910390fd5b6000600b60009054906101000a900473ffffffffffffffffffffffffffffffffffffffff16905060008360a001359050600060648560e0016020810190610ad4919061384b565b6bffffffffffffffffffffffff1683610aed91906144fa565b610af791906144c9565b90508273ffffffffffffffffffffffffffffffffffffffff166323b872dd33600c60009054906101000a900473ffffffffffffffffffffffffffffffffffffffff16846040518463ffffffff1660e01b8152600401610b5893929190613df7565b602060405180830381600087803b158015610b7257600080fd5b505af1158015610b86573d6000803e3d6000fd5b505050506040513d601f19601f82011682018060405250810190610baa9190613706565b508273ffffffffffffffffffffffffffffffffffffffff166323b872dd33876020016020810190610bdb919061350b565b8486610be79190614554565b6040518463ffffffff1660e01b8152600401610c0593929190613e2e565b602060405180830381600087803b158015610c1f57600080fd5b505af1158015610c33573d6000803e3d6000fd5b505050506040513d601f19601f82011682018060405250810190610c579190613706565b50610c78856020016020810190610c6e919061350b565b8660400135611a1d565b610cd88560400135868060c00190610c909190614378565b8080601f016020809104026020016040519081016040528093929190818152602001838380828437600081840152601f19601f82011690508083019250505050505050611a3b565b610d0c8560400135866020016020810190610cf3919061350b565b87610100016020810190610d07919061384b565b611aaf565b610d2d856020016020810190610d22919061350b565b87876040013561147f565b8460400135856020016020810190610d45919061350b565b73ffffffffffffffffffffffffffffffffffffffff167feb6589e365532f57cded1cbd1976724f4c9f127c6de9c84839dbfa93bc72077960405160405180910390a350505050610d93611c57565b5050565b6000804690508091505090565b600080610db083611c61565b9050600073ffffffffffffffffffffffffffffffffffffffff168173ffffffffffffffffffffffffffffffffffffffff161415610e22576040517f08c379a0000000000000000000000000000000000000000000000000000000008152600401610e1990614226565b60405180910390fd5b80915050919050565b60008073ffffffffffffffffffffffffffffffffffffffff168273ffffffffffffffffffffffffffffffffffffffff161415610e9c576040517f08c379a0000000000000000000000000000000000000000000000000000000008152600401610e93906141a6565b60405180910390fd5b600560008373ffffffffffffffffffffffffffffffffffffffff1673ffffffffffffffffffffffffffffffffffffffff168152602001908152602001600020549050919050565b60006009600084815260200190815260200160002060000160008373ffffffffffffffffffffffffffffffffffffffff1673ffffffffffffffffffffffffffffffffffffffff16815260200190815260200160002060009054906101000a900460ff16905092915050565b606060038054610f5d906146df565b80601f0160208091040260200160405190810160405280929190818152602001828054610f89906146df565b8015610fd65780601f10610fab57610100808354040283529160200191610fd6565b820191906000526020600020905b815481529060010190602001808311610fb957829003601f168201915b5050505050905090565b600b60009054906101000a900473ffffffffffffffffffffffffffffffffffffffff1681565b7fe2f4eaae4a9751e85a3e4a7b9587827a877f29914755229b07a7b2da98285f7081565b6000801b81565b61104361103c611329565b8383611c9e565b5050565b611058611052611329565b836113ea565b611097576040517f08c379a000000000000000000000000000000000000000000000000000000000815260040161108e906140a6565b60405180910390fd5b6110a384848484611e0b565b50505050565b60606110b482611e67565b9050919050565b6110c482610740565b6110cd81611783565b6110d78383611878565b505050565b6000600760008473ffffffffffffffffffffffffffffffffffffffff1673ffffffffffffffffffffffffffffffffffffffff16815260200190815260200160002060008373ffffffffffffffffffffffffffffffffffffffff1673ffffffffffffffffffffffffffffffffffffffff16815260200190815260200160002060009054906101000a900460ff16905092915050565b60007f80ac58cd000000000000000000000000000000000000000000000000000000007bffffffffffffffffffffffffffffffffffffffffffffffffffffffff1916827bffffffffffffffffffffffffffffffffffffffffffffffffffffffff1916148061123b57507f5b5e139f000000000000000000000000000000000000000000000000000000007bffffffffffffffffffffffffffffffffffffffffffffffffffffffff1916827bffffffffffffffffffffffffffffffffffffffffffffffffffffffff1916145b8061124b575061124a82611f7a565b5b9050919050565b60007f7965db0b000000000000000000000000000000000000000000000000000000007bffffffffffffffffffffffffffffffffffffffffffffffffffffffff1916827bffffffffffffffffffffffffffffffffffffffffffffffffffffffff191614806112c557506112c4826112cc565b5b9050919050565b60006112d782611170565b9050919050565b6112e781611ff4565b611326576040517f08c379a000000000000000000000000000000000000000000000000000000000815260040161131d90614226565b60405180910390fd5b50565b600033905090565b816006600083815260200190815260200160002060006101000a81548173ffffffffffffffffffffffffffffffffffffffff021916908373ffffffffffffffffffffffffffffffffffffffff160217905550808273ffffffffffffffffffffffffffffffffffffffff166113a483610da4565b73ffffffffffffffffffffffffffffffffffffffff167f8c5be1e5ebec7d5bd14f71427d1e84f3dd0314c0f7b2291e5b200ac8c7c3b92560405160405180910390a45050565b6000806113f683610da4565b90508073ffffffffffffffffffffffffffffffffffffffff168473ffffffffffffffffffffffffffffffffffffffff161480611438575061143781856110dc565b5b8061147657508373ffffffffffffffffffffffffffffffffffffffff1661145e84610582565b73ffffffffffffffffffffffffffffffffffffffff16145b91505092915050565b8273ffffffffffffffffffffffffffffffffffffffff1661149f82610da4565b73ffffffffffffffffffffffffffffffffffffffff16146114f5576040517f08c379a00000000000000000000000000000000000000000000000000000000081526004016114ec90614106565b60405180910390fd5b600073ffffffffffffffffffffffffffffffffffffffff168273ffffffffffffffffffffffffffffffffffffffff161415611565576040517f08c379a000000000000000000000000000000000000000000000000000000000815260040161155c90614146565b60405180910390fd5b6115728383836001612035565b8273ffffffffffffffffffffffffffffffffffffffff1661159282610da4565b73ffffffffffffffffffffffffffffffffffffffff16146115e8576040517f08c379a00000000000000000000000000000000000000000000000000000000081526004016115df90614106565b60405180910390fd5b6006600082815260200190815260200160002060006101000a81549073ffffffffffffffffffffffffffffffffffffffff02191690556001600560008573ffffffffffffffffffffffffffffffffffffffff1673ffffffffffffffffffffffffffffffffffffffff168152602001908152602001600020600082825403925050819055506001600560008473ffffffffffffffffffffffffffffffffffffffff1673ffffffffffffffffffffffffffffffffffffffff16815260200190815260200160002060008282540192505081905550816004600083815260200190815260200160002060006101000a81548173ffffffffffffffffffffffffffffffffffffffff021916908373ffffffffffffffffffffffffffffffffffffffff160217905550808273ffffffffffffffffffffffffffffffffffffffff168473ffffffffffffffffffffffffffffffffffffffff167fddf252ad1be2c89b69c2b068fc378daa952ba7f163c4a11628f55a4df523b3ef60405160405180910390a4611774838383600161203b565b505050565b6000612710905090565b6117948161178f611329565b612041565b50565b6117a18282610ee3565b6118745760016009600084815260200190815260200160002060000160008373ffffffffffffffffffffffffffffffffffffffff1673ffffffffffffffffffffffffffffffffffffffff16815260200190815260200160002060006101000a81548160ff021916908315150217905550611819611329565b73ffffffffffffffffffffffffffffffffffffffff168173ffffffffffffffffffffffffffffffffffffffff16837f2f8788117e7eff1d82e926ec794901d17c78024a50270940304540a733656f0d60405160405180910390a45b5050565b6118828282610ee3565b156119565760006009600084815260200190815260200160002060000160008373ffffffffffffffffffffffffffffffffffffffff1673ffffffffffffffffffffffffffffffffffffffff16815260200190815260200160002060006101000a81548160ff0219169083151502179055506118fb611329565b73ffffffffffffffffffffffffffffffffffffffff168173ffffffffffffffffffffffffffffffffffffffff16837ff6391f5c32d9c69d2a47ea670b442974b53935d1edc7fd64eb21e047a839171b60405160405180910390a45b5050565b6002600a5414156119a0576040517f08c379a0000000000000000000000000000000000000000000000000000000008152600401611997906142c6565b60405180910390fd5b6002600a81905550565b6000806119b6836120c6565b9050611a1581848061012001906119cd9190614321565b8080601f016020809104026020016040519081016040528093929190818152602001838380828437600081840152601f19601f82011690508083019250505050505050612203565b915050919050565b611a3782826040518060200160405280600081525061222a565b5050565b611a4482611ff4565b611a83576040517f08c379a0000000000000000000000000000000000000000000000000000000008152600401611a7a906141c6565b60405180910390fd5b80600860008481526020019081526020016000209080519060200190611aaa92919061333c565b505050565b611ab7611779565b6bffffffffffffffffffffffff16816bffffffffffffffffffffffff161115611b15576040517f08c379a0000000000000000000000000000000000000000000000000000000008152600401611b0c906142a6565b60405180910390fd5b600073ffffffffffffffffffffffffffffffffffffffff168273ffffffffffffffffffffffffffffffffffffffff161415611b85576040517f08c379a0000000000000000000000000000000000000000000000000000000008152600401611b7c90614286565b60405180910390fd5b60405180604001604052808373ffffffffffffffffffffffffffffffffffffffff168152602001826bffffffffffffffffffffffff168152506001600085815260200190815260200160002060008201518160000160006101000a81548173ffffffffffffffffffffffffffffffffffffffff021916908373ffffffffffffffffffffffffffffffffffffffff16021790555060208201518160000160146101000a8154816bffffffffffffffffffffffff02191690836bffffffffffffffffffffffff160217905550905050505050565b6001600a81905550565b60006004600083815260200190815260200160002060009054906101000a900473ffffffffffffffffffffffffffffffffffffffff169050919050565b8173ffffffffffffffffffffffffffffffffffffffff168373ffffffffffffffffffffffffffffffffffffffff161415611d0d576040517f08c379a0000000000000000000000000000000000000000000000000000000008152600401611d0490614166565b60405180910390fd5b80600760008573ffffffffffffffffffffffffffffffffffffffff1673ffffffffffffffffffffffffffffffffffffffff16815260200190815260200160002060008473ffffffffffffffffffffffffffffffffffffffff1673ffffffffffffffffffffffffffffffffffffffff16815260200190815260200160002060006101000a81548160ff0219169083151502179055508173ffffffffffffffffffffffffffffffffffffffff168373ffffffffffffffffffffffffffffffffffffffff167f17307eab39ab6107e8899845ad3d59bd9653f200f220920489ca2b5937696c3183604051611dfe9190613eda565b60405180910390a3505050565b611e1684848461147f565b611e2284848484612285565b611e61576040517f08c379a0000000000000000000000000000000000000000000000000000000008152600401611e58906140e6565b60405180910390fd5b50505050565b6060611e72826112de565b6000600860008481526020019081526020016000208054611e92906146df565b80601f0160208091040260200160405190810160405280929190818152602001828054611ebe906146df565b8015611f0b5780601f10611ee057610100808354040283529160200191611f0b565b820191906000526020600020905b815481529060010190602001808311611eee57829003601f168201915b505050505090506000611f1c61241c565b9050600081511415611f32578192505050611f75565b600082511115611f67578082604051602001611f4f929190613d2c565b60405160208183030381529060405292505050611f75565b611f7084612433565b925050505b919050565b60007f2a55205a000000000000000000000000000000000000000000000000000000007bffffffffffffffffffffffffffffffffffffffffffffffffffffffff1916827bffffffffffffffffffffffffffffffffffffffffffffffffffffffff19161480611fed5750611fec8261249b565b5b9050919050565b60008073ffffffffffffffffffffffffffffffffffffffff1661201683611c61565b73ffffffffffffffffffffffffffffffffffffffff1614159050919050565b50505050565b50505050565b61204b8282610ee3565b6120c25761205881612505565b6120668360001c6020612532565b604051602001612077929190613d87565b6040516020818303038152906040526040517f08c379a00000000000000000000000000000000000000000000000000000000081526004016120b99190614044565b60405180910390fd5b5050565b60006121fc7f5fa91ee16b023b0c7ee1c225ecc62dc51de781c929666b3cba2890883d676b548380600001906120fc9190614378565b60405161210a929190613d13565b6040518091039020846020016020810190612125919061350b565b856040013586806060019061213a9190614378565b604051612148929190613d13565b60405180910390208780608001906121609190614378565b60405161216e929190613d13565b60405180910390208860a00135898060c0019061218b9190614378565b604051612199929190613d13565b60405180910390208a60e00160208101906121b4919061384b565b8b6101000160208101906121c8919061384b565b6040516020016121e19a99989796959493929190613f10565b6040516020818303038152906040528051906020012061282c565b9050919050565b60008060006122128585612846565b9150915061221f81612898565b819250505092915050565b6122348383612b36565b6122416000848484612285565b612280576040517f08c379a0000000000000000000000000000000000000000000000000000000008152600401612277906140e6565b60405180910390fd5b505050565b60006122a68473ffffffffffffffffffffffffffffffffffffffff16612d54565b1561240f578373ffffffffffffffffffffffffffffffffffffffff1663150b7a026122cf611329565b8786866040518563ffffffff1660e01b81526004016122f19493929190613e65565b602060405180830381600087803b15801561230b57600080fd5b505af192505050801561233c57506040513d601f19601f8201168201806040525081019061233991906137bd565b60015b6123bf573d806000811461236c576040519150601f19603f3d011682016040523d82523d6000602084013e612371565b606091505b506000815114156123b7576040517f08c379a00000000000000000000000000000000000000000000000000000000081526004016123ae906140e6565b60405180910390fd5b805181602001fd5b63150b7a0260e01b7bffffffffffffffffffffffffffffffffffffffffffffffffffffffff1916817bffffffffffffffffffffffffffffffffffffffffffffffffffffffff191614915050612414565b600190505b949350505050565b606060405180602001604052806000815250905090565b606061243e826112de565b600061244861241c565b905060008151116124685760405180602001604052806000815250612493565b8061247284612d77565b604051602001612483929190613d2c565b6040516020818303038152906040525b915050919050565b60007f01ffc9a7000000000000000000000000000000000000000000000000000000007bffffffffffffffffffffffffffffffffffffffffffffffffffffffff1916827bffffffffffffffffffffffffffffffffffffffffffffffffffffffff1916149050919050565b606061252b8273ffffffffffffffffffffffffffffffffffffffff16601460ff16612532565b9050919050565b60606000600283600261254591906144fa565b61254f9190614473565b67ffffffffffffffff81111561258e577f4e487b7100000000000000000000000000000000000000000000000000000000600052604160045260246000fd5b6040519080825280601f01601f1916602001820160405280156125c05781602001600182028036833780820191505090505b5090507f30000000000000000000000000000000000000000000000000000000000000008160008151811061261e577f4e487b7100000000000000000000000000000000000000000000000000000000600052603260045260246000fd5b60200101907effffffffffffffffffffffffffffffffffffffffffffffffffffffffffffff1916908160001a9053507f7800000000000000000000000000000000000000000000000000000000000000816001815181106126a8577f4e487b7100000000000000000000000000000000000000000000000000000000600052603260045260246000fd5b60200101907effffffffffffffffffffffffffffffffffffffffffffffffffffffffffffff1916908160001a905350600060018460026126e891906144fa565b6126f29190614473565b90505b60018111156127de577f3031323334353637383961626364656600000000000000000000000000000000600f86166010811061275a577f4e487b7100000000000000000000000000000000000000000000000000000000600052603260045260246000fd5b1a60f81b828281518110612797577f4e487b7100000000000000000000000000000000000000000000000000000000600052603260045260246000fd5b60200101907effffffffffffffffffffffffffffffffffffffffffffffffffffffffffffff1916908160001a905350600485901c9450806127d7906146b5565b90506126f5565b5060008414612822576040517f08c379a000000000000000000000000000000000000000000000000000000000815260040161281990614086565b60405180910390fd5b8091505092915050565b600061283f612839612e9b565b83612fb5565b9050919050565b6000806041835114156128885760008060006020860151925060408601519150606086015160001a905061287c87828585612fe8565b94509450505050612891565b60006002915091505b9250929050565b600060048111156128d2577f4e487b7100000000000000000000000000000000000000000000000000000000600052602160045260246000fd5b81600481111561290b577f4e487b7100000000000000000000000000000000000000000000000000000000600052602160045260246000fd5b141561291657612b33565b60016004811115612950577f4e487b7100000000000000000000000000000000000000000000000000000000600052602160045260246000fd5b816004811115612989577f4e487b7100000000000000000000000000000000000000000000000000000000600052602160045260246000fd5b14156129ca576040517f08c379a00000000000000000000000000000000000000000000000000000000081526004016129c190614066565b60405180910390fd5b60026004811115612a04577f4e487b7100000000000000000000000000000000000000000000000000000000600052602160045260246000fd5b816004811115612a3d577f4e487b7100000000000000000000000000000000000000000000000000000000600052602160045260246000fd5b1415612a7e576040517f08c379a0000000000000000000000000000000000000000000000000000000008152600401612a75906140c6565b60405180910390fd5b60036004811115612ab8577f4e487b7100000000000000000000000000000000000000000000000000000000600052602160045260246000fd5b816004811115612af1577f4e487b7100000000000000000000000000000000000000000000000000000000600052602160045260246000fd5b1415612b32576040517f08c379a0000000000000000000000000000000000000000000000000000000008152600401612b2990614186565b60405180910390fd5b5b50565b600073ffffffffffffffffffffffffffffffffffffffff168273ffffffffffffffffffffffffffffffffffffffff161415612ba6576040517f08c379a0000000000000000000000000000000000000000000000000000000008152600401612b9d90614206565b60405180910390fd5b612baf81611ff4565b15612bef576040517f08c379a0000000000000000000000000000000000000000000000000000000008152600401612be690614126565b60405180910390fd5b612bfd600083836001612035565b612c0681611ff4565b15612c46576040517f08c379a0000000000000000000000000000000000000000000000000000000008152600401612c3d90614126565b60405180910390fd5b6001600560008473ffffffffffffffffffffffffffffffffffffffff1673ffffffffffffffffffffffffffffffffffffffff16815260200190815260200160002060008282540192505081905550816004600083815260200190815260200160002060006101000a81548173ffffffffffffffffffffffffffffffffffffffff021916908373ffffffffffffffffffffffffffffffffffffffff160217905550808273ffffffffffffffffffffffffffffffffffffffff16600073ffffffffffffffffffffffffffffffffffffffff167fddf252ad1be2c89b69c2b068fc378daa952ba7f163c4a11628f55a4df523b3ef60405160405180910390a4612d5060008383600161203b565b5050565b6000808273ffffffffffffffffffffffffffffffffffffffff163b119050919050565b606060006001612d86846130cb565b01905060008167ffffffffffffffff811115612dcb577f4e487b7100000000000000000000000000000000000000000000000000000000600052604160045260246000fd5b6040519080825280601f01601f191660200182016040528015612dfd5781602001600182028036833780820191505090505b509050600082602001820190505b600115612e90578080600190039150507f3031323334353637383961626364656600000000000000000000000000000000600a86061a8153600a8581612e7a577f4e487b7100000000000000000000000000000000000000000000000000000000600052601260045260246000fd5b0494506000851415612e8b57612e90565b612e0b565b819350505050919050565b60007f000000000000000000000000000000000000000000000000000000000000000073ffffffffffffffffffffffffffffffffffffffff163073ffffffffffffffffffffffffffffffffffffffff16148015612f1757507f000000000000000000000000000000000000000000000000000000000000000046145b15612f44577f00000000000000000000000000000000000000000000000000000000000000009050612fb2565b612faf7f00000000000000000000000000000000000000000000000000000000000000007f00000000000000000000000000000000000000000000000000000000000000007f0000000000000000000000000000000000000000000000000000000000000000613302565b90505b90565b60008282604051602001612fca929190613d50565b60405160208183030381529060405280519060200120905092915050565b6000807f7fffffffffffffffffffffffffffffff5d576e7357a4501ddfe92f46681b20a08360001c11156130235760006003915091506130c2565b6000600187878787604051600081526020016040526040516130489493929190613fff565b6020604051602081039080840390855afa15801561306a573d6000803e3d6000fd5b505050602060405103519050600073ffffffffffffffffffffffffffffffffffffffff168173ffffffffffffffffffffffffffffffffffffffff1614156130b9576000600192509250506130c2565b80600092509250505b94509492505050565b600080600090507a184f03e93ff9f4daa797ed6e38ed64bf6a1f010000000000000000831061314f577a184f03e93ff9f4daa797ed6e38ed64bf6a1f0100000000000000008381613145577f4e487b7100000000000000000000000000000000000000000000000000000000600052601260045260246000fd5b0492506040810190505b6d04ee2d6d415b85acef810000000083106131b2576d04ee2d6d415b85acef810000000083816131a8577f4e487b7100000000000000000000000000000000000000000000000000000000600052601260045260246000fd5b0492506020810190505b662386f26fc10000831061320757662386f26fc1000083816131fd577f4e487b7100000000000000000000000000000000000000000000000000000000600052601260045260246000fd5b0492506010810190505b6305f5e1008310613256576305f5e100838161324c577f4e487b7100000000000000000000000000000000000000000000000000000000600052601260045260246000fd5b0492506008810190505b61271083106132a1576127108381613297577f4e487b7100000000000000000000000000000000000000000000000000000000600052601260045260246000fd5b0492506004810190505b606483106132ea57606483816132e0577f4e487b7100000000000000000000000000000000000000000000000000000000600052601260045260246000fd5b0492506002810190505b600a83106132f9576001810190505b80915050919050565b6000838383463060405160200161331d959493929190613fac565b6040516020818303038152906040528051906020012090509392505050565b828054613348906146df565b90600052602060002090601f01602090048101928261336a57600085556133b1565b82601f1061338357805160ff19168380011785556133b1565b828001600101855582156133b1579182015b828111156133b0578251825591602001919060010190613395565b5b5090506133be91906133c2565b5090565b5b808211156133db5760008160009055506001016133c3565b5090565b60006133f26133ed846143f4565b6143cf565b90508281526020810184848401111561340a57600080fd5b613415848285614673565b509392505050565b60008135905061342c81614d93565b92915050565b60008135905061344181614daa565b92915050565b60008151905061345681614daa565b92915050565b60008135905061346b81614dc1565b92915050565b60008135905061348081614dd8565b92915050565b60008151905061349581614dd8565b92915050565b600082601f8301126134ac57600080fd5b81356134bc8482602086016133df565b91505092915050565b600061014082840312156134d857600080fd5b81905092915050565b6000813590506134f081614def565b92915050565b60008135905061350581614e06565b92915050565b60006020828403121561351d57600080fd5b600061352b8482850161341d565b91505092915050565b6000806040838503121561354757600080fd5b60006135558582860161341d565b92505060206135668582860161341d565b9150509250929050565b60008060006060848603121561358557600080fd5b60006135938682870161341d565b93505060206135a48682870161341d565b92505060406135b5868287016134e1565b9150509250925092565b600080600080608085870312156135d557600080fd5b60006135e38782880161341d565b94505060206135f48782880161341d565b9350506040613605878288016134e1565b925050606085013567ffffffffffffffff81111561362257600080fd5b61362e8782880161349b565b91505092959194509250565b6000806040838503121561364d57600080fd5b600061365b8582860161341d565b925050602061366c85828601613432565b9150509250929050565b6000806040838503121561368957600080fd5b60006136978582860161341d565b925050602083013567ffffffffffffffff8111156136b457600080fd5b6136c0858286016134c5565b9150509250929050565b600080604083850312156136dd57600080fd5b60006136eb8582860161341d565b92505060206136fc858286016134e1565b9150509250929050565b60006020828403121561371857600080fd5b600061372684828501613447565b91505092915050565b60006020828403121561374157600080fd5b600061374f8482850161345c565b91505092915050565b6000806040838503121561376b57600080fd5b60006137798582860161345c565b925050602061378a8582860161341d565b9150509250929050565b6000602082840312156137a657600080fd5b60006137b484828501613471565b91505092915050565b6000602082840312156137cf57600080fd5b60006137dd84828501613486565b91505092915050565b6000602082840312156137f857600080fd5b6000613806848285016134e1565b91505092915050565b6000806040838503121561382257600080fd5b6000613830858286016134e1565b9250506020613841858286016134e1565b9150509250929050565b60006020828403121561385d57600080fd5b600061386b848285016134f6565b91505092915050565b61387d8161463d565b82525050565b61388c8161459a565b82525050565b61389b81614588565b82525050565b6138aa816145ac565b82525050565b6138b9816145b8565b82525050565b6138d06138cb826145b8565b614742565b82525050565b60006138e2838561444c565b93506138ef838584614673565b82840190509392505050565b600061390682614425565b613910818561443b565b9350613920818560208601614682565b61392981614808565b840191505092915050565b600061393f82614430565b6139498185614457565b9350613959818560208601614682565b61396281614808565b840191505092915050565b600061397882614430565b6139828185614468565b9350613992818560208601614682565b80840191505092915050565b60006139ab601883614457565b91506139b682614819565b602082019050919050565b60006139ce602083614457565b91506139d982614842565b602082019050919050565b60006139f1602d83614457565b91506139fc8261486b565b604082019050919050565b6000613a14601f83614457565b9150613a1f826148ba565b602082019050919050565b6000613a37603283614457565b9150613a42826148e3565b604082019050919050565b6000613a5a602583614457565b9150613a6582614932565b604082019050919050565b6000613a7d601c83614457565b9150613a8882614981565b602082019050919050565b6000613aa0600283614468565b9150613aab826149aa565b600282019050919050565b6000613ac3602483614457565b9150613ace826149d3565b604082019050919050565b6000613ae6601983614457565b9150613af182614a22565b602082019050919050565b6000613b09602283614457565b9150613b1482614a4b565b604082019050919050565b6000613b2c602983614457565b9150613b3782614a9a565b604082019050919050565b6000613b4f602e83614457565b9150613b5a82614ae9565b604082019050919050565b6000613b72601183614457565b9150613b7d82614b38565b602082019050919050565b6000613b95602083614457565b9150613ba082614b61565b602082019050919050565b6000613bb8601883614457565b9150613bc382614b8a565b602082019050919050565b6000613bdb602183614457565b9150613be682614bb3565b604082019050919050565b6000613bfe603d83614457565b9150613c0982614c02565b604082019050919050565b6000613c21601b83614457565b9150613c2c82614c51565b602082019050919050565b6000613c44601783614468565b9150613c4f82614c7a565b601782019050919050565b6000613c67602a83614457565b9150613c7282614ca3565b604082019050919050565b6000613c8a601f83614457565b9150613c9582614cf2565b602082019050919050565b6000613cad601183614468565b9150613cb882614d1b565b601182019050919050565b6000613cd0602f83614457565b9150613cdb82614d44565b604082019050919050565b613cef8161460e565b82525050565b613cfe81614618565b82525050565b613d0d81614625565b82525050565b6000613d208284866138d6565b91508190509392505050565b6000613d38828561396d565b9150613d44828461396d565b91508190509392505050565b6000613d5b82613a93565b9150613d6782856138bf565b602082019150613d7782846138bf565b6020820191508190509392505050565b6000613d9282613c37565b9150613d9e828561396d565b9150613da982613ca0565b9150613db5828461396d565b91508190509392505050565b6000602082019050613dd66000830184613892565b92915050565b6000602082019050613df16000830184613883565b92915050565b6000606082019050613e0c6000830186613892565b613e196020830185613874565b613e266040830184613ce6565b949350505050565b6000606082019050613e436000830186613892565b613e506020830185613892565b613e5d6040830184613ce6565b949350505050565b6000608082019050613e7a6000830187613892565b613e876020830186613892565b613e946040830185613ce6565b8181036060830152613ea681846138fb565b905095945050505050565b6000604082019050613ec66000830185613892565b613ed36020830184613ce6565b9392505050565b6000602082019050613eef60008301846138a1565b92915050565b6000602082019050613f0a60008301846138b0565b92915050565b600061014082019050613f26600083018d6138b0565b613f33602083018c6138b0565b613f40604083018b613892565b613f4d606083018a613ce6565b613f5a60808301896138b0565b613f6760a08301886138b0565b613f7460c0830187613ce6565b613f8160e08301866138b0565b613f8f610100830185613d04565b613f9d610120830184613d04565b9b9a5050505050505050505050565b600060a082019050613fc160008301886138b0565b613fce60208301876138b0565b613fdb60408301866138b0565b613fe86060830185613ce6565b613ff56080830184613892565b9695505050505050565b600060808201905061401460008301876138b0565b6140216020830186613cf5565b61402e60408301856138b0565b61403b60608301846138b0565b95945050505050565b6000602082019050818103600083015261405e8184613934565b905092915050565b6000602082019050818103600083015261407f8161399e565b9050919050565b6000602082019050818103600083015261409f816139c1565b9050919050565b600060208201905081810360008301526140bf816139e4565b9050919050565b600060208201905081810360008301526140df81613a07565b9050919050565b600060208201905081810360008301526140ff81613a2a565b9050919050565b6000602082019050818103600083015261411f81613a4d565b9050919050565b6000602082019050818103600083015261413f81613a70565b9050919050565b6000602082019050818103600083015261415f81613ab6565b9050919050565b6000602082019050818103600083015261417f81613ad9565b9050919050565b6000602082019050818103600083015261419f81613afc565b9050919050565b600060208201905081810360008301526141bf81613b1f565b9050919050565b600060208201905081810360008301526141df81613b42565b9050919050565b600060208201905081810360008301526141ff81613b65565b9050919050565b6000602082019050818103600083015261421f81613b88565b9050919050565b6000602082019050818103600083015261423f81613bab565b9050919050565b6000602082019050818103600083015261425f81613bce565b9050919050565b6000602082019050818103600083015261427f81613bf1565b9050919050565b6000602082019050818103600083015261429f81613c14565b9050919050565b600060208201905081810360008301526142bf81613c5a565b9050919050565b600060208201905081810360008301526142df81613c7d565b9050919050565b600060208201905081810360008301526142ff81613cc3565b9050919050565b600060208201905061431b6000830184613ce6565b92915050565b6000808335600160200384360303811261433a57600080fd5b80840192508235915067ffffffffffffffff82111561435857600080fd5b60208301925060018202360383131561437057600080fd5b509250929050565b6000808335600160200384360303811261439157600080fd5b80840192508235915067ffffffffffffffff8211156143af57600080fd5b6020830192506001820236038313156143c757600080fd5b509250929050565b60006143d96143ea565b90506143e58282614711565b919050565b6000604051905090565b600067ffffffffffffffff82111561440f5761440e6147d9565b5b61441882614808565b9050602081019050919050565b600081519050919050565b600081519050919050565b600082825260208201905092915050565b600081905092915050565b600082825260208201905092915050565b600081905092915050565b600061447e8261460e565b91506144898361460e565b9250827fffffffffffffffffffffffffffffffffffffffffffffffffffffffffffffffff038211156144be576144bd61474c565b5b828201905092915050565b60006144d48261460e565b91506144df8361460e565b9250826144ef576144ee61477b565b5b828204905092915050565b60006145058261460e565b91506145108361460e565b9250817fffffffffffffffffffffffffffffffffffffffffffffffffffffffffffffffff04831182151516156145495761454861474c565b5b828202905092915050565b600061455f8261460e565b915061456a8361460e565b92508282101561457d5761457c61474c565b5b828203905092915050565b6000614593826145ee565b9050919050565b60006145a5826145ee565b9050919050565b60008115159050919050565b6000819050919050565b60007fffffffff0000000000000000000000000000000000000000000000000000000082169050919050565b600073ffffffffffffffffffffffffffffffffffffffff82169050919050565b6000819050919050565b600060ff82169050919050565b60006bffffffffffffffffffffffff82169050919050565b60006146488261464f565b9050919050565b600061465a82614661565b9050919050565b600061466c826145ee565b9050919050565b82818337600083830152505050565b60005b838110156146a0578082015181840152602081019050614685565b838111156146af576000848401525b50505050565b60006146c08261460e565b915060008214156146d4576146d361474c565b5b600182039050919050565b600060028204905060018216806146f757607f821691505b6020821081141561470b5761470a6147aa565b5b50919050565b61471a82614808565b810181811067ffffffffffffffff82111715614739576147386147d9565b5b80604052505050565b6000819050919050565b7f4e487b7100000000000000000000000000000000000000000000000000000000600052601160045260246000fd5b7f4e487b7100000000000000000000000000000000000000000000000000000000600052601260045260246000fd5b7f4e487b7100000000000000000000000000000000000000000000000000000000600052602260045260246000fd5b7f4e487b7100000000000000000000000000000000000000000000000000000000600052604160045260246000fd5b6000601f19601f8301169050919050565b7f45434453413a20696e76616c6964207369676e61747572650000000000000000600082015250565b7f537472696e67733a20686578206c656e67746820696e73756666696369656e74600082015250565b7f4552433732313a2063616c6c6572206973206e6f7420746f6b656e206f776e6560008201527f72206f7220617070726f76656400000000000000000000000000000000000000602082015250565b7f45434453413a20696e76616c6964207369676e6174757265206c656e67746800600082015250565b7f4552433732313a207472616e7366657220746f206e6f6e20455243373231526560008201527f63656976657220696d706c656d656e7465720000000000000000000000000000602082015250565b7f4552433732313a207472616e736665722066726f6d20696e636f72726563742060008201527f6f776e6572000000000000000000000000000000000000000000000000000000602082015250565b7f4552433732313a20746f6b656e20616c7265616479206d696e74656400000000600082015250565b7f1901000000000000000000000000000000000000000000000000000000000000600082015250565b7f4552433732313a207472616e7366657220746f20746865207a65726f2061646460008201527f7265737300000000000000000000000000000000000000000000000000000000602082015250565b7f4552433732313a20617070726f766520746f2063616c6c657200000000000000600082015250565b7f45434453413a20696e76616c6964207369676e6174757265202773272076616c60008201527f7565000000000000000000000000000000000000000000000000000000000000602082015250565b7f4552433732313a2061646472657373207a65726f206973206e6f74206120766160008201527f6c6964206f776e65720000000000000000000000000000000000000000000000602082015250565b7f45524337323155524953746f726167653a2055524920736574206f66206e6f6e60008201527f6578697374656e7420746f6b656e000000000000000000000000000000000000602082015250565b7f5065726d697373696f6e2044656e696564000000000000000000000000000000600082015250565b7f4552433732313a206d696e7420746f20746865207a65726f2061646472657373600082015250565b7f4552433732313a20696e76616c696420746f6b656e2049440000000000000000600082015250565b7f4552433732313a20617070726f76616c20746f2063757272656e74206f776e6560008201527f7200000000000000000000000000000000000000000000000000000000000000602082015250565b7f4552433732313a20617070726f76652063616c6c6572206973206e6f7420746f60008201527f6b656e206f776e6572206f7220617070726f76656420666f7220616c6c000000602082015250565b7f455243323938313a20496e76616c696420706172616d65746572730000000000600082015250565b7f416363657373436f6e74726f6c3a206163636f756e7420000000000000000000600082015250565b7f455243323938313a20726f79616c7479206665652077696c6c2065786365656460008201527f2073616c65507269636500000000000000000000000000000000000000000000602082015250565b7f5265656e7472616e637947756172643a207265656e7472616e742063616c6c00600082015250565b7f206973206d697373696e6720726f6c6520000000000000000000000000000000600082015250565b7f416363657373436f6e74726f6c3a2063616e206f6e6c792072656e6f756e636560008201527f20726f6c657320666f722073656c660000000000000000000000000000000000602082015250565b614d9c81614588565b8114614da757600080fd5b50565b614db3816145ac565b8114614dbe57600080fd5b50565b614dca816145b8565b8114614dd557600080fd5b50565b614de1816145c2565b8114614dec57600080fd5b50565b614df88161460e565b8114614e0357600080fd5b50565b614e0f81614625565b8114614e1a57600080fd5b5056fea2646970667358221220d0a0ac8025d54416dede3d6b3b18e80945513c9a517ac08a4b4cde6866da42c964736f6c63430008040033",
  "linkReferences": {},
  "deployedLinkReferences": {}
}